{
  "contractName": "AirdropSSSC",
  "abi": [
    {
      "inputs": [
        {
          "internalType": "address",
          "name": "mintSSSCAddress",
          "type": "address"
        }
      ],
      "stateMutability": "nonpayable",
      "type": "constructor"
    },
    {
      "anonymous": false,
      "inputs": [
        {
          "indexed": true,
          "internalType": "address",
          "name": "owner",
          "type": "address"
        },
        {
          "indexed": false,
          "internalType": "uint256",
          "name": "tokenId",
          "type": "uint256"
        }
      ],
      "name": "AirdropMinted",
      "type": "event"
    },
    {
      "anonymous": false,
      "inputs": [
        {
          "indexed": true,
          "internalType": "address",
          "name": "owner",
          "type": "address"
        },
        {
          "indexed": false,
          "internalType": "uint256",
          "name": "tokenId",
          "type": "uint256"
        }
      ],
      "name": "MintCountSetup",
      "type": "event"
    },
    {
      "anonymous": false,
      "inputs": [
        {
          "indexed": true,
          "internalType": "address",
          "name": "host",
          "type": "address"
        },
        {
          "indexed": true,
          "internalType": "address",
          "name": "guest",
          "type": "address"
        }
      ],
      "name": "OwnershipExtended",
      "type": "event"
    },
    {
      "anonymous": false,
      "inputs": [
        {
          "indexed": true,
          "internalType": "address",
          "name": "revokedOwner",
          "type": "address"
        }
      ],
      "name": "OwnershipRevoked",
      "type": "event"
    },
    {
      "anonymous": false,
      "inputs": [
        {
          "indexed": true,
          "internalType": "address",
          "name": "previousOwner",
          "type": "address"
        },
        {
          "indexed": true,
          "internalType": "address",
          "name": "newOwner",
          "type": "address"
        }
      ],
      "name": "OwnershipTransferred",
      "type": "event"
    },
    {
      "anonymous": false,
      "inputs": [
        {
          "indexed": true,
          "internalType": "address",
          "name": "owner",
          "type": "address"
        },
        {
          "indexed": false,
          "internalType": "uint256",
          "name": "balance",
          "type": "uint256"
        }
      ],
      "name": "Withdrawn",
      "type": "event"
    },
    {
      "inputs": [
        {
          "internalType": "address",
          "name": "guest",
          "type": "address"
        }
      ],
      "name": "addOwner",
      "outputs": [],
      "stateMutability": "nonpayable",
      "type": "function"
    },
    {
      "inputs": [
        {
          "internalType": "address",
          "name": "owner",
          "type": "address"
        }
      ],
      "name": "isOwner",
      "outputs": [
        {
          "internalType": "bool",
          "name": "",
          "type": "bool"
        }
      ],
      "stateMutability": "view",
      "type": "function",
      "constant": true
    },
    {
      "inputs": [
        {
          "internalType": "address",
          "name": "",
          "type": "address"
        }
      ],
      "name": "owners",
      "outputs": [
        {
          "internalType": "bool",
          "name": "",
          "type": "bool"
        }
      ],
      "stateMutability": "view",
      "type": "function",
      "constant": true
    },
    {
      "inputs": [
        {
          "internalType": "address",
          "name": "owner",
          "type": "address"
        }
      ],
      "name": "removeOwner",
      "outputs": [],
      "stateMutability": "nonpayable",
      "type": "function"
    },
    {
      "inputs": [
        {
          "internalType": "address",
          "name": "newOwner",
          "type": "address"
        }
      ],
      "name": "transferOwnership",
      "outputs": [],
      "stateMutability": "nonpayable",
      "type": "function"
    },
    {
      "inputs": [
        {
          "internalType": "uint256",
          "name": "mintCount",
          "type": "uint256"
        }
      ],
      "name": "setMintCount",
      "outputs": [],
      "stateMutability": "nonpayable",
      "type": "function"
    },
    {
      "inputs": [],
      "name": "getMintCount",
      "outputs": [
        {
          "internalType": "uint256",
          "name": "",
          "type": "uint256"
        }
      ],
      "stateMutability": "view",
      "type": "function",
      "constant": true
    },
    {
      "inputs": [
        {
          "internalType": "address",
          "name": "target",
          "type": "address"
        },
        {
          "internalType": "uint256",
          "name": "requestedCount",
          "type": "uint256"
        }
      ],
      "name": "airdropMint",
      "outputs": [],
      "stateMutability": "nonpayable",
      "type": "function"
    },
    {
      "inputs": [],
      "name": "withdraw",
      "outputs": [],
      "stateMutability": "nonpayable",
      "type": "function"
    }
  ],
  "bytecode": "0x608060405234801561001057600080fd5b50604051610f37380380610f3783398181016040528101906100329190610133565b60016000803373ffffffffffffffffffffffffffffffffffffffff1673ffffffffffffffffffffffffffffffffffffffff16815260200190815260200160002060006101000a81548160ff02191690831515021790555080600260006101000a81548173ffffffffffffffffffffffffffffffffffffffff021916908373ffffffffffffffffffffffffffffffffffffffff16021790555050610160565b600080fd5b600073ffffffffffffffffffffffffffffffffffffffff82169050919050565b6000610100826100d5565b9050919050565b610110816100f5565b811461011b57600080fd5b50565b60008151905061012d81610107565b92915050565b600060208284031215610149576101486100d0565b5b60006101578482850161011e565b91505092915050565b610dc88061016f6000396000f3fe608060405234801561001057600080fd5b50600436106100935760003560e01c80633345d34a116100665780633345d34a146101305780633ccfd60b1461014c5780637065cb48146101565780638fc3b54914610172578063f2fde38b1461019057610093565b8063022914a714610098578063173825d9146100c857806322ad0670146100e45780632f54bf6e14610100575b600080fd5b6100b260048036038101906100ad9190610a08565b6101ac565b6040516100bf9190610a50565b60405180910390f35b6100e260048036038101906100dd9190610a08565b6101cc565b005b6100fe60048036038101906100f99190610aa1565b610330565b005b61011a60048036038101906101159190610a08565b610524565b6040516101279190610a50565b60405180910390f35b61014a60048036038101906101459190610ae1565b610579565b005b6101546105d2565b005b610170600480360381019061016b9190610a08565b6106b8565b005b61017a6107fb565b6040516101879190610b1d565b60405180910390f35b6101aa60048036038101906101a59190610a08565b610805565b005b60006020528060005260406000206000915054906101000a900460ff1681565b6101dc6101d761099d565b610524565b61021b576040517f08c379a000000000000000000000000000000000000000000000000000000000815260040161021290610b95565b60405180910390fd5b600073ffffffffffffffffffffffffffffffffffffffff168173ffffffffffffffffffffffffffffffffffffffff160361025457600080fd5b8073ffffffffffffffffffffffffffffffffffffffff1661027361099d565b73ffffffffffffffffffffffffffffffffffffffff160361029357600080fd5b60008060008373ffffffffffffffffffffffffffffffffffffffff1673ffffffffffffffffffffffffffffffffffffffff16815260200190815260200160002060006101000a81548160ff0219169083151502179055508073ffffffffffffffffffffffffffffffffffffffff167f0d715ebedf3d01353f62c2245e0afc27d98f1bc0fb99512f42873fb9879f023960405160405180910390a250565b61034061033b61099d565b610524565b61037f576040517f08c379a000000000000000000000000000000000000000000000000000000000815260040161037690610b95565b60405180910390fd5b6000600154116103c4576040517f08c379a00000000000000000000000000000000000000000000000000000000081526004016103bb90610c01565b60405180910390fd5b60008111610407576040517f08c379a00000000000000000000000000000000000000000000000000000000081526004016103fe90610c6d565b60405180910390fd5b60005b8181101561051f57600260009054906101000a900473ffffffffffffffffffffffffffffffffffffffff1673ffffffffffffffffffffffffffffffffffffffff166340c10f19846001546040518363ffffffff1660e01b8152600401610471929190610c9c565b600060405180830381600087803b15801561048b57600080fd5b505af115801561049f573d6000803e3d6000fd5b505050503373ffffffffffffffffffffffffffffffffffffffff167fef1585cd9743b170e77a247f0c35cd842dbb8b59cb1981becbc26f7ec1a7fc566001546040516104eb9190610b1d565b60405180910390a260018060008282546105059190610cf4565b92505081905550808061051790610d4a565b91505061040a565b505050565b60008060008373ffffffffffffffffffffffffffffffffffffffff1673ffffffffffffffffffffffffffffffffffffffff16815260200190815260200160002060009054906101000a900460ff169050919050565b61058961058461099d565b610524565b6105c8576040517f08c379a00000000000000000000000000000000000000000000000000000000081526004016105bf90610b95565b60405180910390fd5b8060018190555050565b6105e26105dd61099d565b610524565b610621576040517f08c379a000000000000000000000000000000000000000000000000000000000815260040161061890610b95565b60405180910390fd5b3373ffffffffffffffffffffffffffffffffffffffff166108fc479081150290604051600060405180830381858888f19350505050158015610667573d6000803e3d6000fd5b503373ffffffffffffffffffffffffffffffffffffffff167f7084f5476618d8e60b11ef0d7d3f06914655adb8793e28ff7f018d4c76d505d5476040516106ae9190610b1d565b60405180910390a2565b6106c86106c361099d565b610524565b610707576040517f08c379a00000000000000000000000000000000000000000000000000000000081526004016106fe90610b95565b60405180910390fd5b600073ffffffffffffffffffffffffffffffffffffffff168173ffffffffffffffffffffffffffffffffffffffff160361074057600080fd5b60016000808373ffffffffffffffffffffffffffffffffffffffff1673ffffffffffffffffffffffffffffffffffffffff16815260200190815260200160002060006101000a81548160ff0219169083151502179055508073ffffffffffffffffffffffffffffffffffffffff166107b661099d565b73ffffffffffffffffffffffffffffffffffffffff167f1d95aed2b82ae4cbdcccc214bb64bc277a20e8490d69a59d7f426c67fe46c61d60405160405180910390a350565b6000600154905090565b61081561081061099d565b610524565b610854576040517f08c379a000000000000000000000000000000000000000000000000000000000815260040161084b90610b95565b60405180910390fd5b600073ffffffffffffffffffffffffffffffffffffffff168173ffffffffffffffffffffffffffffffffffffffff160361088d57600080fd5b60016000808373ffffffffffffffffffffffffffffffffffffffff1673ffffffffffffffffffffffffffffffffffffffff16815260200190815260200160002060006101000a81548160ff0219169083151502179055506000806108ef61099d565b73ffffffffffffffffffffffffffffffffffffffff1673ffffffffffffffffffffffffffffffffffffffff16815260200190815260200160002060006101000a81549060ff02191690558073ffffffffffffffffffffffffffffffffffffffff1661095861099d565b73ffffffffffffffffffffffffffffffffffffffff167f8be0079c531659141344cd1fd0a4f28419497f9722a3daafe3b4186f6b6457e060405160405180910390a350565b600033905090565b600080fd5b600073ffffffffffffffffffffffffffffffffffffffff82169050919050565b60006109d5826109aa565b9050919050565b6109e5816109ca565b81146109f057600080fd5b50565b600081359050610a02816109dc565b92915050565b600060208284031215610a1e57610a1d6109a5565b5b6000610a2c848285016109f3565b91505092915050565b60008115159050919050565b610a4a81610a35565b82525050565b6000602082019050610a656000830184610a41565b92915050565b6000819050919050565b610a7e81610a6b565b8114610a8957600080fd5b50565b600081359050610a9b81610a75565b92915050565b60008060408385031215610ab857610ab76109a5565b5b6000610ac6858286016109f3565b9250506020610ad785828601610a8c565b9150509250929050565b600060208284031215610af757610af66109a5565b5b6000610b0584828501610a8c565b91505092915050565b610b1781610a6b565b82525050565b6000602082019050610b326000830184610b0e565b92915050565b600082825260208201905092915050565b7f4f776e61626c653a2063616c6c6572206973206e6f7420746865206f776e6572600082015250565b6000610b7f602083610b38565b9150610b8a82610b49565b602082019050919050565b60006020820190508181036000830152610bae81610b72565b9050919050565b7f5365747570204d696e74436f756e740000000000000000000000000000000000600082015250565b6000610beb600f83610b38565b9150610bf682610bb5565b602082019050919050565b60006020820190508181036000830152610c1a81610bde565b9050919050565b7f7a65726f20726571756573740000000000000000000000000000000000000000600082015250565b6000610c57600c83610b38565b9150610c6282610c21565b602082019050919050565b60006020820190508181036000830152610c8681610c4a565b9050919050565b610c96816109ca565b82525050565b6000604082019050610cb16000830185610c8d565b610cbe6020830184610b0e565b9392505050565b7f4e487b7100000000000000000000000000000000000000000000000000000000600052601160045260246000fd5b6000610cff82610a6b565b9150610d0a83610a6b565b9250827fffffffffffffffffffffffffffffffffffffffffffffffffffffffffffffffff03821115610d3f57610d3e610cc5565b5b828201905092915050565b6000610d5582610a6b565b91507fffffffffffffffffffffffffffffffffffffffffffffffffffffffffffffffff8203610d8757610d86610cc5565b5b60018201905091905056fea26469706673582212203c9c02f3916e614bea6ec5e4daaff1051722d5563d52b722a3a1d4e03d21627864736f6c634300080d0033",
  "immutableReferences": {},
  "source": "// SPDX-License-Identifier: MIT\n\npragma solidity ^0.8.13;\n\nimport \"../token/ISSSC.sol\";\nimport \"../ownable/Ownable.sol\";\n\ncontract AirdropSSSC is Ownable {  \n  uint256 private _mintCount;\n\n  ISSSC private _sssc;\n  constructor (address mintSSSCAddress) {\n    _sssc = ISSSC(mintSSSCAddress);\n  }\n\n  event MintCountSetup(address indexed owner, uint256 tokenId);\n  event AirdropMinted(address indexed owner, uint256 tokenId);\n  event Withdrawn(address indexed owner, uint256 balance);\n\n  function setMintCount(uint256 mintCount) external onlyOwner {\n    _mintCount = mintCount;\n  }\n\n  function getMintCount() external view returns (uint256) {\n    return _mintCount;\n  }\n\n  function airdropMint(address target, uint256 requestedCount) external onlyOwner {\n    require(_mintCount > 0, \"Setup MintCount\");\n    require(requestedCount > 0, \"zero request\");\n    \n    for(uint256 i = 0; i < requestedCount; i++) {\n      _sssc.mint(target, _mintCount);\n      emit AirdropMinted(msg.sender, _mintCount);\n      _mintCount += 1;\n    }\n  }\n\n  function withdraw() external onlyOwner {\n    payable(msg.sender).transfer(address(this).balance);\n\n    emit Withdrawn(msg.sender, address(this).balance);\n  }\n}",
  "sourcePath": "/Users/haeminmoon/Documents/sssc-contract/contracts/util/AirdropSSSC.sol",
  "compiler": {
    "name": "solc",
    "version": "0.8.13+commit.abaa5c0e.Emscripten.clang"
  },
  "schemaVersion": "3.4.7",
  "updatedAt": "2022-06-20T07:40:24.212Z",
  "networkType": "ethereum",
  "devdoc": {
    "kind": "dev",
    "methods": {},
    "version": 1
  },
  "userdoc": {
    "kind": "user",
    "methods": {},
    "version": 1
  }
}