{
  "contractName": "AirdropSSSC",
  "abi": [
    {
      "inputs": [
        {
          "internalType": "address",
          "name": "mintSSSCAddress",
          "type": "address"
        }
      ],
      "stateMutability": "nonpayable",
      "type": "constructor"
    },
    {
      "anonymous": false,
      "inputs": [
        {
          "indexed": true,
          "internalType": "address",
          "name": "owner",
          "type": "address"
        },
        {
          "indexed": false,
          "internalType": "uint256",
          "name": "tokenId",
          "type": "uint256"
        }
      ],
      "name": "AirdropMinted",
      "type": "event"
    },
    {
      "anonymous": false,
      "inputs": [
        {
          "indexed": true,
          "internalType": "address",
          "name": "owner",
          "type": "address"
        },
        {
          "indexed": false,
          "internalType": "uint256",
          "name": "tokenId",
          "type": "uint256"
        }
      ],
      "name": "MintCountSetup",
      "type": "event"
    },
    {
      "anonymous": false,
      "inputs": [
        {
          "indexed": true,
          "internalType": "address",
          "name": "host",
          "type": "address"
        },
        {
          "indexed": true,
          "internalType": "address",
          "name": "guest",
          "type": "address"
        }
      ],
      "name": "OwnershipExtended",
      "type": "event"
    },
    {
      "anonymous": false,
      "inputs": [
        {
          "indexed": true,
          "internalType": "address",
          "name": "revokedOwner",
          "type": "address"
        }
      ],
      "name": "OwnershipRevoked",
      "type": "event"
    },
    {
      "anonymous": false,
      "inputs": [
        {
          "indexed": true,
          "internalType": "address",
          "name": "previousOwner",
          "type": "address"
        },
        {
          "indexed": true,
          "internalType": "address",
          "name": "newOwner",
          "type": "address"
        }
      ],
      "name": "OwnershipTransferred",
      "type": "event"
    },
    {
      "anonymous": false,
      "inputs": [
        {
          "indexed": true,
          "internalType": "address",
          "name": "owner",
          "type": "address"
        },
        {
          "indexed": false,
          "internalType": "uint256",
          "name": "balance",
          "type": "uint256"
        }
      ],
      "name": "Withdrawn",
      "type": "event"
    },
    {
      "inputs": [
        {
          "internalType": "address",
          "name": "guest",
          "type": "address"
        }
      ],
      "name": "addOwner",
      "outputs": [],
      "stateMutability": "nonpayable",
      "type": "function"
    },
    {
      "inputs": [
        {
          "internalType": "address",
          "name": "owner",
          "type": "address"
        }
      ],
      "name": "isOwner",
      "outputs": [
        {
          "internalType": "bool",
          "name": "",
          "type": "bool"
        }
      ],
      "stateMutability": "view",
      "type": "function",
      "constant": true
    },
    {
      "inputs": [
        {
          "internalType": "address",
          "name": "",
          "type": "address"
        }
      ],
      "name": "owners",
      "outputs": [
        {
          "internalType": "bool",
          "name": "",
          "type": "bool"
        }
      ],
      "stateMutability": "view",
      "type": "function",
      "constant": true
    },
    {
      "inputs": [
        {
          "internalType": "address",
          "name": "owner",
          "type": "address"
        }
      ],
      "name": "removeOwner",
      "outputs": [],
      "stateMutability": "nonpayable",
      "type": "function"
    },
    {
      "inputs": [
        {
          "internalType": "address",
          "name": "newOwner",
          "type": "address"
        }
      ],
      "name": "transferOwnership",
      "outputs": [],
      "stateMutability": "nonpayable",
      "type": "function"
    },
    {
      "inputs": [
        {
          "internalType": "uint256",
          "name": "mintCount",
          "type": "uint256"
        }
      ],
      "name": "setMintCount",
      "outputs": [],
      "stateMutability": "nonpayable",
      "type": "function"
    },
    {
      "inputs": [],
      "name": "getMintCount",
      "outputs": [
        {
          "internalType": "uint256",
          "name": "",
          "type": "uint256"
        }
      ],
      "stateMutability": "view",
      "type": "function",
      "constant": true
    },
    {
      "inputs": [
        {
          "internalType": "address",
          "name": "user",
          "type": "address"
        },
        {
          "internalType": "uint256",
          "name": "requestedCount",
          "type": "uint256"
        }
      ],
      "name": "airDropMint",
      "outputs": [],
      "stateMutability": "nonpayable",
      "type": "function"
    },
    {
      "inputs": [],
      "name": "withdraw",
      "outputs": [],
      "stateMutability": "nonpayable",
      "type": "function"
    }
  ],
  "bytecode": "0x608060405234801561001057600080fd5b50604051610f37380380610f3783398181016040528101906100329190610133565b60016000803373ffffffffffffffffffffffffffffffffffffffff1673ffffffffffffffffffffffffffffffffffffffff16815260200190815260200160002060006101000a81548160ff02191690831515021790555080600260006101000a81548173ffffffffffffffffffffffffffffffffffffffff021916908373ffffffffffffffffffffffffffffffffffffffff16021790555050610160565b600080fd5b600073ffffffffffffffffffffffffffffffffffffffff82169050919050565b6000610100826100d5565b9050919050565b610110816100f5565b811461011b57600080fd5b50565b60008151905061012d81610107565b92915050565b600060208284031215610149576101486100d0565b5b60006101578482850161011e565b91505092915050565b610dc88061016f6000396000f3fe608060405234801561001057600080fd5b50600436106100935760003560e01c80633ccfd60b116100665780633ccfd60b146101305780637065cb481461013a57806375a1ed08146101565780638fc3b54914610172578063f2fde38b1461019057610093565b8063022914a714610098578063173825d9146100c85780632f54bf6e146100e45780633345d34a14610114575b600080fd5b6100b260048036038101906100ad9190610a08565b6101ac565b6040516100bf9190610a50565b60405180910390f35b6100e260048036038101906100dd9190610a08565b6101cc565b005b6100fe60048036038101906100f99190610a08565b610330565b60405161010b9190610a50565b60405180910390f35b61012e60048036038101906101299190610aa1565b610385565b005b6101386103de565b005b610154600480360381019061014f9190610a08565b6104c4565b005b610170600480360381019061016b9190610ace565b610607565b005b61017a6107fb565b6040516101879190610b1d565b60405180910390f35b6101aa60048036038101906101a59190610a08565b610805565b005b60006020528060005260406000206000915054906101000a900460ff1681565b6101dc6101d761099d565b610330565b61021b576040517f08c379a000000000000000000000000000000000000000000000000000000000815260040161021290610b95565b60405180910390fd5b600073ffffffffffffffffffffffffffffffffffffffff168173ffffffffffffffffffffffffffffffffffffffff160361025457600080fd5b8073ffffffffffffffffffffffffffffffffffffffff1661027361099d565b73ffffffffffffffffffffffffffffffffffffffff160361029357600080fd5b60008060008373ffffffffffffffffffffffffffffffffffffffff1673ffffffffffffffffffffffffffffffffffffffff16815260200190815260200160002060006101000a81548160ff0219169083151502179055508073ffffffffffffffffffffffffffffffffffffffff167f0d715ebedf3d01353f62c2245e0afc27d98f1bc0fb99512f42873fb9879f023960405160405180910390a250565b60008060008373ffffffffffffffffffffffffffffffffffffffff1673ffffffffffffffffffffffffffffffffffffffff16815260200190815260200160002060009054906101000a900460ff169050919050565b61039561039061099d565b610330565b6103d4576040517f08c379a00000000000000000000000000000000000000000000000000000000081526004016103cb90610b95565b60405180910390fd5b8060018190555050565b6103ee6103e961099d565b610330565b61042d576040517f08c379a000000000000000000000000000000000000000000000000000000000815260040161042490610b95565b60405180910390fd5b3373ffffffffffffffffffffffffffffffffffffffff166108fc479081150290604051600060405180830381858888f19350505050158015610473573d6000803e3d6000fd5b503373ffffffffffffffffffffffffffffffffffffffff167f7084f5476618d8e60b11ef0d7d3f06914655adb8793e28ff7f018d4c76d505d5476040516104ba9190610b1d565b60405180910390a2565b6104d46104cf61099d565b610330565b610513576040517f08c379a000000000000000000000000000000000000000000000000000000000815260040161050a90610b95565b60405180910390fd5b600073ffffffffffffffffffffffffffffffffffffffff168173ffffffffffffffffffffffffffffffffffffffff160361054c57600080fd5b60016000808373ffffffffffffffffffffffffffffffffffffffff1673ffffffffffffffffffffffffffffffffffffffff16815260200190815260200160002060006101000a81548160ff0219169083151502179055508073ffffffffffffffffffffffffffffffffffffffff166105c261099d565b73ffffffffffffffffffffffffffffffffffffffff167f1d95aed2b82ae4cbdcccc214bb64bc277a20e8490d69a59d7f426c67fe46c61d60405160405180910390a350565b61061761061261099d565b610330565b610656576040517f08c379a000000000000000000000000000000000000000000000000000000000815260040161064d90610b95565b60405180910390fd5b60006001541161069b576040517f08c379a000000000000000000000000000000000000000000000000000000000815260040161069290610c01565b60405180910390fd5b600081116106de576040517f08c379a00000000000000000000000000000000000000000000000000000000081526004016106d590610c6d565b60405180910390fd5b60005b818110156107f657600260009054906101000a900473ffffffffffffffffffffffffffffffffffffffff1673ffffffffffffffffffffffffffffffffffffffff166340c10f19846001546040518363ffffffff1660e01b8152600401610748929190610c9c565b600060405180830381600087803b15801561076257600080fd5b505af1158015610776573d6000803e3d6000fd5b505050503373ffffffffffffffffffffffffffffffffffffffff167fef1585cd9743b170e77a247f0c35cd842dbb8b59cb1981becbc26f7ec1a7fc566001546040516107c29190610b1d565b60405180910390a260018060008282546107dc9190610cf4565b9250508190555080806107ee90610d4a565b9150506106e1565b505050565b6000600154905090565b61081561081061099d565b610330565b610854576040517f08c379a000000000000000000000000000000000000000000000000000000000815260040161084b90610b95565b60405180910390fd5b600073ffffffffffffffffffffffffffffffffffffffff168173ffffffffffffffffffffffffffffffffffffffff160361088d57600080fd5b60016000808373ffffffffffffffffffffffffffffffffffffffff1673ffffffffffffffffffffffffffffffffffffffff16815260200190815260200160002060006101000a81548160ff0219169083151502179055506000806108ef61099d565b73ffffffffffffffffffffffffffffffffffffffff1673ffffffffffffffffffffffffffffffffffffffff16815260200190815260200160002060006101000a81549060ff02191690558073ffffffffffffffffffffffffffffffffffffffff1661095861099d565b73ffffffffffffffffffffffffffffffffffffffff167f8be0079c531659141344cd1fd0a4f28419497f9722a3daafe3b4186f6b6457e060405160405180910390a350565b600033905090565b600080fd5b600073ffffffffffffffffffffffffffffffffffffffff82169050919050565b60006109d5826109aa565b9050919050565b6109e5816109ca565b81146109f057600080fd5b50565b600081359050610a02816109dc565b92915050565b600060208284031215610a1e57610a1d6109a5565b5b6000610a2c848285016109f3565b91505092915050565b60008115159050919050565b610a4a81610a35565b82525050565b6000602082019050610a656000830184610a41565b92915050565b6000819050919050565b610a7e81610a6b565b8114610a8957600080fd5b50565b600081359050610a9b81610a75565b92915050565b600060208284031215610ab757610ab66109a5565b5b6000610ac584828501610a8c565b91505092915050565b60008060408385031215610ae557610ae46109a5565b5b6000610af3858286016109f3565b9250506020610b0485828601610a8c565b9150509250929050565b610b1781610a6b565b82525050565b6000602082019050610b326000830184610b0e565b92915050565b600082825260208201905092915050565b7f4f776e61626c653a2063616c6c6572206973206e6f7420746865206f776e6572600082015250565b6000610b7f602083610b38565b9150610b8a82610b49565b602082019050919050565b60006020820190508181036000830152610bae81610b72565b9050919050565b7f5365747570204d696e74436f756e740000000000000000000000000000000000600082015250565b6000610beb600f83610b38565b9150610bf682610bb5565b602082019050919050565b60006020820190508181036000830152610c1a81610bde565b9050919050565b7f7a65726f20726571756573740000000000000000000000000000000000000000600082015250565b6000610c57600c83610b38565b9150610c6282610c21565b602082019050919050565b60006020820190508181036000830152610c8681610c4a565b9050919050565b610c96816109ca565b82525050565b6000604082019050610cb16000830185610c8d565b610cbe6020830184610b0e565b9392505050565b7f4e487b7100000000000000000000000000000000000000000000000000000000600052601160045260246000fd5b6000610cff82610a6b565b9150610d0a83610a6b565b9250827fffffffffffffffffffffffffffffffffffffffffffffffffffffffffffffffff03821115610d3f57610d3e610cc5565b5b828201905092915050565b6000610d5582610a6b565b91507fffffffffffffffffffffffffffffffffffffffffffffffffffffffffffffffff8203610d8757610d86610cc5565b5b60018201905091905056fea2646970667358221220f501136869c01a5ffea4601c5989e8ebbcf2a093e3799810144fd62cc36f8dc864736f6c634300080d0033",
  "immutableReferences": {},
  "source": "// SPDX-License-Identifier: MIT\n\npragma solidity ^0.8.13;\n\nimport \"./ISSSC.sol\";\nimport \"../ownable/Ownable.sol\";\n\ncontract AirdropSSSC is Ownable {  \n  uint256 private _mintCount;\n\n  ISSSC private _sssc;\n  constructor (address mintSSSCAddress) {\n    _sssc = ISSSC(mintSSSCAddress);\n  }\n\n  event MintCountSetup(address indexed owner, uint256 tokenId);\n  event AirdropMinted(address indexed owner, uint256 tokenId);\n  event Withdrawn(address indexed owner, uint256 balance);\n\n  function setMintCount(uint256 mintCount) external onlyOwner {\n    _mintCount = mintCount;\n  }\n\n  function getMintCount() external view returns (uint256) {\n    return _mintCount;\n  }\n\n  function airDropMint(address user, uint256 requestedCount) external onlyOwner {\n    require(_mintCount > 0, \"Setup MintCount\");\n    require(requestedCount > 0, \"zero request\");\n    \n    for(uint256 i = 0; i < requestedCount; i++) {\n      _sssc.mint(user, _mintCount);\n      emit AirdropMinted(msg.sender, _mintCount);\n      _mintCount += 1;\n    }\n  }\n\n  function withdraw() external onlyOwner {\n    payable(msg.sender).transfer(address(this).balance);\n\n    emit Withdrawn(msg.sender, address(this).balance);\n  }\n}",
  "sourcePath": "/Users/harace/dev/sssc-contract/contracts/token/AirdropSSSC.sol",
  "compiler": {
    "name": "solc",
    "version": "0.8.13+commit.abaa5c0e.Emscripten.clang"
  },
  "schemaVersion": "3.4.7",
  "updatedAt": "2022-05-06T12:41:17.076Z",
  "networkType": "ethereum",
  "devdoc": {
    "kind": "dev",
    "methods": {},
    "version": 1
  },
  "userdoc": {
    "kind": "user",
    "methods": {},
    "version": 1
  }
}