{
  "contractName": "MintSSSC",
  "abi": [
    {
      "inputs": [
        {
          "internalType": "string",
          "name": "name",
          "type": "string"
        },
        {
          "internalType": "string",
          "name": "symbol",
          "type": "string"
        },
        {
          "internalType": "string",
          "name": "baseTokenURI",
          "type": "string"
        },
        {
          "internalType": "string",
          "name": "notRevealedURI",
          "type": "string"
        }
      ],
      "stateMutability": "nonpayable",
      "type": "constructor"
    },
    {
      "anonymous": false,
      "inputs": [
        {
          "indexed": true,
          "internalType": "address",
          "name": "owner",
          "type": "address"
        },
        {
          "indexed": true,
          "internalType": "address",
          "name": "approved",
          "type": "address"
        },
        {
          "indexed": true,
          "internalType": "uint256",
          "name": "tokenId",
          "type": "uint256"
        }
      ],
      "name": "Approval",
      "type": "event"
    },
    {
      "anonymous": false,
      "inputs": [
        {
          "indexed": true,
          "internalType": "address",
          "name": "owner",
          "type": "address"
        },
        {
          "indexed": true,
          "internalType": "address",
          "name": "operator",
          "type": "address"
        },
        {
          "indexed": false,
          "internalType": "bool",
          "name": "approved",
          "type": "bool"
        }
      ],
      "name": "ApprovalForAll",
      "type": "event"
    },
    {
      "anonymous": false,
      "inputs": [
        {
          "indexed": true,
          "internalType": "address",
          "name": "host",
          "type": "address"
        },
        {
          "indexed": true,
          "internalType": "address",
          "name": "guest",
          "type": "address"
        }
      ],
      "name": "OwnershipExtended",
      "type": "event"
    },
    {
      "anonymous": false,
      "inputs": [
        {
          "indexed": true,
          "internalType": "address",
          "name": "revokedOwner",
          "type": "address"
        }
      ],
      "name": "OwnershipRevoked",
      "type": "event"
    },
    {
      "anonymous": false,
      "inputs": [
        {
          "indexed": true,
          "internalType": "address",
          "name": "previousOwner",
          "type": "address"
        },
        {
          "indexed": true,
          "internalType": "address",
          "name": "newOwner",
          "type": "address"
        }
      ],
      "name": "OwnershipTransferred",
      "type": "event"
    },
    {
      "anonymous": false,
      "inputs": [
        {
          "indexed": false,
          "internalType": "address",
          "name": "account",
          "type": "address"
        }
      ],
      "name": "Paused",
      "type": "event"
    },
    {
      "anonymous": false,
      "inputs": [
        {
          "indexed": true,
          "internalType": "address",
          "name": "from",
          "type": "address"
        },
        {
          "indexed": true,
          "internalType": "address",
          "name": "to",
          "type": "address"
        },
        {
          "indexed": true,
          "internalType": "uint256",
          "name": "tokenId",
          "type": "uint256"
        }
      ],
      "name": "Transfer",
      "type": "event"
    },
    {
      "anonymous": false,
      "inputs": [
        {
          "indexed": false,
          "internalType": "address",
          "name": "account",
          "type": "address"
        }
      ],
      "name": "Unpaused",
      "type": "event"
    },
    {
      "inputs": [
        {
          "internalType": "address",
          "name": "guest",
          "type": "address"
        }
      ],
      "name": "addOwner",
      "outputs": [],
      "stateMutability": "nonpayable",
      "type": "function"
    },
    {
      "inputs": [
        {
          "internalType": "address",
          "name": "to",
          "type": "address"
        },
        {
          "internalType": "uint256",
          "name": "tokenId",
          "type": "uint256"
        }
      ],
      "name": "approve",
      "outputs": [],
      "stateMutability": "nonpayable",
      "type": "function"
    },
    {
      "inputs": [
        {
          "internalType": "address",
          "name": "owner",
          "type": "address"
        }
      ],
      "name": "balanceOf",
      "outputs": [
        {
          "internalType": "uint256",
          "name": "",
          "type": "uint256"
        }
      ],
      "stateMutability": "view",
      "type": "function"
    },
    {
      "inputs": [
        {
          "internalType": "uint256",
          "name": "tokenId",
          "type": "uint256"
        }
      ],
      "name": "getApproved",
      "outputs": [
        {
          "internalType": "address",
          "name": "",
          "type": "address"
        }
      ],
      "stateMutability": "view",
      "type": "function"
    },
    {
      "inputs": [
        {
          "internalType": "address",
          "name": "owner",
          "type": "address"
        },
        {
          "internalType": "address",
          "name": "operator",
          "type": "address"
        }
      ],
      "name": "isApprovedForAll",
      "outputs": [
        {
          "internalType": "bool",
          "name": "",
          "type": "bool"
        }
      ],
      "stateMutability": "view",
      "type": "function"
    },
    {
      "inputs": [
        {
          "internalType": "address",
          "name": "owner",
          "type": "address"
        }
      ],
      "name": "isOwner",
      "outputs": [
        {
          "internalType": "bool",
          "name": "",
          "type": "bool"
        }
      ],
      "stateMutability": "view",
      "type": "function"
    },
    {
      "inputs": [],
      "name": "name",
      "outputs": [
        {
          "internalType": "string",
          "name": "",
          "type": "string"
        }
      ],
      "stateMutability": "view",
      "type": "function"
    },
    {
      "inputs": [
        {
          "internalType": "uint256",
          "name": "tokenId",
          "type": "uint256"
        }
      ],
      "name": "ownerOf",
      "outputs": [
        {
          "internalType": "address",
          "name": "",
          "type": "address"
        }
      ],
      "stateMutability": "view",
      "type": "function"
    },
    {
      "inputs": [
        {
          "internalType": "address",
          "name": "",
          "type": "address"
        }
      ],
      "name": "owners",
      "outputs": [
        {
          "internalType": "bool",
          "name": "",
          "type": "bool"
        }
      ],
      "stateMutability": "view",
      "type": "function"
    },
    {
      "inputs": [],
      "name": "paused",
      "outputs": [
        {
          "internalType": "bool",
          "name": "",
          "type": "bool"
        }
      ],
      "stateMutability": "view",
      "type": "function"
    },
    {
      "inputs": [
        {
          "internalType": "address",
          "name": "owner",
          "type": "address"
        }
      ],
      "name": "removeOwner",
      "outputs": [],
      "stateMutability": "nonpayable",
      "type": "function"
    },
    {
      "inputs": [
        {
          "internalType": "address",
          "name": "from",
          "type": "address"
        },
        {
          "internalType": "address",
          "name": "to",
          "type": "address"
        },
        {
          "internalType": "uint256",
          "name": "tokenId",
          "type": "uint256"
        }
      ],
      "name": "safeTransferFrom",
      "outputs": [],
      "stateMutability": "nonpayable",
      "type": "function"
    },
    {
      "inputs": [
        {
          "internalType": "address",
          "name": "from",
          "type": "address"
        },
        {
          "internalType": "address",
          "name": "to",
          "type": "address"
        },
        {
          "internalType": "uint256",
          "name": "tokenId",
          "type": "uint256"
        },
        {
          "internalType": "bytes",
          "name": "_data",
          "type": "bytes"
        }
      ],
      "name": "safeTransferFrom",
      "outputs": [],
      "stateMutability": "nonpayable",
      "type": "function"
    },
    {
      "inputs": [
        {
          "internalType": "address",
          "name": "operator",
          "type": "address"
        },
        {
          "internalType": "bool",
          "name": "approved",
          "type": "bool"
        }
      ],
      "name": "setApprovalForAll",
      "outputs": [],
      "stateMutability": "nonpayable",
      "type": "function"
    },
    {
      "inputs": [],
      "name": "symbol",
      "outputs": [
        {
          "internalType": "string",
          "name": "",
          "type": "string"
        }
      ],
      "stateMutability": "view",
      "type": "function"
    },
    {
      "inputs": [
        {
          "internalType": "uint256",
          "name": "index",
          "type": "uint256"
        }
      ],
      "name": "tokenByIndex",
      "outputs": [
        {
          "internalType": "uint256",
          "name": "",
          "type": "uint256"
        }
      ],
      "stateMutability": "view",
      "type": "function"
    },
    {
      "inputs": [
        {
          "internalType": "address",
          "name": "owner",
          "type": "address"
        },
        {
          "internalType": "uint256",
          "name": "index",
          "type": "uint256"
        }
      ],
      "name": "tokenOfOwnerByIndex",
      "outputs": [
        {
          "internalType": "uint256",
          "name": "",
          "type": "uint256"
        }
      ],
      "stateMutability": "view",
      "type": "function"
    },
    {
      "inputs": [],
      "name": "totalSupply",
      "outputs": [
        {
          "internalType": "uint256",
          "name": "",
          "type": "uint256"
        }
      ],
      "stateMutability": "view",
      "type": "function"
    },
    {
      "inputs": [
        {
          "internalType": "address",
          "name": "from",
          "type": "address"
        },
        {
          "internalType": "address",
          "name": "to",
          "type": "address"
        },
        {
          "internalType": "uint256",
          "name": "tokenId",
          "type": "uint256"
        }
      ],
      "name": "transferFrom",
      "outputs": [],
      "stateMutability": "nonpayable",
      "type": "function"
    },
    {
      "inputs": [
        {
          "internalType": "address",
          "name": "newOwner",
          "type": "address"
        }
      ],
      "name": "transferOwnership",
      "outputs": [],
      "stateMutability": "nonpayable",
      "type": "function"
    },
    {
      "inputs": [
        {
          "internalType": "string",
          "name": "baseTokenURI",
          "type": "string"
        }
      ],
      "name": "setBaseURI",
      "outputs": [],
      "stateMutability": "nonpayable",
      "type": "function"
    },
    {
      "inputs": [],
      "name": "getBaseURI",
      "outputs": [
        {
          "internalType": "string",
          "name": "",
          "type": "string"
        }
      ],
      "stateMutability": "view",
      "type": "function"
    },
    {
      "inputs": [
        {
          "internalType": "string",
          "name": "newNotRevealedURI",
          "type": "string"
        }
      ],
      "name": "setNotRevealedURI",
      "outputs": [],
      "stateMutability": "nonpayable",
      "type": "function"
    },
    {
      "inputs": [],
      "name": "getNotRevealedURI",
      "outputs": [
        {
          "internalType": "string",
          "name": "",
          "type": "string"
        }
      ],
      "stateMutability": "view",
      "type": "function"
    },
    {
      "inputs": [
        {
          "internalType": "bool",
          "name": "state",
          "type": "bool"
        }
      ],
      "name": "setRevealed",
      "outputs": [],
      "stateMutability": "nonpayable",
      "type": "function"
    },
    {
      "inputs": [
        {
          "internalType": "uint256",
          "name": "tokenId",
          "type": "uint256"
        }
      ],
      "name": "tokenURI",
      "outputs": [
        {
          "internalType": "string",
          "name": "",
          "type": "string"
        }
      ],
      "stateMutability": "view",
      "type": "function"
    },
    {
      "inputs": [
        {
          "internalType": "address",
          "name": "to",
          "type": "address"
        },
        {
          "internalType": "uint256",
          "name": "tokenId",
          "type": "uint256"
        }
      ],
      "name": "mint",
      "outputs": [],
      "stateMutability": "nonpayable",
      "type": "function"
    },
    {
      "inputs": [
        {
          "internalType": "uint256",
          "name": "tokenId",
          "type": "uint256"
        }
      ],
      "name": "exists",
      "outputs": [
        {
          "internalType": "bool",
          "name": "",
          "type": "bool"
        }
      ],
      "stateMutability": "view",
      "type": "function"
    },
    {
      "inputs": [],
      "name": "pause",
      "outputs": [],
      "stateMutability": "nonpayable",
      "type": "function"
    },
    {
      "inputs": [],
      "name": "unpause",
      "outputs": [],
      "stateMutability": "nonpayable",
      "type": "function"
    },
    {
      "inputs": [
        {
          "internalType": "bytes4",
          "name": "interfaceId",
          "type": "bytes4"
        }
      ],
      "name": "supportsInterface",
      "outputs": [
        {
          "internalType": "bool",
          "name": "",
          "type": "bool"
        }
      ],
      "stateMutability": "view",
      "type": "function"
    }
  ],
  "bytecode": "0x60806040523480156200001157600080fd5b50604051620044ce380380620044ce833981810160405281019062000037919062000384565b838381600090805190602001906200005192919062000137565b5080600190805190602001906200006a92919062000137565b5050506000600a60006101000a81548160ff0219169083151502179055506001600b60003373ffffffffffffffffffffffffffffffffffffffff1673ffffffffffffffffffffffffffffffffffffffff16815260200190815260200160002060006101000a81548160ff02191690831515021790555081600c9080519060200190620000f892919062000137565b5080600d90805190602001906200011192919062000137565b506000600e60006101000a81548160ff02191690831515021790555050505050620004d6565b8280546200014590620004a1565b90600052602060002090601f016020900481019282620001695760008555620001b5565b82601f106200018457805160ff1916838001178555620001b5565b82800160010185558215620001b5579182015b82811115620001b457825182559160200191906001019062000197565b5b509050620001c49190620001c8565b5090565b5b80821115620001e3576000816000905550600101620001c9565b5090565b6000604051905090565b600080fd5b600080fd5b600080fd5b600080fd5b6000601f19601f8301169050919050565b7f4e487b7100000000000000000000000000000000000000000000000000000000600052604160045260246000fd5b620002508262000205565b810181811067ffffffffffffffff8211171562000272576200027162000216565b5b80604052505050565b600062000287620001e7565b905062000295828262000245565b919050565b600067ffffffffffffffff821115620002b857620002b762000216565b5b620002c38262000205565b9050602081019050919050565b60005b83811015620002f0578082015181840152602081019050620002d3565b8381111562000300576000848401525b50505050565b60006200031d62000317846200029a565b6200027b565b9050828152602081018484840111156200033c576200033b62000200565b5b62000349848285620002d0565b509392505050565b600082601f830112620003695762000368620001fb565b5b81516200037b84826020860162000306565b91505092915050565b60008060008060808587031215620003a157620003a0620001f1565b5b600085015167ffffffffffffffff811115620003c257620003c1620001f6565b5b620003d08782880162000351565b945050602085015167ffffffffffffffff811115620003f457620003f3620001f6565b5b620004028782880162000351565b935050604085015167ffffffffffffffff811115620004265762000425620001f6565b5b620004348782880162000351565b925050606085015167ffffffffffffffff811115620004585762000457620001f6565b5b620004668782880162000351565b91505092959194509250565b7f4e487b7100000000000000000000000000000000000000000000000000000000600052602260045260246000fd5b60006002820490506001821680620004ba57607f821691505b602082108103620004d057620004cf62000472565b5b50919050565b613fe880620004e66000396000f3fe608060405234801561001057600080fd5b50600436106101e55760003560e01c806355f804b31161010f578063a22cb465116100a2578063e0a8085311610071578063e0a808531461058e578063e985e9c5146105aa578063f2c4ce1e146105da578063f2fde38b146105f6576101e5565b8063a22cb46514610508578063b4199b8c14610524578063b88d4fde14610542578063c87b56dd1461055e576101e5565b806370a08231116100de57806370a0823114610492578063714c5398146104c25780638456cb59146104e057806395d89b41146104ea576101e5565b806355f804b31461040c5780635c975abb146104285780636352211e146104465780637065cb4814610476576101e5565b806323b872dd1161018757806340c10f191161015657806340c10f191461037457806342842e0e146103905780634f558e79146103ac5780634f6ccce7146103dc576101e5565b806323b872dd146102ee5780632f54bf6e1461030a5780632f745c591461033a5780633f4ba83a1461036a576101e5565b8063081812fc116101c3578063081812fc14610268578063095ea7b314610298578063173825d9146102b457806318160ddd146102d0576101e5565b806301ffc9a7146101ea578063022914a71461021a57806306fdde031461024a575b600080fd5b61020460048036038101906101ff9190612a3e565b610612565b6040516102119190612a86565b60405180910390f35b610234600480360381019061022f9190612aff565b610624565b6040516102419190612a86565b60405180910390f35b610252610644565b60405161025f9190612bc5565b60405180910390f35b610282600480360381019061027d9190612c1d565b6106d6565b60405161028f9190612c59565b60405180910390f35b6102b260048036038101906102ad9190612c74565b61075b565b005b6102ce60048036038101906102c99190612aff565b610872565b005b6102d86109d7565b6040516102e59190612cc3565b60405180910390f35b61030860048036038101906103039190612cde565b6109e4565b005b610324600480360381019061031f9190612aff565b610a44565b6040516103319190612a86565b60405180910390f35b610354600480360381019061034f9190612c74565b610a9a565b6040516103619190612cc3565b60405180910390f35b610372610b3f565b005b61038e60048036038101906103899190612c74565b610b98565b005b6103aa60048036038101906103a59190612cde565b610bfe565b005b6103c660048036038101906103c19190612c1d565b610c1e565b6040516103d39190612a86565b60405180910390f35b6103f660048036038101906103f19190612c1d565b610c30565b6040516104039190612cc3565b60405180910390f35b61042660048036038101906104219190612e66565b610ca1565b005b610430610d0a565b60405161043d9190612a86565b60405180910390f35b610460600480360381019061045b9190612c1d565b610d21565b60405161046d9190612c59565b60405180910390f35b610490600480360381019061048b9190612aff565b610dd2565b005b6104ac60048036038101906104a79190612aff565b610f16565b6040516104b99190612cc3565b60405180910390f35b6104ca610fcd565b6040516104d79190612bc5565b60405180910390f35b6104e861105f565b005b6104f26110b8565b6040516104ff9190612bc5565b60405180910390f35b610522600480360381019061051d9190612edb565b61114a565b005b61052c611160565b6040516105399190612bc5565b60405180910390f35b61055c60048036038101906105579190612fbc565b6111f2565b005b61057860048036038101906105739190612c1d565b611254565b6040516105859190612bc5565b60405180910390f35b6105a860048036038101906105a3919061303f565b611312565b005b6105c460048036038101906105bf919061306c565b61137e565b6040516105d19190612a86565b60405180910390f35b6105f460048036038101906105ef9190612e66565b611412565b005b610610600480360381019061060b9190612aff565b61147b565b005b600061061d82611615565b9050919050565b600b6020528060005260406000206000915054906101000a900460ff1681565b606060008054610653906130db565b80601f016020809104026020016040519081016040528092919081815260200182805461067f906130db565b80156106cc5780601f106106a1576101008083540402835291602001916106cc565b820191906000526020600020905b8154815290600101906020018083116106af57829003601f168201915b5050505050905090565b60006106e18261168f565b610720576040517f08c379a00000000000000000000000000000000000000000000000000000000081526004016107179061317e565b60405180910390fd5b6004600083815260200190815260200160002060009054906101000a900473ffffffffffffffffffffffffffffffffffffffff169050919050565b600061076682610d21565b90508073ffffffffffffffffffffffffffffffffffffffff168373ffffffffffffffffffffffffffffffffffffffff16036107d6576040517f08c379a00000000000000000000000000000000000000000000000000000000081526004016107cd90613210565b60405180910390fd5b8073ffffffffffffffffffffffffffffffffffffffff166107f56116fb565b73ffffffffffffffffffffffffffffffffffffffff16148061082457506108238161081e6116fb565b61137e565b5b610863576040517f08c379a000000000000000000000000000000000000000000000000000000000815260040161085a906132a2565b60405180910390fd5b61086d8383611703565b505050565b61088261087d6116fb565b610a44565b6108c1576040517f08c379a00000000000000000000000000000000000000000000000000000000081526004016108b89061330e565b60405180910390fd5b600073ffffffffffffffffffffffffffffffffffffffff168173ffffffffffffffffffffffffffffffffffffffff16036108fa57600080fd5b8073ffffffffffffffffffffffffffffffffffffffff166109196116fb565b73ffffffffffffffffffffffffffffffffffffffff160361093957600080fd5b6000600b60008373ffffffffffffffffffffffffffffffffffffffff1673ffffffffffffffffffffffffffffffffffffffff16815260200190815260200160002060006101000a81548160ff0219169083151502179055508073ffffffffffffffffffffffffffffffffffffffff167f0d715ebedf3d01353f62c2245e0afc27d98f1bc0fb99512f42873fb9879f023960405160405180910390a250565b6000600880549050905090565b6109f56109ef6116fb565b826117bc565b610a34576040517f08c379a0000000000000000000000000000000000000000000000000000000008152600401610a2b906133a0565b60405180910390fd5b610a3f83838361189a565b505050565b6000600b60008373ffffffffffffffffffffffffffffffffffffffff1673ffffffffffffffffffffffffffffffffffffffff16815260200190815260200160002060009054906101000a900460ff169050919050565b6000610aa583610f16565b8210610ae6576040517f08c379a0000000000000000000000000000000000000000000000000000000008152600401610add90613432565b60405180910390fd5b600660008473ffffffffffffffffffffffffffffffffffffffff1673ffffffffffffffffffffffffffffffffffffffff168152602001908152602001600020600083815260200190815260200160002054905092915050565b610b4f610b4a6116fb565b610a44565b610b8e576040517f08c379a0000000000000000000000000000000000000000000000000000000008152600401610b859061330e565b60405180910390fd5b610b96611b00565b565b610ba133610a44565b80610bb15750610bb082610a44565b5b610bf0576040517f08c379a0000000000000000000000000000000000000000000000000000000008152600401610be79061349e565b60405180910390fd5b610bfa8282611ba2565b5050565b610c19838383604051806020016040528060008152506111f2565b505050565b6000610c298261168f565b9050919050565b6000610c3a6109d7565b8210610c7b576040517f08c379a0000000000000000000000000000000000000000000000000000000008152600401610c7290613530565b60405180910390fd5b60088281548110610c8f57610c8e613550565b5b90600052602060002001549050919050565b610cb1610cac6116fb565b610a44565b610cf0576040517f08c379a0000000000000000000000000000000000000000000000000000000008152600401610ce79061330e565b60405180910390fd5b80600c9080519060200190610d0692919061292f565b5050565b6000600a60009054906101000a900460ff16905090565b6000806002600084815260200190815260200160002060009054906101000a900473ffffffffffffffffffffffffffffffffffffffff169050600073ffffffffffffffffffffffffffffffffffffffff168173ffffffffffffffffffffffffffffffffffffffff1603610dc9576040517f08c379a0000000000000000000000000000000000000000000000000000000008152600401610dc0906135f1565b60405180910390fd5b80915050919050565b610de2610ddd6116fb565b610a44565b610e21576040517f08c379a0000000000000000000000000000000000000000000000000000000008152600401610e189061330e565b60405180910390fd5b600073ffffffffffffffffffffffffffffffffffffffff168173ffffffffffffffffffffffffffffffffffffffff1603610e5a57600080fd5b6001600b60008373ffffffffffffffffffffffffffffffffffffffff1673ffffffffffffffffffffffffffffffffffffffff16815260200190815260200160002060006101000a81548160ff0219169083151502179055508073ffffffffffffffffffffffffffffffffffffffff16610ed16116fb565b73ffffffffffffffffffffffffffffffffffffffff167f1d95aed2b82ae4cbdcccc214bb64bc277a20e8490d69a59d7f426c67fe46c61d60405160405180910390a350565b60008073ffffffffffffffffffffffffffffffffffffffff168273ffffffffffffffffffffffffffffffffffffffff1603610f86576040517f08c379a0000000000000000000000000000000000000000000000000000000008152600401610f7d90613683565b60405180910390fd5b600360008373ffffffffffffffffffffffffffffffffffffffff1673ffffffffffffffffffffffffffffffffffffffff168152602001908152602001600020549050919050565b6060600c8054610fdc906130db565b80601f0160208091040260200160405190810160405280929190818152602001828054611008906130db565b80156110555780601f1061102a57610100808354040283529160200191611055565b820191906000526020600020905b81548152906001019060200180831161103857829003601f168201915b5050505050905090565b61106f61106a6116fb565b610a44565b6110ae576040517f08c379a00000000000000000000000000000000000000000000000000000000081526004016110a59061330e565b60405180910390fd5b6110b6611bc0565b565b6060600180546110c7906130db565b80601f01602080910402602001604051908101604052809291908181526020018280546110f3906130db565b80156111405780601f1061111557610100808354040283529160200191611140565b820191906000526020600020905b81548152906001019060200180831161112357829003601f168201915b5050505050905090565b61115c6111556116fb565b8383611c63565b5050565b6060600d805461116f906130db565b80601f016020809104026020016040519081016040528092919081815260200182805461119b906130db565b80156111e85780601f106111bd576101008083540402835291602001916111e8565b820191906000526020600020905b8154815290600101906020018083116111cb57829003601f168201915b5050505050905090565b6112036111fd6116fb565b836117bc565b611242576040517f08c379a0000000000000000000000000000000000000000000000000000000008152600401611239906133a0565b60405180910390fd5b61124e84848484611dcf565b50505050565b606061125f8261168f565b61129e576040517f08c379a000000000000000000000000000000000000000000000000000000000815260040161129590613715565b60405180910390fd5b60001515600e60009054906101000a900460ff161515146112e957600c6112c483611e2b565b6040516020016112d592919061382b565b60405160208183030381529060405261130b565b600d6040516020016112fb9190613884565b6040516020818303038152906040525b9050919050565b61132261131d6116fb565b610a44565b611361576040517f08c379a00000000000000000000000000000000000000000000000000000000081526004016113589061330e565b60405180910390fd5b80600e60006101000a81548160ff02191690831515021790555050565b6000600560008473ffffffffffffffffffffffffffffffffffffffff1673ffffffffffffffffffffffffffffffffffffffff16815260200190815260200160002060008373ffffffffffffffffffffffffffffffffffffffff1673ffffffffffffffffffffffffffffffffffffffff16815260200190815260200160002060009054906101000a900460ff16905092915050565b61142261141d6116fb565b610a44565b611461576040517f08c379a00000000000000000000000000000000000000000000000000000000081526004016114589061330e565b60405180910390fd5b80600d908051906020019061147792919061292f565b5050565b61148b6114866116fb565b610a44565b6114ca576040517f08c379a00000000000000000000000000000000000000000000000000000000081526004016114c19061330e565b60405180910390fd5b600073ffffffffffffffffffffffffffffffffffffffff168173ffffffffffffffffffffffffffffffffffffffff160361150357600080fd5b6001600b60008373ffffffffffffffffffffffffffffffffffffffff1673ffffffffffffffffffffffffffffffffffffffff16815260200190815260200160002060006101000a81548160ff021916908315150217905550600b60006115676116fb565b73ffffffffffffffffffffffffffffffffffffffff1673ffffffffffffffffffffffffffffffffffffffff16815260200190815260200160002060006101000a81549060ff02191690558073ffffffffffffffffffffffffffffffffffffffff166115d06116fb565b73ffffffffffffffffffffffffffffffffffffffff167f8be0079c531659141344cd1fd0a4f28419497f9722a3daafe3b4186f6b6457e060405160405180910390a350565b60007f780e9d63000000000000000000000000000000000000000000000000000000007bffffffffffffffffffffffffffffffffffffffffffffffffffffffff1916827bffffffffffffffffffffffffffffffffffffffffffffffffffffffff19161480611688575061168782611f8b565b5b9050919050565b60008073ffffffffffffffffffffffffffffffffffffffff166002600084815260200190815260200160002060009054906101000a900473ffffffffffffffffffffffffffffffffffffffff1673ffffffffffffffffffffffffffffffffffffffff1614159050919050565b600033905090565b816004600083815260200190815260200160002060006101000a81548173ffffffffffffffffffffffffffffffffffffffff021916908373ffffffffffffffffffffffffffffffffffffffff160217905550808273ffffffffffffffffffffffffffffffffffffffff1661177683610d21565b73ffffffffffffffffffffffffffffffffffffffff167f8c5be1e5ebec7d5bd14f71427d1e84f3dd0314c0f7b2291e5b200ac8c7c3b92560405160405180910390a45050565b60006117c78261168f565b611806576040517f08c379a00000000000000000000000000000000000000000000000000000000081526004016117fd9061391c565b60405180910390fd5b600061181183610d21565b90508073ffffffffffffffffffffffffffffffffffffffff168473ffffffffffffffffffffffffffffffffffffffff16148061188057508373ffffffffffffffffffffffffffffffffffffffff16611868846106d6565b73ffffffffffffffffffffffffffffffffffffffff16145b806118915750611890818561137e565b5b91505092915050565b8273ffffffffffffffffffffffffffffffffffffffff166118ba82610d21565b73ffffffffffffffffffffffffffffffffffffffff1614611910576040517f08c379a0000000000000000000000000000000000000000000000000000000008152600401611907906139ae565b60405180910390fd5b600073ffffffffffffffffffffffffffffffffffffffff168273ffffffffffffffffffffffffffffffffffffffff160361197f576040517f08c379a000000000000000000000000000000000000000000000000000000000815260040161197690613a40565b60405180910390fd5b61198a83838361206d565b611995600082611703565b6001600360008573ffffffffffffffffffffffffffffffffffffffff1673ffffffffffffffffffffffffffffffffffffffff16815260200190815260200160002060008282546119e59190613a8f565b925050819055506001600360008473ffffffffffffffffffffffffffffffffffffffff1673ffffffffffffffffffffffffffffffffffffffff1681526020019081526020016000206000828254611a3c9190613ac3565b92505081905550816002600083815260200190815260200160002060006101000a81548173ffffffffffffffffffffffffffffffffffffffff021916908373ffffffffffffffffffffffffffffffffffffffff160217905550808273ffffffffffffffffffffffffffffffffffffffff168473ffffffffffffffffffffffffffffffffffffffff167fddf252ad1be2c89b69c2b068fc378daa952ba7f163c4a11628f55a4df523b3ef60405160405180910390a4611afb8383836120c5565b505050565b611b08610d0a565b611b47576040517f08c379a0000000000000000000000000000000000000000000000000000000008152600401611b3e90613b65565b60405180910390fd5b6000600a60006101000a81548160ff0219169083151502179055507f5db9ee0a495bf2e6ff9c91a7834c1ba4fdd244a5e8aa4e537bd38aeae4b073aa611b8b6116fb565b604051611b989190612c59565b60405180910390a1565b611bbc8282604051806020016040528060008152506120ca565b5050565b611bc8610d0a565b15611c08576040517f08c379a0000000000000000000000000000000000000000000000000000000008152600401611bff90613bd1565b60405180910390fd5b6001600a60006101000a81548160ff0219169083151502179055507f62e78cea01bee320cd4e420270b5ea74000d11b0c9f74754ebdbfc544b05a258611c4c6116fb565b604051611c599190612c59565b60405180910390a1565b8173ffffffffffffffffffffffffffffffffffffffff168373ffffffffffffffffffffffffffffffffffffffff1603611cd1576040517f08c379a0000000000000000000000000000000000000000000000000000000008152600401611cc890613c3d565b60405180910390fd5b80600560008573ffffffffffffffffffffffffffffffffffffffff1673ffffffffffffffffffffffffffffffffffffffff16815260200190815260200160002060008473ffffffffffffffffffffffffffffffffffffffff1673ffffffffffffffffffffffffffffffffffffffff16815260200190815260200160002060006101000a81548160ff0219169083151502179055508173ffffffffffffffffffffffffffffffffffffffff168373ffffffffffffffffffffffffffffffffffffffff167f17307eab39ab6107e8899845ad3d59bd9653f200f220920489ca2b5937696c3183604051611dc29190612a86565b60405180910390a3505050565b611dda84848461189a565b611de684848484612125565b611e25576040517f08c379a0000000000000000000000000000000000000000000000000000000008152600401611e1c90613ccf565b60405180910390fd5b50505050565b606060008203611e72576040518060400160405280600181526020017f30000000000000000000000000000000000000000000000000000000000000008152509050611f86565b600082905060005b60008214611ea4578080611e8d90613cef565b915050600a82611e9d9190613d66565b9150611e7a565b60008167ffffffffffffffff811115611ec057611ebf612d3b565b5b6040519080825280601f01601f191660200182016040528015611ef25781602001600182028036833780820191505090505b5090505b60008514611f7f57600182611f0b9190613a8f565b9150600a85611f1a9190613d97565b6030611f269190613ac3565b60f81b818381518110611f3c57611f3b613550565b5b60200101907effffffffffffffffffffffffffffffffffffffffffffffffffffffffffffff1916908160001a905350600a85611f789190613d66565b9450611ef6565b8093505050505b919050565b60007f80ac58cd000000000000000000000000000000000000000000000000000000007bffffffffffffffffffffffffffffffffffffffffffffffffffffffff1916827bffffffffffffffffffffffffffffffffffffffffffffffffffffffff1916148061205657507f5b5e139f000000000000000000000000000000000000000000000000000000007bffffffffffffffffffffffffffffffffffffffffffffffffffffffff1916827bffffffffffffffffffffffffffffffffffffffffffffffffffffffff1916145b806120665750612065826122ac565b5b9050919050565b612075610d0a565b156120b5576040517f08c379a00000000000000000000000000000000000000000000000000000000081526004016120ac90613bd1565b60405180910390fd5b6120c0838383612316565b505050565b505050565b6120d48383612428565b6120e16000848484612125565b612120576040517f08c379a000000000000000000000000000000000000000000000000000000000815260040161211790613ccf565b60405180910390fd5b505050565b60006121468473ffffffffffffffffffffffffffffffffffffffff16612601565b1561229f578373ffffffffffffffffffffffffffffffffffffffff1663150b7a0261216f6116fb565b8786866040518563ffffffff1660e01b81526004016121919493929190613e1d565b6020604051808303816000875af19250505080156121cd57506040513d601f19601f820116820180604052508101906121ca9190613e7e565b60015b61224f573d80600081146121fd576040519150601f19603f3d011682016040523d82523d6000602084013e612202565b606091505b506000815103612247576040517f08c379a000000000000000000000000000000000000000000000000000000000815260040161223e90613ccf565b60405180910390fd5b805181602001fd5b63150b7a0260e01b7bffffffffffffffffffffffffffffffffffffffffffffffffffffffff1916817bffffffffffffffffffffffffffffffffffffffffffffffffffffffff1916149150506122a4565b600190505b949350505050565b60007f01ffc9a7000000000000000000000000000000000000000000000000000000007bffffffffffffffffffffffffffffffffffffffffffffffffffffffff1916827bffffffffffffffffffffffffffffffffffffffffffffffffffffffff1916149050919050565b612321838383612624565b600073ffffffffffffffffffffffffffffffffffffffff168373ffffffffffffffffffffffffffffffffffffffff16036123635761235e81612629565b6123a2565b8173ffffffffffffffffffffffffffffffffffffffff168373ffffffffffffffffffffffffffffffffffffffff16146123a1576123a08382612672565b5b5b600073ffffffffffffffffffffffffffffffffffffffff168273ffffffffffffffffffffffffffffffffffffffff16036123e4576123df816127df565b612423565b8273ffffffffffffffffffffffffffffffffffffffff168273ffffffffffffffffffffffffffffffffffffffff16146124225761242182826128b0565b5b5b505050565b600073ffffffffffffffffffffffffffffffffffffffff168273ffffffffffffffffffffffffffffffffffffffff1603612497576040517f08c379a000000000000000000000000000000000000000000000000000000000815260040161248e90613ef7565b60405180910390fd5b6124a08161168f565b156124e0576040517f08c379a00000000000000000000000000000000000000000000000000000000081526004016124d790613f63565b60405180910390fd5b6124ec6000838361206d565b6001600360008473ffffffffffffffffffffffffffffffffffffffff1673ffffffffffffffffffffffffffffffffffffffff168152602001908152602001600020600082825461253c9190613ac3565b92505081905550816002600083815260200190815260200160002060006101000a81548173ffffffffffffffffffffffffffffffffffffffff021916908373ffffffffffffffffffffffffffffffffffffffff160217905550808273ffffffffffffffffffffffffffffffffffffffff16600073ffffffffffffffffffffffffffffffffffffffff167fddf252ad1be2c89b69c2b068fc378daa952ba7f163c4a11628f55a4df523b3ef60405160405180910390a46125fd600083836120c5565b5050565b6000808273ffffffffffffffffffffffffffffffffffffffff163b119050919050565b505050565b6008805490506009600083815260200190815260200160002081905550600881908060018154018082558091505060019003906000526020600020016000909190919091505550565b6000600161267f84610f16565b6126899190613a8f565b905060006007600084815260200190815260200160002054905081811461276e576000600660008673ffffffffffffffffffffffffffffffffffffffff1673ffffffffffffffffffffffffffffffffffffffff168152602001908152602001600020600084815260200190815260200160002054905080600660008773ffffffffffffffffffffffffffffffffffffffff1673ffffffffffffffffffffffffffffffffffffffff168152602001908152602001600020600084815260200190815260200160002081905550816007600083815260200190815260200160002081905550505b6007600084815260200190815260200160002060009055600660008573ffffffffffffffffffffffffffffffffffffffff1673ffffffffffffffffffffffffffffffffffffffff16815260200190815260200160002060008381526020019081526020016000206000905550505050565b600060016008805490506127f39190613a8f565b905060006009600084815260200190815260200160002054905060006008838154811061282357612822613550565b5b90600052602060002001549050806008838154811061284557612844613550565b5b90600052602060002001819055508160096000838152602001908152602001600020819055506009600085815260200190815260200160002060009055600880548061289457612893613f83565b5b6001900381819060005260206000200160009055905550505050565b60006128bb83610f16565b905081600660008573ffffffffffffffffffffffffffffffffffffffff1673ffffffffffffffffffffffffffffffffffffffff168152602001908152602001600020600083815260200190815260200160002081905550806007600084815260200190815260200160002081905550505050565b82805461293b906130db565b90600052602060002090601f01602090048101928261295d57600085556129a4565b82601f1061297657805160ff19168380011785556129a4565b828001600101855582156129a4579182015b828111156129a3578251825591602001919060010190612988565b5b5090506129b191906129b5565b5090565b5b808211156129ce5760008160009055506001016129b6565b5090565b6000604051905090565b600080fd5b600080fd5b60007fffffffff0000000000000000000000000000000000000000000000000000000082169050919050565b612a1b816129e6565b8114612a2657600080fd5b50565b600081359050612a3881612a12565b92915050565b600060208284031215612a5457612a536129dc565b5b6000612a6284828501612a29565b91505092915050565b60008115159050919050565b612a8081612a6b565b82525050565b6000602082019050612a9b6000830184612a77565b92915050565b600073ffffffffffffffffffffffffffffffffffffffff82169050919050565b6000612acc82612aa1565b9050919050565b612adc81612ac1565b8114612ae757600080fd5b50565b600081359050612af981612ad3565b92915050565b600060208284031215612b1557612b146129dc565b5b6000612b2384828501612aea565b91505092915050565b600081519050919050565b600082825260208201905092915050565b60005b83811015612b66578082015181840152602081019050612b4b565b83811115612b75576000848401525b50505050565b6000601f19601f8301169050919050565b6000612b9782612b2c565b612ba18185612b37565b9350612bb1818560208601612b48565b612bba81612b7b565b840191505092915050565b60006020820190508181036000830152612bdf8184612b8c565b905092915050565b6000819050919050565b612bfa81612be7565b8114612c0557600080fd5b50565b600081359050612c1781612bf1565b92915050565b600060208284031215612c3357612c326129dc565b5b6000612c4184828501612c08565b91505092915050565b612c5381612ac1565b82525050565b6000602082019050612c6e6000830184612c4a565b92915050565b60008060408385031215612c8b57612c8a6129dc565b5b6000612c9985828601612aea565b9250506020612caa85828601612c08565b9150509250929050565b612cbd81612be7565b82525050565b6000602082019050612cd86000830184612cb4565b92915050565b600080600060608486031215612cf757612cf66129dc565b5b6000612d0586828701612aea565b9350506020612d1686828701612aea565b9250506040612d2786828701612c08565b9150509250925092565b600080fd5b600080fd5b7f4e487b7100000000000000000000000000000000000000000000000000000000600052604160045260246000fd5b612d7382612b7b565b810181811067ffffffffffffffff82111715612d9257612d91612d3b565b5b80604052505050565b6000612da56129d2565b9050612db18282612d6a565b919050565b600067ffffffffffffffff821115612dd157612dd0612d3b565b5b612dda82612b7b565b9050602081019050919050565b82818337600083830152505050565b6000612e09612e0484612db6565b612d9b565b905082815260208101848484011115612e2557612e24612d36565b5b612e30848285612de7565b509392505050565b600082601f830112612e4d57612e4c612d31565b5b8135612e5d848260208601612df6565b91505092915050565b600060208284031215612e7c57612e7b6129dc565b5b600082013567ffffffffffffffff811115612e9a57612e996129e1565b5b612ea684828501612e38565b91505092915050565b612eb881612a6b565b8114612ec357600080fd5b50565b600081359050612ed581612eaf565b92915050565b60008060408385031215612ef257612ef16129dc565b5b6000612f0085828601612aea565b9250506020612f1185828601612ec6565b9150509250929050565b600067ffffffffffffffff821115612f3657612f35612d3b565b5b612f3f82612b7b565b9050602081019050919050565b6000612f5f612f5a84612f1b565b612d9b565b905082815260208101848484011115612f7b57612f7a612d36565b5b612f86848285612de7565b509392505050565b600082601f830112612fa357612fa2612d31565b5b8135612fb3848260208601612f4c565b91505092915050565b60008060008060808587031215612fd657612fd56129dc565b5b6000612fe487828801612aea565b9450506020612ff587828801612aea565b935050604061300687828801612c08565b925050606085013567ffffffffffffffff811115613027576130266129e1565b5b61303387828801612f8e565b91505092959194509250565b600060208284031215613055576130546129dc565b5b600061306384828501612ec6565b91505092915050565b60008060408385031215613083576130826129dc565b5b600061309185828601612aea565b92505060206130a285828601612aea565b9150509250929050565b7f4e487b7100000000000000000000000000000000000000000000000000000000600052602260045260246000fd5b600060028204905060018216806130f357607f821691505b602082108103613106576131056130ac565b5b50919050565b7f4552433732313a20617070726f76656420717565727920666f72206e6f6e657860008201527f697374656e7420746f6b656e0000000000000000000000000000000000000000602082015250565b6000613168602c83612b37565b91506131738261310c565b604082019050919050565b600060208201905081810360008301526131978161315b565b9050919050565b7f4552433732313a20617070726f76616c20746f2063757272656e74206f776e6560008201527f7200000000000000000000000000000000000000000000000000000000000000602082015250565b60006131fa602183612b37565b91506132058261319e565b604082019050919050565b60006020820190508181036000830152613229816131ed565b9050919050565b7f4552433732313a20617070726f76652063616c6c6572206973206e6f74206f7760008201527f6e6572206e6f7220617070726f76656420666f7220616c6c0000000000000000602082015250565b600061328c603883612b37565b915061329782613230565b604082019050919050565b600060208201905081810360008301526132bb8161327f565b9050919050565b7f4f776e61626c653a2063616c6c6572206973206e6f7420746865206f776e6572600082015250565b60006132f8602083612b37565b9150613303826132c2565b602082019050919050565b60006020820190508181036000830152613327816132eb565b9050919050565b7f4552433732313a207472616e736665722063616c6c6572206973206e6f74206f60008201527f776e6572206e6f7220617070726f766564000000000000000000000000000000602082015250565b600061338a603183612b37565b91506133958261332e565b604082019050919050565b600060208201905081810360008301526133b98161337d565b9050919050565b7f455243373231456e756d657261626c653a206f776e657220696e646578206f7560008201527f74206f6620626f756e6473000000000000000000000000000000000000000000602082015250565b600061341c602b83612b37565b9150613427826133c0565b604082019050919050565b6000602082019050818103600083015261344b8161340f565b9050919050565b7f5468652063616c6c6572206973206e6f74206175746800000000000000000000600082015250565b6000613488601683612b37565b915061349382613452565b602082019050919050565b600060208201905081810360008301526134b78161347b565b9050919050565b7f455243373231456e756d657261626c653a20676c6f62616c20696e646578206f60008201527f7574206f6620626f756e64730000000000000000000000000000000000000000602082015250565b600061351a602c83612b37565b9150613525826134be565b604082019050919050565b600060208201905081810360008301526135498161350d565b9050919050565b7f4e487b7100000000000000000000000000000000000000000000000000000000600052603260045260246000fd5b7f4552433732313a206f776e657220717565727920666f72206e6f6e657869737460008201527f656e7420746f6b656e0000000000000000000000000000000000000000000000602082015250565b60006135db602983612b37565b91506135e68261357f565b604082019050919050565b6000602082019050818103600083015261360a816135ce565b9050919050565b7f4552433732313a2062616c616e636520717565727920666f7220746865207a6560008201527f726f206164647265737300000000000000000000000000000000000000000000602082015250565b600061366d602a83612b37565b915061367882613611565b604082019050919050565b6000602082019050818103600083015261369c81613660565b9050919050565b7f4552433732314d657461646174613a2055524920717565727920666f72206e6f60008201527f6e6578697374656e7420746f6b656e0000000000000000000000000000000000602082015250565b60006136ff602f83612b37565b915061370a826136a3565b604082019050919050565b6000602082019050818103600083015261372e816136f2565b9050919050565b600081905092915050565b60008190508160005260206000209050919050565b60008154613762816130db565b61376c8186613735565b945060018216600081146137875760018114613798576137cb565b60ff198316865281860193506137cb565b6137a185613740565b60005b838110156137c3578154818901526001820191506020810190506137a4565b838801955050505b50505092915050565b60006137df82612b2c565b6137e98185613735565b93506137f9818560208601612b48565b80840191505092915050565b7f2e6a736f6e000000000000000000000000000000000000000000000000000000815250565b60006138378285613755565b915061384382846137d4565b915061384e82613805565b6005820191508190509392505050565b7f756e72657665616c65642e6a736f6e0000000000000000000000000000000000815250565b60006138908284613755565b915061389b8261385e565b600f8201915081905092915050565b7f4552433732313a206f70657261746f7220717565727920666f72206e6f6e657860008201527f697374656e7420746f6b656e0000000000000000000000000000000000000000602082015250565b6000613906602c83612b37565b9150613911826138aa565b604082019050919050565b60006020820190508181036000830152613935816138f9565b9050919050565b7f4552433732313a207472616e736665722066726f6d20696e636f72726563742060008201527f6f776e6572000000000000000000000000000000000000000000000000000000602082015250565b6000613998602583612b37565b91506139a38261393c565b604082019050919050565b600060208201905081810360008301526139c78161398b565b9050919050565b7f4552433732313a207472616e7366657220746f20746865207a65726f2061646460008201527f7265737300000000000000000000000000000000000000000000000000000000602082015250565b6000613a2a602483612b37565b9150613a35826139ce565b604082019050919050565b60006020820190508181036000830152613a5981613a1d565b9050919050565b7f4e487b7100000000000000000000000000000000000000000000000000000000600052601160045260246000fd5b6000613a9a82612be7565b9150613aa583612be7565b925082821015613ab857613ab7613a60565b5b828203905092915050565b6000613ace82612be7565b9150613ad983612be7565b9250827fffffffffffffffffffffffffffffffffffffffffffffffffffffffffffffffff03821115613b0e57613b0d613a60565b5b828201905092915050565b7f5061757361626c653a206e6f7420706175736564000000000000000000000000600082015250565b6000613b4f601483612b37565b9150613b5a82613b19565b602082019050919050565b60006020820190508181036000830152613b7e81613b42565b9050919050565b7f5061757361626c653a2070617573656400000000000000000000000000000000600082015250565b6000613bbb601083612b37565b9150613bc682613b85565b602082019050919050565b60006020820190508181036000830152613bea81613bae565b9050919050565b7f4552433732313a20617070726f766520746f2063616c6c657200000000000000600082015250565b6000613c27601983612b37565b9150613c3282613bf1565b602082019050919050565b60006020820190508181036000830152613c5681613c1a565b9050919050565b7f4552433732313a207472616e7366657220746f206e6f6e20455243373231526560008201527f63656976657220696d706c656d656e7465720000000000000000000000000000602082015250565b6000613cb9603283612b37565b9150613cc482613c5d565b604082019050919050565b60006020820190508181036000830152613ce881613cac565b9050919050565b6000613cfa82612be7565b91507fffffffffffffffffffffffffffffffffffffffffffffffffffffffffffffffff8203613d2c57613d2b613a60565b5b600182019050919050565b7f4e487b7100000000000000000000000000000000000000000000000000000000600052601260045260246000fd5b6000613d7182612be7565b9150613d7c83612be7565b925082613d8c57613d8b613d37565b5b828204905092915050565b6000613da282612be7565b9150613dad83612be7565b925082613dbd57613dbc613d37565b5b828206905092915050565b600081519050919050565b600082825260208201905092915050565b6000613def82613dc8565b613df98185613dd3565b9350613e09818560208601612b48565b613e1281612b7b565b840191505092915050565b6000608082019050613e326000830187612c4a565b613e3f6020830186612c4a565b613e4c6040830185612cb4565b8181036060830152613e5e8184613de4565b905095945050505050565b600081519050613e7881612a12565b92915050565b600060208284031215613e9457613e936129dc565b5b6000613ea284828501613e69565b91505092915050565b7f4552433732313a206d696e7420746f20746865207a65726f2061646472657373600082015250565b6000613ee1602083612b37565b9150613eec82613eab565b602082019050919050565b60006020820190508181036000830152613f1081613ed4565b9050919050565b7f4552433732313a20746f6b656e20616c7265616479206d696e74656400000000600082015250565b6000613f4d601c83612b37565b9150613f5882613f17565b602082019050919050565b60006020820190508181036000830152613f7c81613f40565b9050919050565b7f4e487b7100000000000000000000000000000000000000000000000000000000600052603160045260246000fdfea26469706673582212200d09b7783a8ee4f13d000d9ff088500615cf8de9a4ad15096738a3616ff598fb64736f6c634300080d0033",
  "immutableReferences": {},
  "source": "// SPDX-License-Identifier: MIT\n\npragma solidity ^0.8.13;\n\nimport \"@openzeppelin/contracts/token/ERC721/extensions/ERC721Enumerable.sol\";\nimport \"@openzeppelin/contracts/security/Pausable.sol\";\nimport \"@openzeppelin/contracts/utils/Strings.sol\";\nimport \"../ownable/Ownable.sol\";\n\ncontract MintSSSC is ERC721, ERC721Enumerable, Pausable, Ownable {\n  string private _baseTokenURI;\n  string private _notRevealedURI;\n  bool private _revealed;\n\n  constructor(\n    string memory name,\n    string memory symbol,\n    string memory baseTokenURI,\n    string memory notRevealedURI\n  ) ERC721(name, symbol) {\n    _baseTokenURI = baseTokenURI;\n    _notRevealedURI = notRevealedURI;\n    _revealed = false;\n  }\n\n  function setBaseURI(string memory baseTokenURI) external onlyOwner {\n    _baseTokenURI = baseTokenURI;\n  }\n\n  function getBaseURI() external view returns (string memory) {\n    return _baseTokenURI;\n  }\n\n  function _baseURI() internal view override returns (string memory) {\n    return _baseTokenURI;\n  }\n\n  function setNotRevealedURI(string memory newNotRevealedURI) external onlyOwner {\n    _notRevealedURI = newNotRevealedURI;\n  }\n\n  function getNotRevealedURI() external view returns (string memory) {\n    return _notRevealedURI;\n  }\n  \n  function setRevealed(bool state) external onlyOwner {\n    _revealed = state;\n  }\n\n  function tokenURI(uint256 tokenId)\n    public\n    view\n    override(ERC721)\n    returns (string memory)\n  {\n    require(\n      _exists(tokenId), \n      \"ERC721Metadata: URI query for nonexistent token\"\n    );\n\n    return (_revealed == false)\n      ? string.concat(_notRevealedURI, \"unrevealed.json\")\n      : string.concat(_baseTokenURI, Strings.toString(tokenId), \".json\");\n  }\n\n  function mint(address to, uint256 tokenId) external {\n    require(isOwner(msg.sender) || isOwner(to), \"The caller is not auth\");\n\n    _safeMint(to, tokenId);\n  }\n\n  function exists(uint256 tokenId) external view returns (bool) {\n    return _exists(tokenId);\n  }\n\n  function pause() external onlyOwner {\n    _pause();\n  }\n\n  function unpause() external onlyOwner {\n    _unpause();\n  }\n\n  function _beforeTokenTransfer(address from, address to, uint256 tokenId)\n    internal\n    whenNotPaused\n    override(ERC721, ERC721Enumerable)\n  {\n    super._beforeTokenTransfer(from, to, tokenId);   \n  }\n\n  function supportsInterface(bytes4 interfaceId)\n      public\n      view\n      override(ERC721, ERC721Enumerable)\n      returns (bool)\n  {\n      return super.supportsInterface(interfaceId);\n  }\n  \n\n}",
  "sourcePath": "/Users/harace/dev/sssc-contract/contracts/token/MintSSSC.sol",
  "compiler": {
    "name": "solc",
    "version": "0.8.13+commit.abaa5c0e.Emscripten.clang"
  },
  "schemaVersion": "3.4.7",
  "updatedAt": "2022-05-02T13:55:06.523Z",
  "devdoc": {
    "kind": "dev",
    "methods": {
      "approve(address,uint256)": {
        "details": "See {IERC721-approve}."
      },
      "balanceOf(address)": {
        "details": "See {IERC721-balanceOf}."
      },
      "getApproved(uint256)": {
        "details": "See {IERC721-getApproved}."
      },
      "isApprovedForAll(address,address)": {
        "details": "See {IERC721-isApprovedForAll}."
      },
      "name()": {
        "details": "See {IERC721Metadata-name}."
      },
      "ownerOf(uint256)": {
        "details": "See {IERC721-ownerOf}."
      },
      "paused()": {
        "details": "Returns true if the contract is paused, and false otherwise."
      },
      "safeTransferFrom(address,address,uint256)": {
        "details": "See {IERC721-safeTransferFrom}."
      },
      "safeTransferFrom(address,address,uint256,bytes)": {
        "details": "See {IERC721-safeTransferFrom}."
      },
      "setApprovalForAll(address,bool)": {
        "details": "See {IERC721-setApprovalForAll}."
      },
      "symbol()": {
        "details": "See {IERC721Metadata-symbol}."
      },
      "tokenByIndex(uint256)": {
        "details": "See {IERC721Enumerable-tokenByIndex}."
      },
      "tokenOfOwnerByIndex(address,uint256)": {
        "details": "See {IERC721Enumerable-tokenOfOwnerByIndex}."
      },
      "tokenURI(uint256)": {
        "details": "See {IERC721Metadata-tokenURI}."
      },
      "totalSupply()": {
        "details": "See {IERC721Enumerable-totalSupply}."
      },
      "transferFrom(address,address,uint256)": {
        "details": "See {IERC721-transferFrom}."
      }
    },
    "version": 1
  },
  "userdoc": {
    "kind": "user",
    "methods": {},
    "version": 1
  }
}