{
  "contractName": "PublicSaleSSSC",
  "abi": [
    {
      "inputs": [
        {
          "internalType": "address",
          "name": "mintSSSCAddress",
          "type": "address"
        }
      ],
      "stateMutability": "nonpayable",
      "type": "constructor"
    },
    {
      "anonymous": false,
      "inputs": [
        {
          "indexed": true,
          "internalType": "address",
          "name": "host",
          "type": "address"
        },
        {
          "indexed": true,
          "internalType": "address",
          "name": "guest",
          "type": "address"
        }
      ],
      "name": "OwnershipExtended",
      "type": "event"
    },
    {
      "anonymous": false,
      "inputs": [
        {
          "indexed": true,
          "internalType": "address",
          "name": "revokedOwner",
          "type": "address"
        }
      ],
      "name": "OwnershipRevoked",
      "type": "event"
    },
    {
      "anonymous": false,
      "inputs": [
        {
          "indexed": true,
          "internalType": "address",
          "name": "previousOwner",
          "type": "address"
        },
        {
          "indexed": true,
          "internalType": "address",
          "name": "newOwner",
          "type": "address"
        }
      ],
      "name": "OwnershipTransferred",
      "type": "event"
    },
    {
      "anonymous": false,
      "inputs": [
        {
          "indexed": true,
          "internalType": "address",
          "name": "owner",
          "type": "address"
        },
        {
          "indexed": false,
          "internalType": "uint256",
          "name": "tokenId",
          "type": "uint256"
        }
      ],
      "name": "PublicMinted",
      "type": "event"
    },
    {
      "anonymous": false,
      "inputs": [
        {
          "indexed": true,
          "internalType": "address",
          "name": "owner",
          "type": "address"
        },
        {
          "indexed": false,
          "internalType": "uint256",
          "name": "antibotInterval",
          "type": "uint256"
        },
        {
          "indexed": false,
          "internalType": "uint256",
          "name": "mintLimitPerBlock",
          "type": "uint256"
        },
        {
          "indexed": false,
          "internalType": "uint256",
          "name": "mintStartBlockNumber",
          "type": "uint256"
        },
        {
          "indexed": false,
          "internalType": "uint256",
          "name": "mintCount",
          "type": "uint256"
        },
        {
          "indexed": false,
          "internalType": "uint256",
          "name": "maxSaleAmount",
          "type": "uint256"
        },
        {
          "indexed": false,
          "internalType": "uint256",
          "name": "mintPrice",
          "type": "uint256"
        }
      ],
      "name": "PublicSaleSetup",
      "type": "event"
    },
    {
      "anonymous": false,
      "inputs": [
        {
          "indexed": true,
          "internalType": "address",
          "name": "owner",
          "type": "address"
        },
        {
          "indexed": false,
          "internalType": "bool",
          "name": "flag",
          "type": "bool"
        },
        {
          "indexed": false,
          "internalType": "bytes16",
          "name": "saleType",
          "type": "bytes16"
        }
      ],
      "name": "PublicSaleStarted",
      "type": "event"
    },
    {
      "anonymous": false,
      "inputs": [
        {
          "indexed": true,
          "internalType": "address",
          "name": "owner",
          "type": "address"
        },
        {
          "indexed": false,
          "internalType": "uint256",
          "name": "balance",
          "type": "uint256"
        }
      ],
      "name": "Withdrawn",
      "type": "event"
    },
    {
      "inputs": [
        {
          "internalType": "address",
          "name": "guest",
          "type": "address"
        }
      ],
      "name": "addOwner",
      "outputs": [],
      "stateMutability": "nonpayable",
      "type": "function"
    },
    {
      "inputs": [
        {
          "internalType": "address",
          "name": "owner",
          "type": "address"
        }
      ],
      "name": "isOwner",
      "outputs": [
        {
          "internalType": "bool",
          "name": "",
          "type": "bool"
        }
      ],
      "stateMutability": "view",
      "type": "function",
      "constant": true
    },
    {
      "inputs": [
        {
          "internalType": "address",
          "name": "",
          "type": "address"
        }
      ],
      "name": "owners",
      "outputs": [
        {
          "internalType": "bool",
          "name": "",
          "type": "bool"
        }
      ],
      "stateMutability": "view",
      "type": "function",
      "constant": true
    },
    {
      "inputs": [
        {
          "internalType": "address",
          "name": "owner",
          "type": "address"
        }
      ],
      "name": "removeOwner",
      "outputs": [],
      "stateMutability": "nonpayable",
      "type": "function"
    },
    {
      "inputs": [
        {
          "internalType": "address",
          "name": "newOwner",
          "type": "address"
        }
      ],
      "name": "transferOwnership",
      "outputs": [],
      "stateMutability": "nonpayable",
      "type": "function"
    },
    {
      "inputs": [
        {
          "internalType": "uint256",
          "name": "antibotInterval",
          "type": "uint256"
        },
        {
          "internalType": "uint256",
          "name": "mintLimitPerBlock",
          "type": "uint256"
        },
        {
          "internalType": "uint256",
          "name": "mintStartBlockNumber",
          "type": "uint256"
        },
        {
          "internalType": "uint256",
          "name": "mintCount",
          "type": "uint256"
        },
        {
          "internalType": "uint256",
          "name": "maxSaleAmount",
          "type": "uint256"
        },
        {
          "internalType": "uint256",
          "name": "mintPrice",
          "type": "uint256"
        }
      ],
      "name": "setupSale",
      "outputs": [],
      "stateMutability": "nonpayable",
      "type": "function"
    },
    {
      "inputs": [],
      "name": "mintingInformation",
      "outputs": [
        {
          "internalType": "uint256[6]",
          "name": "",
          "type": "uint256[6]"
        }
      ],
      "stateMutability": "view",
      "type": "function",
      "constant": true
    },
    {
      "inputs": [
        {
          "internalType": "bool",
          "name": "state",
          "type": "bool"
        }
      ],
      "name": "setPublicMintEnabled",
      "outputs": [],
      "stateMutability": "nonpayable",
      "type": "function"
    },
    {
      "inputs": [],
      "name": "getPublicMintEnabled",
      "outputs": [
        {
          "internalType": "bool",
          "name": "",
          "type": "bool"
        }
      ],
      "stateMutability": "view",
      "type": "function",
      "constant": true
    },
    {
      "inputs": [
        {
          "internalType": "uint256",
          "name": "requestedCount",
          "type": "uint256"
        }
      ],
      "name": "publicMint",
      "outputs": [],
      "stateMutability": "payable",
      "type": "function",
      "payable": true
    },
    {
      "inputs": [],
      "name": "withdraw",
      "outputs": [],
      "stateMutability": "nonpayable",
      "type": "function"
    }
  ],
  "bytecode": "0x60806040526000600860006101000a81548160ff0219169083151502179055503480156200002c57600080fd5b50604051620017b6380380620017b683398181016040528101906200005291906200015b565b60016000803373ffffffffffffffffffffffffffffffffffffffff1673ffffffffffffffffffffffffffffffffffffffff16815260200190815260200160002060006101000a81548160ff02191690831515021790555080600860016101000a81548173ffffffffffffffffffffffffffffffffffffffff021916908373ffffffffffffffffffffffffffffffffffffffff160217905550506200018d565b600080fd5b600073ffffffffffffffffffffffffffffffffffffffff82169050919050565b60006200012382620000f6565b9050919050565b620001358162000116565b81146200014157600080fd5b50565b60008151905062000155816200012a565b92915050565b600060208284031215620001745762000173620000f1565b5b6000620001848482850162000144565b91505092915050565b611619806200019d6000396000f3fe60806040526004361061009c5760003560e01c80632f54bf6e116100645780632f54bf6e146101795780633ccfd60b146101b65780637065cb48146101cd578063818668d7146101f657806390b63adb1461021f578063f2fde38b146102485761009c565b8063022914a7146100a15780630a656450146100de578063173825d9146101095780631dd8792b146101325780632db115441461015d575b600080fd5b3480156100ad57600080fd5b506100c860048036038101906100c39190610e0f565b610271565b6040516100d59190610e57565b60405180910390f35b3480156100ea57600080fd5b506100f3610291565b6040516101009190610e57565b60405180910390f35b34801561011557600080fd5b50610130600480360381019061012b9190610e0f565b6102a8565b005b34801561013e57600080fd5b5061014761040c565b6040516101549190610f27565b60405180910390f35b61017760048036038101906101729190610f6e565b610458565b005b34801561018557600080fd5b506101a0600480360381019061019b9190610e0f565b610794565b6040516101ad9190610e57565b60405180910390f35b3480156101c257600080fd5b506101cb6107e9565b005b3480156101d957600080fd5b506101f460048036038101906101ef9190610e0f565b6108cf565b005b34801561020257600080fd5b5061021d60048036038101906102189190610fc7565b610a12565b005b34801561022b57600080fd5b5061024660048036038101906102419190610ff4565b610b11565b005b34801561025457600080fd5b5061026f600480360381019061026a9190610e0f565b610bea565b005b60006020528060005260406000206000915054906101000a900460ff1681565b6000600860009054906101000a900460ff16905090565b6102b86102b3610d82565b610794565b6102f7576040517f08c379a00000000000000000000000000000000000000000000000000000000081526004016102ee906110de565b60405180910390fd5b600073ffffffffffffffffffffffffffffffffffffffff168173ffffffffffffffffffffffffffffffffffffffff160361033057600080fd5b8073ffffffffffffffffffffffffffffffffffffffff1661034f610d82565b73ffffffffffffffffffffffffffffffffffffffff160361036f57600080fd5b60008060008373ffffffffffffffffffffffffffffffffffffffff1673ffffffffffffffffffffffffffffffffffffffff16815260200190815260200160002060006101000a81548160ff0219169083151502179055508073ffffffffffffffffffffffffffffffffffffffff167f0d715ebedf3d01353f62c2245e0afc27d98f1bc0fb99512f42873fb9879f023960405160405180910390a250565b610414610d8a565b60006040518060c001604052806002548152602001600354815260200160045481526020016005548152602001600654815260200160075481525090508091505090565b600860009054906101000a900460ff166104a7576040517f08c379a000000000000000000000000000000000000000000000000000000000815260040161049e9061114a565b60405180910390fd5b43600254600160003373ffffffffffffffffffffffffffffffffffffffff1673ffffffffffffffffffffffffffffffffffffffff168152602001908152602001600020546104f59190611199565b10610535576040517f08c379a000000000000000000000000000000000000000000000000000000000815260040161052c9061123b565b60405180910390fd5b60008111801561054757506004548111155b610586576040517f08c379a000000000000000000000000000000000000000000000000000000000815260040161057d906112cd565b60405180910390fd5b8060075461059491906112ed565b34146105d5576040517f08c379a00000000000000000000000000000000000000000000000000000000081526004016105cc90611393565b60405180910390fd5b60016006546105e49190611199565b816003546105f29190611199565b1115610633576040517f08c379a000000000000000000000000000000000000000000000000000000000815260040161062a906113ff565b60405180910390fd5b60005b8181101561074c57600860019054906101000a900473ffffffffffffffffffffffffffffffffffffffff1673ffffffffffffffffffffffffffffffffffffffff166340c10f19336003546040518363ffffffff1660e01b815260040161069d92919061143d565b600060405180830381600087803b1580156106b757600080fd5b505af11580156106cb573d6000803e3d6000fd5b505050503373ffffffffffffffffffffffffffffffffffffffff167fab9980fb1d2916bce9017edd1be458e3f56d0899b3367cb3a8be97483fbe069b6003546040516107179190611466565b60405180910390a26001600360008282546107329190611199565b92505081905550808061074490611481565b915050610636565b5043600160003373ffffffffffffffffffffffffffffffffffffffff1673ffffffffffffffffffffffffffffffffffffffff1681526020019081526020016000208190555050565b60008060008373ffffffffffffffffffffffffffffffffffffffff1673ffffffffffffffffffffffffffffffffffffffff16815260200190815260200160002060009054906101000a900460ff169050919050565b6107f96107f4610d82565b610794565b610838576040517f08c379a000000000000000000000000000000000000000000000000000000000815260040161082f906110de565b60405180910390fd5b3373ffffffffffffffffffffffffffffffffffffffff166108fc479081150290604051600060405180830381858888f1935050505015801561087e573d6000803e3d6000fd5b503373ffffffffffffffffffffffffffffffffffffffff167f7084f5476618d8e60b11ef0d7d3f06914655adb8793e28ff7f018d4c76d505d5476040516108c59190611466565b60405180910390a2565b6108df6108da610d82565b610794565b61091e576040517f08c379a0000000000000000000000000000000000000000000000000000000008152600401610915906110de565b60405180910390fd5b600073ffffffffffffffffffffffffffffffffffffffff168173ffffffffffffffffffffffffffffffffffffffff160361095757600080fd5b60016000808373ffffffffffffffffffffffffffffffffffffffff1673ffffffffffffffffffffffffffffffffffffffff16815260200190815260200160002060006101000a81548160ff0219169083151502179055508073ffffffffffffffffffffffffffffffffffffffff166109cd610d82565b73ffffffffffffffffffffffffffffffffffffffff167f1d95aed2b82ae4cbdcccc214bb64bc277a20e8490d69a59d7f426c67fe46c61d60405160405180910390a350565b610a22610a1d610d82565b610794565b610a61576040517f08c379a0000000000000000000000000000000000000000000000000000000008152600401610a58906110de565b60405180910390fd5b600060035411610aa6576040517f08c379a0000000000000000000000000000000000000000000000000000000008152600401610a9d90611515565b60405180910390fd5b80600860006101000a81548160ff0219169083151502179055503373ffffffffffffffffffffffffffffffffffffffff167fe49d41b9b381bad3f4e3d572d87f78f2f94c477f60d0857702713e75bbcccc3382604051610b06919061155b565b60405180910390a250565b610b21610b1c610d82565b610794565b610b60576040517f08c379a0000000000000000000000000000000000000000000000000000000008152600401610b57906110de565b60405180910390fd5b8560028190555084600481905550836005819055508260038190555081600681905550806007819055503373ffffffffffffffffffffffffffffffffffffffff167f274de51b195e1fd82df2537566b6e4a14a26936b1b608e7cd8b7b5f5ff73ae1b878787878787604051610bda96959493929190611582565b60405180910390a2505050505050565b610bfa610bf5610d82565b610794565b610c39576040517f08c379a0000000000000000000000000000000000000000000000000000000008152600401610c30906110de565b60405180910390fd5b600073ffffffffffffffffffffffffffffffffffffffff168173ffffffffffffffffffffffffffffffffffffffff1603610c7257600080fd5b60016000808373ffffffffffffffffffffffffffffffffffffffff1673ffffffffffffffffffffffffffffffffffffffff16815260200190815260200160002060006101000a81548160ff021916908315150217905550600080610cd4610d82565b73ffffffffffffffffffffffffffffffffffffffff1673ffffffffffffffffffffffffffffffffffffffff16815260200190815260200160002060006101000a81549060ff02191690558073ffffffffffffffffffffffffffffffffffffffff16610d3d610d82565b73ffffffffffffffffffffffffffffffffffffffff167f8be0079c531659141344cd1fd0a4f28419497f9722a3daafe3b4186f6b6457e060405160405180910390a350565b600033905090565b6040518060c00160405280600690602082028036833780820191505090505090565b600080fd5b600073ffffffffffffffffffffffffffffffffffffffff82169050919050565b6000610ddc82610db1565b9050919050565b610dec81610dd1565b8114610df757600080fd5b50565b600081359050610e0981610de3565b92915050565b600060208284031215610e2557610e24610dac565b5b6000610e3384828501610dfa565b91505092915050565b60008115159050919050565b610e5181610e3c565b82525050565b6000602082019050610e6c6000830184610e48565b92915050565b600060069050919050565b600081905092915050565b6000819050919050565b6000819050919050565b610ea581610e92565b82525050565b6000610eb78383610e9c565b60208301905092915050565b6000602082019050919050565b610ed981610e72565b610ee38184610e7d565b9250610eee82610e88565b8060005b83811015610f1f578151610f068782610eab565b9650610f1183610ec3565b925050600181019050610ef2565b505050505050565b600060c082019050610f3c6000830184610ed0565b92915050565b610f4b81610e92565b8114610f5657600080fd5b50565b600081359050610f6881610f42565b92915050565b600060208284031215610f8457610f83610dac565b5b6000610f9284828501610f59565b91505092915050565b610fa481610e3c565b8114610faf57600080fd5b50565b600081359050610fc181610f9b565b92915050565b600060208284031215610fdd57610fdc610dac565b5b6000610feb84828501610fb2565b91505092915050565b60008060008060008060c0878903121561101157611010610dac565b5b600061101f89828a01610f59565b965050602061103089828a01610f59565b955050604061104189828a01610f59565b945050606061105289828a01610f59565b935050608061106389828a01610f59565b92505060a061107489828a01610f59565b9150509295509295509295565b600082825260208201905092915050565b7f4f776e61626c653a2063616c6c6572206973206e6f7420746865206f776e6572600082015250565b60006110c8602083611081565b91506110d382611092565b602082019050919050565b600060208201905081810360008301526110f7816110bb565b9050919050565b7f546865207075626c69632073616c65206973206e6f7420656e61626c65642100600082015250565b6000611134601f83611081565b915061113f826110fe565b602082019050919050565b6000602082019050818103600083015261116381611127565b9050919050565b7f4e487b7100000000000000000000000000000000000000000000000000000000600052601160045260246000fd5b60006111a482610e92565b91506111af83610e92565b9250827fffffffffffffffffffffffffffffffffffffffffffffffffffffffffffffffff038211156111e4576111e361116a565b5b828201905092915050565b7f426f74206973206e6f7420616c6c6f7765640000000000000000000000000000600082015250565b6000611225601283611081565b9150611230826111ef565b602082019050919050565b6000602082019050818103600083015261125481611218565b9050919050565b7f546f6f206d616e79207265717565737473206f72207a65726f2072657175657360008201527f7400000000000000000000000000000000000000000000000000000000000000602082015250565b60006112b7602183611081565b91506112c28261125b565b604082019050919050565b600060208201905081810360008301526112e6816112aa565b9050919050565b60006112f882610e92565b915061130383610e92565b9250817fffffffffffffffffffffffffffffffffffffffffffffffffffffffffffffffff048311821515161561133c5761133b61116a565b5b828202905092915050565b7f4e6f7420636f7272656374204554480000000000000000000000000000000000600082015250565b600061137d600f83611081565b915061138882611347565b602082019050919050565b600060208201905081810360008301526113ac81611370565b9050919050565b7f457863656564206d617820616d6f756e74000000000000000000000000000000600082015250565b60006113e9601183611081565b91506113f4826113b3565b602082019050919050565b60006020820190508181036000830152611418816113dc565b9050919050565b61142881610dd1565b82525050565b61143781610e92565b82525050565b6000604082019050611452600083018561141f565b61145f602083018461142e565b9392505050565b600060208201905061147b600083018461142e565b92915050565b600061148c82610e92565b91507fffffffffffffffffffffffffffffffffffffffffffffffffffffffffffffffff82036114be576114bd61116a565b5b600182019050919050565b7f5365747570204d696e74436f756e740000000000000000000000000000000000600082015250565b60006114ff600f83611081565b915061150a826114c9565b602082019050919050565b6000602082019050818103600083015261152e816114f2565b9050919050565b7f7075626c69630000000000000000000000000000000000000000000000000000815250565b60006040820190506115706000830184610e48565b61157c60208301611535565b92915050565b600060c082019050611597600083018961142e565b6115a4602083018861142e565b6115b1604083018761142e565b6115be606083018661142e565b6115cb608083018561142e565b6115d860a083018461142e565b97965050505050505056fea2646970667358221220c78fcfeec95c6f87a818063fc1fb9232a7771428413999e73af88b26f6dd118e64736f6c634300080d0033",
  "immutableReferences": {},
  "source": "// SPDX-License-Identifier: MIT\n\npragma solidity ^0.8.13;\n\nimport \"./ISSSC.sol\";\nimport \"../ownable/Ownable.sol\";\nimport \"@openzeppelin/contracts/utils/cryptography/MerkleProof.sol\";\n\ncontract PublicSaleSSSC is Ownable {  \n  // To prevent bot attack, we record the last contract call block number.\n  mapping (address => uint256) private _lastCallBlockNumber; \n\n  uint256 private _antibotInterval;\n  uint256 private _mintCount;                   // If someone burns NFT in the middle of minting, the tokenId will go wrong, so use the index instead of totalSupply().\n  uint256 private _mintLimitPerBlock;           // Maximum purchase nft per person per block\n  uint256 private _mintStartBlockNumber;        // In blockchain, blocknumber is the standard of time.\n  uint256 private _maxSaleAmount;               // Maximum purchase volume of normal sale.\n  uint256 private _mintPrice;                   // 1ETH = 1000000000000000000\n\n  bool private _publicMintEnabled = false;\n\n  ISSSC private _sssc;\n\n  constructor (address mintSSSCAddress) {\n    _sssc = ISSSC(mintSSSCAddress);\n  }\n\n  event PublicSaleSetup(\n    address indexed owner,\n    uint256 antibotInterval, \n    uint256 mintLimitPerBlock,\n    uint256 mintStartBlockNumber,\n    uint256 mintCount,\n    uint256 maxSaleAmount,\n    uint256 mintPrice\n  );\n  event PublicSaleStarted(address indexed owner, bool flag, bytes16 saleType);\n  event PublicMinted(address indexed owner, uint256 tokenId);\n  event Withdrawn(address indexed owner, uint256 balance);\n\n  function setupSale(\n    uint256 antibotInterval, \n    uint256 mintLimitPerBlock,\n    uint256 mintStartBlockNumber,\n    uint256 mintCount,\n    uint256 maxSaleAmount,\n    uint256 mintPrice\n  ) external onlyOwner{\n    _antibotInterval = antibotInterval;\n    _mintLimitPerBlock = mintLimitPerBlock;\n    _mintStartBlockNumber = mintStartBlockNumber;\n    _mintCount = mintCount;\n    _maxSaleAmount = maxSaleAmount;\n    _mintPrice = mintPrice;\n\n    emit PublicSaleSetup(\n      msg.sender, \n      antibotInterval, \n      mintLimitPerBlock, \n      mintStartBlockNumber, \n      mintCount, \n      maxSaleAmount, \n      mintPrice\n    );\n  }\n\n  function mintingInformation() external view returns (uint256[6] memory){\n    uint256[6] memory info =\n      [_antibotInterval, _mintCount, _mintLimitPerBlock,\n        _mintStartBlockNumber, _maxSaleAmount, _mintPrice];\n    return info;\n  }\n\n  function setPublicMintEnabled(bool state) external onlyOwner {\n    require(_mintCount > 0, \"Setup MintCount\");\n    // require(_mintPrice == 100, \"\");\n\n    _publicMintEnabled = state;\n\n    emit PublicSaleStarted(msg.sender, state, \"public\");\n  }\n\n  function getPublicMintEnabled() external view returns (bool) {\n    return _publicMintEnabled;\n  }\n\n  function publicMint(uint256 requestedCount) external payable {\n    require(_publicMintEnabled, \"The public sale is not enabled!\");\n    // require(block.number >= _mintStartBlockNumber, \"Not yet started\");\n    require(_lastCallBlockNumber[msg.sender] + _antibotInterval < block.number, \"Bot is not allowed\");\n    require(requestedCount > 0 && requestedCount <= _mintLimitPerBlock, \"Too many requests or zero request\");\n    require(msg.value == _mintPrice * requestedCount, \"Not correct ETH\");\n    require(_mintCount + requestedCount <= _maxSaleAmount + 1, \"Exceed max amount\");\n    \n    for(uint256 i = 0; i < requestedCount; i++) {\n      _sssc.mint(msg.sender, _mintCount);\n      emit PublicMinted(msg.sender, _mintCount);\n      _mintCount += 1;\n    }\n    \n    _lastCallBlockNumber[msg.sender] = block.number;\n  }\n\n  function withdraw() external onlyOwner {\n    payable(msg.sender).transfer(address(this).balance);\n\n    emit Withdrawn(msg.sender, address(this).balance);\n  }\n}",
  "sourcePath": "/Users/harace/dev/sssc-contract/contracts/token/PublicSaleSSSC.sol",
  "compiler": {
    "name": "solc",
    "version": "0.8.13+commit.abaa5c0e.Emscripten.clang"
  },
  "schemaVersion": "3.4.7",
  "updatedAt": "2022-05-06T12:41:17.065Z",
  "networkType": "ethereum",
  "devdoc": {
    "kind": "dev",
    "methods": {},
    "version": 1
  },
  "userdoc": {
    "kind": "user",
    "methods": {},
    "version": 1
  }
}