{
  "contractName": "SaleSSSC",
  "abi": [
    {
      "inputs": [
        {
          "internalType": "address",
          "name": "mintSSSCAddress",
          "type": "address"
        }
      ],
      "stateMutability": "nonpayable",
      "type": "constructor"
    },
    {
      "anonymous": false,
      "inputs": [
        {
          "indexed": true,
          "internalType": "address",
          "name": "host",
          "type": "address"
        },
        {
          "indexed": true,
          "internalType": "address",
          "name": "guest",
          "type": "address"
        }
      ],
      "name": "OwnershipExtended",
      "type": "event"
    },
    {
      "anonymous": false,
      "inputs": [
        {
          "indexed": true,
          "internalType": "address",
          "name": "revokedOwner",
          "type": "address"
        }
      ],
      "name": "OwnershipRevoked",
      "type": "event"
    },
    {
      "anonymous": false,
      "inputs": [
        {
          "indexed": true,
          "internalType": "address",
          "name": "previousOwner",
          "type": "address"
        },
        {
          "indexed": true,
          "internalType": "address",
          "name": "newOwner",
          "type": "address"
        }
      ],
      "name": "OwnershipTransferred",
      "type": "event"
    },
    {
      "inputs": [
        {
          "internalType": "address",
          "name": "guest",
          "type": "address"
        }
      ],
      "name": "addOwner",
      "outputs": [],
      "stateMutability": "nonpayable",
      "type": "function"
    },
    {
      "inputs": [
        {
          "internalType": "address",
          "name": "owner",
          "type": "address"
        }
      ],
      "name": "isOwner",
      "outputs": [
        {
          "internalType": "bool",
          "name": "",
          "type": "bool"
        }
      ],
      "stateMutability": "view",
      "type": "function"
    },
    {
      "inputs": [
        {
          "internalType": "address",
          "name": "",
          "type": "address"
        }
      ],
      "name": "owners",
      "outputs": [
        {
          "internalType": "bool",
          "name": "",
          "type": "bool"
        }
      ],
      "stateMutability": "view",
      "type": "function"
    },
    {
      "inputs": [
        {
          "internalType": "address",
          "name": "owner",
          "type": "address"
        }
      ],
      "name": "removeOwner",
      "outputs": [],
      "stateMutability": "nonpayable",
      "type": "function"
    },
    {
      "inputs": [
        {
          "internalType": "address",
          "name": "newOwner",
          "type": "address"
        }
      ],
      "name": "transferOwnership",
      "outputs": [],
      "stateMutability": "nonpayable",
      "type": "function"
    },
    {
      "inputs": [
        {
          "internalType": "uint256",
          "name": "newAntibotInterval",
          "type": "uint256"
        },
        {
          "internalType": "uint256",
          "name": "newMintLimitPerBlock",
          "type": "uint256"
        },
        {
          "internalType": "uint256",
          "name": "newMintLimitPerSale",
          "type": "uint256"
        },
        {
          "internalType": "uint256",
          "name": "newMintStartBlockNumber",
          "type": "uint256"
        },
        {
          "internalType": "uint256",
          "name": "newMintIndexForSale",
          "type": "uint256"
        },
        {
          "internalType": "uint256",
          "name": "newMaxSaleAmount",
          "type": "uint256"
        },
        {
          "internalType": "uint256",
          "name": "newMintPrice",
          "type": "uint256"
        }
      ],
      "name": "setupSale",
      "outputs": [],
      "stateMutability": "nonpayable",
      "type": "function"
    },
    {
      "inputs": [],
      "name": "mintingInformation",
      "outputs": [
        {
          "internalType": "uint256[7]",
          "name": "",
          "type": "uint256[7]"
        }
      ],
      "stateMutability": "view",
      "type": "function"
    },
    {
      "inputs": [
        {
          "internalType": "bool",
          "name": "state",
          "type": "bool"
        }
      ],
      "name": "setPublicMintEnabled",
      "outputs": [],
      "stateMutability": "nonpayable",
      "type": "function"
    },
    {
      "inputs": [
        {
          "internalType": "bool",
          "name": "state",
          "type": "bool"
        }
      ],
      "name": "setWhitelistMintEnabled",
      "outputs": [],
      "stateMutability": "nonpayable",
      "type": "function"
    },
    {
      "inputs": [
        {
          "internalType": "uint256",
          "name": "requestedCount",
          "type": "uint256"
        }
      ],
      "name": "publicMint",
      "outputs": [],
      "stateMutability": "payable",
      "type": "function"
    },
    {
      "inputs": [
        {
          "internalType": "uint256",
          "name": "requestedCount",
          "type": "uint256"
        },
        {
          "internalType": "bytes32[]",
          "name": "merkleProof",
          "type": "bytes32[]"
        }
      ],
      "name": "whitelistMint",
      "outputs": [],
      "stateMutability": "payable",
      "type": "function"
    },
    {
      "inputs": [
        {
          "internalType": "address",
          "name": "user",
          "type": "address"
        },
        {
          "internalType": "uint256",
          "name": "requestedCount",
          "type": "uint256"
        }
      ],
      "name": "airDropMint",
      "outputs": [],
      "stateMutability": "nonpayable",
      "type": "function"
    },
    {
      "inputs": [],
      "name": "withdraw",
      "outputs": [],
      "stateMutability": "nonpayable",
      "type": "function"
    }
  ],
  "bytecode": "0x60806040526000600a60006101000a81548160ff0219169083151502179055506000600a60016101000a81548160ff0219169083151502179055503480156200004757600080fd5b50604051620021c2380380620021c283398181016040528101906200006d91906200017e565b60016000803373ffffffffffffffffffffffffffffffffffffffff1673ffffffffffffffffffffffffffffffffffffffff16815260200190815260200160002060006101000a81548160ff021916908315150217905550600160048190555080600c60006101000a81548173ffffffffffffffffffffffffffffffffffffffff021916908373ffffffffffffffffffffffffffffffffffffffff16021790555050620001b0565b600080fd5b600073ffffffffffffffffffffffffffffffffffffffff82169050919050565b6000620001468262000119565b9050919050565b620001588162000139565b81146200016457600080fd5b50565b60008151905062000178816200014d565b92915050565b60006020828403121562000197576200019662000114565b5b6000620001a78482850162000167565b91505092915050565b61200280620001c06000396000f3fe6080604052600436106100c25760003560e01c80637065cb481161007f578063a386756111610059578063a386756114610243578063b767a0981461026c578063d2cab05614610295578063f2fde38b146102b1576100c2565b80637065cb48146101c857806375a1ed08146101f1578063818668d71461021a576100c2565b8063022914a7146100c7578063173825d9146101045780631dd8792b1461012d5780632db11544146101585780632f54bf6e146101745780633ccfd60b146101b1575b600080fd5b3480156100d357600080fd5b506100ee60048036038101906100e99190611476565b6102da565b6040516100fb91906114be565b60405180910390f35b34801561011057600080fd5b5061012b60048036038101906101269190611476565b6102fa565b005b34801561013957600080fd5b5061014261045e565b60405161014f919061158e565b60405180910390f35b610172600480360381019061016d91906115d5565b6104b2565b005b34801561018057600080fd5b5061019b60048036038101906101969190611476565b6108c2565b6040516101a891906114be565b60405180910390f35b3480156101bd57600080fd5b506101c6610917565b005b3480156101d457600080fd5b506101ef60048036038101906101ea9190611476565b6109af565b005b3480156101fd57600080fd5b5061021860048036038101906102139190611602565b610af2565b005b34801561022657600080fd5b50610241600480360381019061023c919061166e565b610c52565b005b34801561024f57600080fd5b5061026a6004803603810190610265919061169b565b610cbe565b005b34801561027857600080fd5b50610293600480360381019061028e919061166e565b610d47565b005b6102af60048036038101906102aa91906117a2565b610db3565b005b3480156102bd57600080fd5b506102d860048036038101906102d39190611476565b6111a9565b005b60006020528060005260406000206000915054906101000a900460ff1681565b61030a610305611341565b6108c2565b610349576040517f08c379a00000000000000000000000000000000000000000000000000000000081526004016103409061185f565b60405180910390fd5b600073ffffffffffffffffffffffffffffffffffffffff168173ffffffffffffffffffffffffffffffffffffffff160361038257600080fd5b8073ffffffffffffffffffffffffffffffffffffffff166103a1611341565b73ffffffffffffffffffffffffffffffffffffffff16036103c157600080fd5b60008060008373ffffffffffffffffffffffffffffffffffffffff1673ffffffffffffffffffffffffffffffffffffffff16815260200190815260200160002060006101000a81548160ff0219169083151502179055508073ffffffffffffffffffffffffffffffffffffffff167f0d715ebedf3d01353f62c2245e0afc27d98f1bc0fb99512f42873fb9879f023960405160405180910390a250565b6104666113ec565b60006040518060e0016040528060035481526020016004548152602001600554815260200160065481526020016007548152602001600854815260200160095481525090508091505090565b600a60009054906101000a900460ff16610501576040517f08c379a00000000000000000000000000000000000000000000000000000000081526004016104f8906118cb565b60405180910390fd5b600754431015610546576040517f08c379a000000000000000000000000000000000000000000000000000000000815260040161053d90611937565b60405180910390fd5b43600354600160003373ffffffffffffffffffffffffffffffffffffffff1673ffffffffffffffffffffffffffffffffffffffff168152602001908152602001600020546105949190611986565b106105d4576040517f08c379a00000000000000000000000000000000000000000000000000000000081526004016105cb90611a28565b60405180910390fd5b6000811180156105e657506005548111155b610625576040517f08c379a000000000000000000000000000000000000000000000000000000000815260040161061c90611aba565b60405180910390fd5b806009546106339190611ada565b3414610674576040517f08c379a000000000000000000000000000000000000000000000000000000000815260040161066b90611b80565b60405180910390fd5b600854816004546106859190611986565b11156106c6576040517f08c379a00000000000000000000000000000000000000000000000000000000081526004016106bd90611bec565b60405180910390fd5b60065481600c60009054906101000a900473ffffffffffffffffffffffffffffffffffffffff1673ffffffffffffffffffffffffffffffffffffffff166370a08231336040518263ffffffff1660e01b81526004016107259190611c1b565b602060405180830381865afa158015610742573d6000803e3d6000fd5b505050506040513d601f19601f820116820180604052508101906107669190611c4b565b6107709190611986565b11156107b1576040517f08c379a00000000000000000000000000000000000000000000000000000000081526004016107a890611cc4565b60405180910390fd5b60005b8181101561087a57600c60009054906101000a900473ffffffffffffffffffffffffffffffffffffffff1673ffffffffffffffffffffffffffffffffffffffff166340c10f19336004546040518363ffffffff1660e01b815260040161081b929190611cf3565b600060405180830381600087803b15801561083557600080fd5b505af1158015610849573d6000803e3d6000fd5b505050506001600460008282546108609190611986565b92505081905550808061087290611d1c565b9150506107b4565b5043600160003373ffffffffffffffffffffffffffffffffffffffff1673ffffffffffffffffffffffffffffffffffffffff1681526020019081526020016000208190555050565b60008060008373ffffffffffffffffffffffffffffffffffffffff1673ffffffffffffffffffffffffffffffffffffffff16815260200190815260200160002060009054906101000a900460ff169050919050565b610927610922611341565b6108c2565b610966576040517f08c379a000000000000000000000000000000000000000000000000000000000815260040161095d9061185f565b60405180910390fd5b3373ffffffffffffffffffffffffffffffffffffffff166108fc479081150290604051600060405180830381858888f193505050501580156109ac573d6000803e3d6000fd5b50565b6109bf6109ba611341565b6108c2565b6109fe576040517f08c379a00000000000000000000000000000000000000000000000000000000081526004016109f59061185f565b60405180910390fd5b600073ffffffffffffffffffffffffffffffffffffffff168173ffffffffffffffffffffffffffffffffffffffff1603610a3757600080fd5b60016000808373ffffffffffffffffffffffffffffffffffffffff1673ffffffffffffffffffffffffffffffffffffffff16815260200190815260200160002060006101000a81548160ff0219169083151502179055508073ffffffffffffffffffffffffffffffffffffffff16610aad611341565b73ffffffffffffffffffffffffffffffffffffffff167f1d95aed2b82ae4cbdcccc214bb64bc277a20e8490d69a59d7f426c67fe46c61d60405160405180910390a350565b610b02610afd611341565b6108c2565b610b41576040517f08c379a0000000000000000000000000000000000000000000000000000000008152600401610b389061185f565b60405180910390fd5b60008111610b84576040517f08c379a0000000000000000000000000000000000000000000000000000000008152600401610b7b90611db0565b60405180910390fd5b60005b81811015610c4d57600c60009054906101000a900473ffffffffffffffffffffffffffffffffffffffff1673ffffffffffffffffffffffffffffffffffffffff166340c10f19846004546040518363ffffffff1660e01b8152600401610bee929190611cf3565b600060405180830381600087803b158015610c0857600080fd5b505af1158015610c1c573d6000803e3d6000fd5b50505050600160046000828254610c339190611986565b925050819055508080610c4590611d1c565b915050610b87565b505050565b610c62610c5d611341565b6108c2565b610ca1576040517f08c379a0000000000000000000000000000000000000000000000000000000008152600401610c989061185f565b60405180910390fd5b80600a60006101000a81548160ff02191690831515021790555050565b610cce610cc9611341565b6108c2565b610d0d576040517f08c379a0000000000000000000000000000000000000000000000000000000008152600401610d049061185f565b60405180910390fd5b8660038190555085600581905550846006819055508360078190555082600481905550816008819055508060098190555050505050505050565b610d57610d52611341565b6108c2565b610d96576040517f08c379a0000000000000000000000000000000000000000000000000000000008152600401610d8d9061185f565b60405180910390fd5b80600a60016101000a81548160ff02191690831515021790555050565b600a60019054906101000a900460ff16610e02576040517f08c379a0000000000000000000000000000000000000000000000000000000008152600401610df990611e42565b60405180910390fd5b60065483600c60009054906101000a900473ffffffffffffffffffffffffffffffffffffffff1673ffffffffffffffffffffffffffffffffffffffff166370a08231336040518263ffffffff1660e01b8152600401610e619190611c1b565b602060405180830381865afa158015610e7e573d6000803e3d6000fd5b505050506040513d601f19601f82011682018060405250810190610ea29190611c4b565b610eac9190611986565b1115610eed576040517f08c379a0000000000000000000000000000000000000000000000000000000008152600401610ee490611cc4565b60405180910390fd5b82600954610efb9190611ada565b3414610f3c576040517f08c379a0000000000000000000000000000000000000000000000000000000008152600401610f3390611b80565b60405180910390fd5b600260003373ffffffffffffffffffffffffffffffffffffffff1673ffffffffffffffffffffffffffffffffffffffff16815260200190815260200160002060009054906101000a900460ff1615610fc9576040517f08c379a0000000000000000000000000000000000000000000000000000000008152600401610fc090611eae565b60405180910390fd5b600033604051602001610fdc9190611f16565b604051602081830303815290604052805190602001209050611042838380806020026020016040519081016040528093929190818152602001838360200280828437600081840152601f19601f82011690508083019250505050505050600b5483611349565b611081576040517f08c379a000000000000000000000000000000000000000000000000000000000815260040161107890611f7d565b60405180910390fd5b60005b8481101561114a57600c60009054906101000a900473ffffffffffffffffffffffffffffffffffffffff1673ffffffffffffffffffffffffffffffffffffffff166340c10f19336004546040518363ffffffff1660e01b81526004016110eb929190611cf3565b600060405180830381600087803b15801561110557600080fd5b505af1158015611119573d6000803e3d6000fd5b505050506001600460008282546111309190611986565b92505081905550808061114290611d1c565b915050611084565b506001600260003373ffffffffffffffffffffffffffffffffffffffff1673ffffffffffffffffffffffffffffffffffffffff16815260200190815260200160002060006101000a81548160ff02191690831515021790555050505050565b6111b96111b4611341565b6108c2565b6111f8576040517f08c379a00000000000000000000000000000000000000000000000000000000081526004016111ef9061185f565b60405180910390fd5b600073ffffffffffffffffffffffffffffffffffffffff168173ffffffffffffffffffffffffffffffffffffffff160361123157600080fd5b60016000808373ffffffffffffffffffffffffffffffffffffffff1673ffffffffffffffffffffffffffffffffffffffff16815260200190815260200160002060006101000a81548160ff021916908315150217905550600080611293611341565b73ffffffffffffffffffffffffffffffffffffffff1673ffffffffffffffffffffffffffffffffffffffff16815260200190815260200160002060006101000a81549060ff02191690558073ffffffffffffffffffffffffffffffffffffffff166112fc611341565b73ffffffffffffffffffffffffffffffffffffffff167f8be0079c531659141344cd1fd0a4f28419497f9722a3daafe3b4186f6b6457e060405160405180910390a350565b600033905090565b6000826113568584611360565b1490509392505050565b60008082905060005b84518110156113ca57600085828151811061138757611386611f9d565b5b602002602001015190508083116113a9576113a283826113d5565b92506113b6565b6113b381846113d5565b92505b5080806113c290611d1c565b915050611369565b508091505092915050565b600082600052816020526040600020905092915050565b6040518060e00160405280600790602082028036833780820191505090505090565b600080fd5b600080fd5b600073ffffffffffffffffffffffffffffffffffffffff82169050919050565b600061144382611418565b9050919050565b61145381611438565b811461145e57600080fd5b50565b6000813590506114708161144a565b92915050565b60006020828403121561148c5761148b61140e565b5b600061149a84828501611461565b91505092915050565b60008115159050919050565b6114b8816114a3565b82525050565b60006020820190506114d360008301846114af565b92915050565b600060079050919050565b600081905092915050565b6000819050919050565b6000819050919050565b61150c816114f9565b82525050565b600061151e8383611503565b60208301905092915050565b6000602082019050919050565b611540816114d9565b61154a81846114e4565b9250611555826114ef565b8060005b8381101561158657815161156d8782611512565b96506115788361152a565b925050600181019050611559565b505050505050565b600060e0820190506115a36000830184611537565b92915050565b6115b2816114f9565b81146115bd57600080fd5b50565b6000813590506115cf816115a9565b92915050565b6000602082840312156115eb576115ea61140e565b5b60006115f9848285016115c0565b91505092915050565b600080604083850312156116195761161861140e565b5b600061162785828601611461565b9250506020611638858286016115c0565b9150509250929050565b61164b816114a3565b811461165657600080fd5b50565b60008135905061166881611642565b92915050565b6000602082840312156116845761168361140e565b5b600061169284828501611659565b91505092915050565b600080600080600080600060e0888a0312156116ba576116b961140e565b5b60006116c88a828b016115c0565b97505060206116d98a828b016115c0565b96505060406116ea8a828b016115c0565b95505060606116fb8a828b016115c0565b945050608061170c8a828b016115c0565b93505060a061171d8a828b016115c0565b92505060c061172e8a828b016115c0565b91505092959891949750929550565b600080fd5b600080fd5b600080fd5b60008083601f8401126117625761176161173d565b5b8235905067ffffffffffffffff81111561177f5761177e611742565b5b60208301915083602082028301111561179b5761179a611747565b5b9250929050565b6000806000604084860312156117bb576117ba61140e565b5b60006117c9868287016115c0565b935050602084013567ffffffffffffffff8111156117ea576117e9611413565b5b6117f68682870161174c565b92509250509250925092565b600082825260208201905092915050565b7f4f776e61626c653a2063616c6c6572206973206e6f7420746865206f776e6572600082015250565b6000611849602083611802565b915061185482611813565b602082019050919050565b600060208201905081810360008301526118788161183c565b9050919050565b7f546865207075626c69632073616c65206973206e6f7420656e61626c65642100600082015250565b60006118b5601f83611802565b91506118c08261187f565b602082019050919050565b600060208201905081810360008301526118e4816118a8565b9050919050565b7f4e6f742079657420737461727465640000000000000000000000000000000000600082015250565b6000611921600f83611802565b915061192c826118eb565b602082019050919050565b6000602082019050818103600083015261195081611914565b9050919050565b7f4e487b7100000000000000000000000000000000000000000000000000000000600052601160045260246000fd5b6000611991826114f9565b915061199c836114f9565b9250827fffffffffffffffffffffffffffffffffffffffffffffffffffffffffffffffff038211156119d1576119d0611957565b5b828201905092915050565b7f426f74206973206e6f7420616c6c6f7765640000000000000000000000000000600082015250565b6000611a12601283611802565b9150611a1d826119dc565b602082019050919050565b60006020820190508181036000830152611a4181611a05565b9050919050565b7f546f6f206d616e79207265717565737473206f72207a65726f2072657175657360008201527f7400000000000000000000000000000000000000000000000000000000000000602082015250565b6000611aa4602183611802565b9150611aaf82611a48565b604082019050919050565b60006020820190508181036000830152611ad381611a97565b9050919050565b6000611ae5826114f9565b9150611af0836114f9565b9250817fffffffffffffffffffffffffffffffffffffffffffffffffffffffffffffffff0483118215151615611b2957611b28611957565b5b828202905092915050565b7f4e6f7420636f7272656374204554480000000000000000000000000000000000600082015250565b6000611b6a600f83611802565b9150611b7582611b34565b602082019050919050565b60006020820190508181036000830152611b9981611b5d565b9050919050565b7f457863656564206d617820616d6f756e74000000000000000000000000000000600082015250565b6000611bd6601183611802565b9150611be182611ba0565b602082019050919050565b60006020820190508181036000830152611c0581611bc9565b9050919050565b611c1581611438565b82525050565b6000602082019050611c306000830184611c0c565b92915050565b600081519050611c45816115a9565b92915050565b600060208284031215611c6157611c6061140e565b5b6000611c6f84828501611c36565b91505092915050565b7f457863656564206d617820616d6f756e742070657220706572736f6e00000000600082015250565b6000611cae601c83611802565b9150611cb982611c78565b602082019050919050565b60006020820190508181036000830152611cdd81611ca1565b9050919050565b611ced816114f9565b82525050565b6000604082019050611d086000830185611c0c565b611d156020830184611ce4565b9392505050565b6000611d27826114f9565b91507fffffffffffffffffffffffffffffffffffffffffffffffffffffffffffffffff8203611d5957611d58611957565b5b600182019050919050565b7f7a65726f20726571756573740000000000000000000000000000000000000000600082015250565b6000611d9a600c83611802565b9150611da582611d64565b602082019050919050565b60006020820190508181036000830152611dc981611d8d565b9050919050565b7f5468652077686974656c6973742073616c65206973206e6f7420656e61626c6560008201527f6421000000000000000000000000000000000000000000000000000000000000602082015250565b6000611e2c602283611802565b9150611e3782611dd0565b604082019050919050565b60006020820190508181036000830152611e5b81611e1f565b9050919050565b7f4164647265737320616c726561647920636c61696d6564210000000000000000600082015250565b6000611e98601883611802565b9150611ea382611e62565b602082019050919050565b60006020820190508181036000830152611ec781611e8b565b9050919050565b60008160601b9050919050565b6000611ee682611ece565b9050919050565b6000611ef882611edb565b9050919050565b611f10611f0b82611438565b611eed565b82525050565b6000611f228284611eff565b60148201915081905092915050565b7f496e76616c69642070726f6f6621000000000000000000000000000000000000600082015250565b6000611f67600e83611802565b9150611f7282611f31565b602082019050919050565b60006020820190508181036000830152611f9681611f5a565b9050919050565b7f4e487b7100000000000000000000000000000000000000000000000000000000600052603260045260246000fdfea26469706673582212205ba961587ce1e0d29a130f87559486c2ae216ca7502b1eda4e6684a964fa446264736f6c634300080d0033",
  "immutableReferences": {},
  "source": "// SPDX-License-Identifier: MIT\n\npragma solidity ^0.8.13;\n\nimport \"./MintSSSC.sol\";\nimport \"@openzeppelin/contracts/utils/cryptography/MerkleProof.sol\";\n\ncontract SaleSSSC is Ownable {  \n  // To prevent bot attack, we record the last contract call block number.\n  mapping (address => uint256) private _lastCallBlockNumber; \n  mapping(address => bool) private _whitelistClaimed;\n\n  uint256 private _antibotInterval;\n  uint256 private _mintIndexForSale;            // If someone burns NFT in the middle of minting, the tokenId will go wrong, so use the index instead of totalSupply().\n  uint256 private _mintLimitPerBlock;           // Maximum purchase nft per person per block\n  uint256 private _mintLimitPerSale;            // Maximum purchase nft per person per sale\n  uint256 private _mintStartBlockNumber;        // In blockchain, blocknumber is the standard of time.\n  uint256 private _maxSaleAmount;               // Maximum purchase volume of normal sale.\n  uint256 private _mintPrice;                   // 1ETH = 1000000000000000000\n\n  bool private _publicMintEnabled = false;\n  bool private _whitelistMintEnabled = false;\n\n  bytes32 private _merkleRoot;\n  \n  MintSSSC private _mintSSSC;\n\n  constructor (address mintSSSCAddress) {\n    //init explicitly.\n    _mintIndexForSale = 1;\n    _mintSSSC = MintSSSC(mintSSSCAddress);\n  }\n\n  function setupSale(\n    uint256 newAntibotInterval, \n    uint256 newMintLimitPerBlock,\n    uint256 newMintLimitPerSale,\n    uint256 newMintStartBlockNumber,\n    uint256 newMintIndexForSale,\n    uint256 newMaxSaleAmount,\n    uint256 newMintPrice\n  ) external onlyOwner{\n    _antibotInterval = newAntibotInterval;\n    _mintLimitPerBlock = newMintLimitPerBlock;\n    _mintLimitPerSale = newMintLimitPerSale;\n    _mintStartBlockNumber = newMintStartBlockNumber;\n    _mintIndexForSale = newMintIndexForSale;\n    _maxSaleAmount = newMaxSaleAmount;\n    _mintPrice = newMintPrice;\n  }\n\n  function mintingInformation() external view returns (uint256[7] memory){\n    uint256[7] memory info =\n      [_antibotInterval, _mintIndexForSale, _mintLimitPerBlock, _mintLimitPerSale, \n        _mintStartBlockNumber, _maxSaleAmount, _mintPrice];\n    return info;\n  }\n\n  function setPublicMintEnabled(bool state) external onlyOwner {\n    //    ... require(_mintPrice > 0, \"\");\n    _publicMintEnabled = state;\n  }\n\n  function setWhitelistMintEnabled(bool state) external onlyOwner {\n    //    ... require(_mintPrice > 0, \"\");\n    _whitelistMintEnabled = state;\n  }\n\n  function publicMint(uint256 requestedCount) external payable {\n    require(_publicMintEnabled, \"The public sale is not enabled!\");\n    require(block.number >= _mintStartBlockNumber, \"Not yet started\");\n    require(_lastCallBlockNumber[msg.sender] + _antibotInterval < block.number, \"Bot is not allowed\");\n    require(requestedCount > 0 && requestedCount <= _mintLimitPerBlock, \"Too many requests or zero request\");\n    require(msg.value == _mintPrice * requestedCount, \"Not correct ETH\");\n    require(_mintIndexForSale + requestedCount <= _maxSaleAmount, \"Exceed max amount\");\n    require(_mintSSSC.balanceOf(msg.sender) + requestedCount <= _mintLimitPerSale, \"Exceed max amount per person\");\n    \n    for(uint256 i = 0; i < requestedCount; i++) {\n      _mintSSSC.mint(msg.sender, _mintIndexForSale);\n      _mintIndexForSale += 1;\n    }\n    _lastCallBlockNumber[msg.sender] = block.number;\n  }\n\n  function whitelistMint(uint256 requestedCount, bytes32[] calldata merkleProof) external payable {\n    require(_whitelistMintEnabled, \"The whitelist sale is not enabled!\");\n    require(_mintSSSC.balanceOf(msg.sender) + requestedCount <= _mintLimitPerSale, \"Exceed max amount per person\");\n    require(msg.value == _mintPrice * requestedCount, \"Not correct ETH\");\n    require(!_whitelistClaimed[msg.sender], 'Address already claimed!');\n    \n    bytes32 leaf = keccak256(abi.encodePacked(msg.sender));\n    require(MerkleProof.verify(merkleProof, _merkleRoot, leaf), 'Invalid proof!');\n\n    for(uint256 i = 0; i < requestedCount; i++) {\n      _mintSSSC.mint(msg.sender, _mintIndexForSale);\n      _mintIndexForSale += 1;\n    }\n\n    _whitelistClaimed[msg.sender] = true;\n  }\n\n  function airDropMint(address user, uint256 requestedCount) external onlyOwner {\n    require(requestedCount > 0, \"zero request\");\n    for(uint256 i = 0; i < requestedCount; i++) {\n      _mintSSSC.mint(user, _mintIndexForSale);\n      _mintIndexForSale += 1;\n    }\n  }\n\n  function withdraw() external onlyOwner {\n    payable(msg.sender).transfer(address(this).balance);\n  }\n}",
  "sourcePath": "/Users/harace/dev/sssc-contract/contracts/token/SaleSSSC.sol",
  "compiler": {
    "name": "solc",
    "version": "0.8.13+commit.abaa5c0e.Emscripten.clang"
  },
  "schemaVersion": "3.4.7",
  "updatedAt": "2022-05-02T13:55:06.528Z",
  "devdoc": {
    "kind": "dev",
    "methods": {},
    "version": 1
  },
  "userdoc": {
    "kind": "user",
    "methods": {},
    "version": 1
  }
}