{
  "contractName": "SSSC",
  "abi": [
    {
      "inputs": [
        {
          "internalType": "string",
          "name": "name",
          "type": "string"
        },
        {
          "internalType": "string",
          "name": "symbol",
          "type": "string"
        },
        {
          "internalType": "string",
          "name": "baseTokenURI",
          "type": "string"
        },
        {
          "internalType": "string",
          "name": "notRevealedURI",
          "type": "string"
        }
      ],
      "stateMutability": "nonpayable",
      "type": "constructor"
    },
    {
      "anonymous": false,
      "inputs": [
        {
          "indexed": true,
          "internalType": "address",
          "name": "owner",
          "type": "address"
        },
        {
          "indexed": true,
          "internalType": "address",
          "name": "approved",
          "type": "address"
        },
        {
          "indexed": true,
          "internalType": "uint256",
          "name": "tokenId",
          "type": "uint256"
        }
      ],
      "name": "Approval",
      "type": "event"
    },
    {
      "anonymous": false,
      "inputs": [
        {
          "indexed": true,
          "internalType": "address",
          "name": "owner",
          "type": "address"
        },
        {
          "indexed": true,
          "internalType": "address",
          "name": "operator",
          "type": "address"
        },
        {
          "indexed": false,
          "internalType": "bool",
          "name": "approved",
          "type": "bool"
        }
      ],
      "name": "ApprovalForAll",
      "type": "event"
    },
    {
      "anonymous": false,
      "inputs": [
        {
          "indexed": true,
          "internalType": "address",
          "name": "host",
          "type": "address"
        },
        {
          "indexed": true,
          "internalType": "address",
          "name": "guest",
          "type": "address"
        }
      ],
      "name": "OwnershipExtended",
      "type": "event"
    },
    {
      "anonymous": false,
      "inputs": [
        {
          "indexed": true,
          "internalType": "address",
          "name": "revokedOwner",
          "type": "address"
        }
      ],
      "name": "OwnershipRevoked",
      "type": "event"
    },
    {
      "anonymous": false,
      "inputs": [
        {
          "indexed": true,
          "internalType": "address",
          "name": "previousOwner",
          "type": "address"
        },
        {
          "indexed": true,
          "internalType": "address",
          "name": "newOwner",
          "type": "address"
        }
      ],
      "name": "OwnershipTransferred",
      "type": "event"
    },
    {
      "anonymous": false,
      "inputs": [
        {
          "indexed": false,
          "internalType": "address",
          "name": "account",
          "type": "address"
        }
      ],
      "name": "Paused",
      "type": "event"
    },
    {
      "anonymous": false,
      "inputs": [
        {
          "indexed": true,
          "internalType": "address",
          "name": "from",
          "type": "address"
        },
        {
          "indexed": true,
          "internalType": "address",
          "name": "to",
          "type": "address"
        },
        {
          "indexed": true,
          "internalType": "uint256",
          "name": "tokenId",
          "type": "uint256"
        }
      ],
      "name": "Transfer",
      "type": "event"
    },
    {
      "anonymous": false,
      "inputs": [
        {
          "indexed": false,
          "internalType": "address",
          "name": "account",
          "type": "address"
        }
      ],
      "name": "Unpaused",
      "type": "event"
    },
    {
      "inputs": [
        {
          "internalType": "address",
          "name": "guest",
          "type": "address"
        }
      ],
      "name": "addOwner",
      "outputs": [],
      "stateMutability": "nonpayable",
      "type": "function"
    },
    {
      "inputs": [
        {
          "internalType": "address",
          "name": "to",
          "type": "address"
        },
        {
          "internalType": "uint256",
          "name": "tokenId",
          "type": "uint256"
        }
      ],
      "name": "approve",
      "outputs": [],
      "stateMutability": "nonpayable",
      "type": "function"
    },
    {
      "inputs": [
        {
          "internalType": "address",
          "name": "owner",
          "type": "address"
        }
      ],
      "name": "balanceOf",
      "outputs": [
        {
          "internalType": "uint256",
          "name": "",
          "type": "uint256"
        }
      ],
      "stateMutability": "view",
      "type": "function",
      "constant": true
    },
    {
      "inputs": [
        {
          "internalType": "uint256",
          "name": "tokenId",
          "type": "uint256"
        }
      ],
      "name": "getApproved",
      "outputs": [
        {
          "internalType": "address",
          "name": "",
          "type": "address"
        }
      ],
      "stateMutability": "view",
      "type": "function",
      "constant": true
    },
    {
      "inputs": [
        {
          "internalType": "address",
          "name": "owner",
          "type": "address"
        },
        {
          "internalType": "address",
          "name": "operator",
          "type": "address"
        }
      ],
      "name": "isApprovedForAll",
      "outputs": [
        {
          "internalType": "bool",
          "name": "",
          "type": "bool"
        }
      ],
      "stateMutability": "view",
      "type": "function",
      "constant": true
    },
    {
      "inputs": [
        {
          "internalType": "address",
          "name": "owner",
          "type": "address"
        }
      ],
      "name": "isOwner",
      "outputs": [
        {
          "internalType": "bool",
          "name": "",
          "type": "bool"
        }
      ],
      "stateMutability": "view",
      "type": "function",
      "constant": true
    },
    {
      "inputs": [],
      "name": "name",
      "outputs": [
        {
          "internalType": "string",
          "name": "",
          "type": "string"
        }
      ],
      "stateMutability": "view",
      "type": "function",
      "constant": true
    },
    {
      "inputs": [
        {
          "internalType": "uint256",
          "name": "tokenId",
          "type": "uint256"
        }
      ],
      "name": "ownerOf",
      "outputs": [
        {
          "internalType": "address",
          "name": "",
          "type": "address"
        }
      ],
      "stateMutability": "view",
      "type": "function",
      "constant": true
    },
    {
      "inputs": [
        {
          "internalType": "address",
          "name": "",
          "type": "address"
        }
      ],
      "name": "owners",
      "outputs": [
        {
          "internalType": "bool",
          "name": "",
          "type": "bool"
        }
      ],
      "stateMutability": "view",
      "type": "function",
      "constant": true
    },
    {
      "inputs": [],
      "name": "paused",
      "outputs": [
        {
          "internalType": "bool",
          "name": "",
          "type": "bool"
        }
      ],
      "stateMutability": "view",
      "type": "function",
      "constant": true
    },
    {
      "inputs": [
        {
          "internalType": "address",
          "name": "owner",
          "type": "address"
        }
      ],
      "name": "removeOwner",
      "outputs": [],
      "stateMutability": "nonpayable",
      "type": "function"
    },
    {
      "inputs": [
        {
          "internalType": "address",
          "name": "from",
          "type": "address"
        },
        {
          "internalType": "address",
          "name": "to",
          "type": "address"
        },
        {
          "internalType": "uint256",
          "name": "tokenId",
          "type": "uint256"
        }
      ],
      "name": "safeTransferFrom",
      "outputs": [],
      "stateMutability": "nonpayable",
      "type": "function"
    },
    {
      "inputs": [
        {
          "internalType": "address",
          "name": "from",
          "type": "address"
        },
        {
          "internalType": "address",
          "name": "to",
          "type": "address"
        },
        {
          "internalType": "uint256",
          "name": "tokenId",
          "type": "uint256"
        },
        {
          "internalType": "bytes",
          "name": "_data",
          "type": "bytes"
        }
      ],
      "name": "safeTransferFrom",
      "outputs": [],
      "stateMutability": "nonpayable",
      "type": "function"
    },
    {
      "inputs": [
        {
          "internalType": "address",
          "name": "operator",
          "type": "address"
        },
        {
          "internalType": "bool",
          "name": "approved",
          "type": "bool"
        }
      ],
      "name": "setApprovalForAll",
      "outputs": [],
      "stateMutability": "nonpayable",
      "type": "function"
    },
    {
      "inputs": [
        {
          "internalType": "bytes4",
          "name": "interfaceId",
          "type": "bytes4"
        }
      ],
      "name": "supportsInterface",
      "outputs": [
        {
          "internalType": "bool",
          "name": "",
          "type": "bool"
        }
      ],
      "stateMutability": "view",
      "type": "function",
      "constant": true
    },
    {
      "inputs": [],
      "name": "symbol",
      "outputs": [
        {
          "internalType": "string",
          "name": "",
          "type": "string"
        }
      ],
      "stateMutability": "view",
      "type": "function",
      "constant": true
    },
    {
      "inputs": [
        {
          "internalType": "uint256",
          "name": "index",
          "type": "uint256"
        }
      ],
      "name": "tokenByIndex",
      "outputs": [
        {
          "internalType": "uint256",
          "name": "",
          "type": "uint256"
        }
      ],
      "stateMutability": "view",
      "type": "function",
      "constant": true
    },
    {
      "inputs": [
        {
          "internalType": "address",
          "name": "owner",
          "type": "address"
        },
        {
          "internalType": "uint256",
          "name": "index",
          "type": "uint256"
        }
      ],
      "name": "tokenOfOwnerByIndex",
      "outputs": [
        {
          "internalType": "uint256",
          "name": "",
          "type": "uint256"
        }
      ],
      "stateMutability": "view",
      "type": "function",
      "constant": true
    },
    {
      "inputs": [],
      "name": "totalSupply",
      "outputs": [
        {
          "internalType": "uint256",
          "name": "",
          "type": "uint256"
        }
      ],
      "stateMutability": "view",
      "type": "function",
      "constant": true
    },
    {
      "inputs": [
        {
          "internalType": "address",
          "name": "from",
          "type": "address"
        },
        {
          "internalType": "address",
          "name": "to",
          "type": "address"
        },
        {
          "internalType": "uint256",
          "name": "tokenId",
          "type": "uint256"
        }
      ],
      "name": "transferFrom",
      "outputs": [],
      "stateMutability": "nonpayable",
      "type": "function"
    },
    {
      "inputs": [
        {
          "internalType": "address",
          "name": "newOwner",
          "type": "address"
        }
      ],
      "name": "transferOwnership",
      "outputs": [],
      "stateMutability": "nonpayable",
      "type": "function"
    },
    {
      "inputs": [
        {
          "internalType": "string",
          "name": "baseTokenURI",
          "type": "string"
        }
      ],
      "name": "setBaseURI",
      "outputs": [],
      "stateMutability": "nonpayable",
      "type": "function"
    },
    {
      "inputs": [],
      "name": "getBaseURI",
      "outputs": [
        {
          "internalType": "string",
          "name": "",
          "type": "string"
        }
      ],
      "stateMutability": "view",
      "type": "function",
      "constant": true
    },
    {
      "inputs": [
        {
          "internalType": "string",
          "name": "newNotRevealedURI",
          "type": "string"
        }
      ],
      "name": "setNotRevealedURI",
      "outputs": [],
      "stateMutability": "nonpayable",
      "type": "function"
    },
    {
      "inputs": [],
      "name": "getNotRevealedURI",
      "outputs": [
        {
          "internalType": "string",
          "name": "",
          "type": "string"
        }
      ],
      "stateMutability": "view",
      "type": "function",
      "constant": true
    },
    {
      "inputs": [
        {
          "internalType": "bool",
          "name": "state",
          "type": "bool"
        }
      ],
      "name": "setRevealed",
      "outputs": [],
      "stateMutability": "nonpayable",
      "type": "function"
    },
    {
      "inputs": [],
      "name": "getReveled",
      "outputs": [
        {
          "internalType": "bool",
          "name": "",
          "type": "bool"
        }
      ],
      "stateMutability": "view",
      "type": "function",
      "constant": true
    },
    {
      "inputs": [
        {
          "internalType": "uint256",
          "name": "tokenId",
          "type": "uint256"
        }
      ],
      "name": "tokenURI",
      "outputs": [
        {
          "internalType": "string",
          "name": "",
          "type": "string"
        }
      ],
      "stateMutability": "view",
      "type": "function",
      "constant": true
    },
    {
      "inputs": [
        {
          "internalType": "address",
          "name": "to",
          "type": "address"
        },
        {
          "internalType": "uint256",
          "name": "tokenId",
          "type": "uint256"
        }
      ],
      "name": "mint",
      "outputs": [],
      "stateMutability": "nonpayable",
      "type": "function"
    },
    {
      "inputs": [
        {
          "internalType": "uint256",
          "name": "tokenId",
          "type": "uint256"
        }
      ],
      "name": "exists",
      "outputs": [
        {
          "internalType": "bool",
          "name": "",
          "type": "bool"
        }
      ],
      "stateMutability": "view",
      "type": "function",
      "constant": true
    },
    {
      "inputs": [],
      "name": "pause",
      "outputs": [],
      "stateMutability": "nonpayable",
      "type": "function"
    },
    {
      "inputs": [],
      "name": "unpause",
      "outputs": [],
      "stateMutability": "nonpayable",
      "type": "function"
    }
  ],
  "bytecode": "0x60806040523480156200001157600080fd5b506040516200448738038062004487833981810160405281019062000037919062000384565b838381600090805190602001906200005192919062000137565b5080600190805190602001906200006a92919062000137565b5050506000600a60006101000a81548160ff0219169083151502179055506001600b60003373ffffffffffffffffffffffffffffffffffffffff1673ffffffffffffffffffffffffffffffffffffffff16815260200190815260200160002060006101000a81548160ff02191690831515021790555081600c9080519060200190620000f892919062000137565b5080600d90805190602001906200011192919062000137565b506000600e60006101000a81548160ff02191690831515021790555050505050620004d6565b8280546200014590620004a1565b90600052602060002090601f016020900481019282620001695760008555620001b5565b82601f106200018457805160ff1916838001178555620001b5565b82800160010185558215620001b5579182015b82811115620001b457825182559160200191906001019062000197565b5b509050620001c49190620001c8565b5090565b5b80821115620001e3576000816000905550600101620001c9565b5090565b6000604051905090565b600080fd5b600080fd5b600080fd5b600080fd5b6000601f19601f8301169050919050565b7f4e487b7100000000000000000000000000000000000000000000000000000000600052604160045260246000fd5b620002508262000205565b810181811067ffffffffffffffff8211171562000272576200027162000216565b5b80604052505050565b600062000287620001e7565b905062000295828262000245565b919050565b600067ffffffffffffffff821115620002b857620002b762000216565b5b620002c38262000205565b9050602081019050919050565b60005b83811015620002f0578082015181840152602081019050620002d3565b8381111562000300576000848401525b50505050565b60006200031d62000317846200029a565b6200027b565b9050828152602081018484840111156200033c576200033b62000200565b5b62000349848285620002d0565b509392505050565b600082601f830112620003695762000368620001fb565b5b81516200037b84826020860162000306565b91505092915050565b60008060008060808587031215620003a157620003a0620001f1565b5b600085015167ffffffffffffffff811115620003c257620003c1620001f6565b5b620003d08782880162000351565b945050602085015167ffffffffffffffff811115620003f457620003f3620001f6565b5b620004028782880162000351565b935050604085015167ffffffffffffffff811115620004265762000425620001f6565b5b620004348782880162000351565b925050606085015167ffffffffffffffff811115620004585762000457620001f6565b5b620004668782880162000351565b91505092959194509250565b7f4e487b7100000000000000000000000000000000000000000000000000000000600052602260045260246000fd5b60006002820490506001821680620004ba57607f821691505b602082108103620004d057620004cf62000472565b5b50919050565b613fa180620004e66000396000f3fe608060405234801561001057600080fd5b50600436106101f05760003560e01c80635c975abb1161010f578063a22cb465116100a2578063e0a8085311610071578063e0a80853146105b7578063e985e9c5146105d3578063f2c4ce1e14610603578063f2fde38b1461061f576101f0565b8063a22cb46514610531578063b4199b8c1461054d578063b88d4fde1461056b578063c87b56dd14610587576101f0565b8063714c5398116100de578063714c5398146104cd5780638456cb59146104eb578063940e199c146104f557806395d89b4114610513576101f0565b80635c975abb146104335780636352211e146104515780637065cb481461048157806370a082311461049d576101f0565b80632f54bf6e1161018757806342842e0e1161015657806342842e0e1461039b5780634f558e79146103b75780634f6ccce7146103e757806355f804b314610417576101f0565b80632f54bf6e146103155780632f745c59146103455780633f4ba83a1461037557806340c10f191461037f576101f0565b8063095ea7b3116101c3578063095ea7b3146102a3578063173825d9146102bf57806318160ddd146102db57806323b872dd146102f9576101f0565b806301ffc9a7146101f5578063022914a71461022557806306fdde0314610255578063081812fc14610273575b600080fd5b61020f600480360381019061020a9190612a63565b61063b565b60405161021c9190612aab565b60405180910390f35b61023f600480360381019061023a9190612b24565b6106b5565b60405161024c9190612aab565b60405180910390f35b61025d6106d5565b60405161026a9190612bea565b60405180910390f35b61028d60048036038101906102889190612c42565b610767565b60405161029a9190612c7e565b60405180910390f35b6102bd60048036038101906102b89190612c99565b6107ec565b005b6102d960048036038101906102d49190612b24565b610903565b005b6102e3610a68565b6040516102f09190612ce8565b60405180910390f35b610313600480360381019061030e9190612d03565b610a75565b005b61032f600480360381019061032a9190612b24565b610ad5565b60405161033c9190612aab565b60405180910390f35b61035f600480360381019061035a9190612c99565b610b2b565b60405161036c9190612ce8565b60405180910390f35b61037d610bd0565b005b61039960048036038101906103949190612c99565b610c29565b005b6103b560048036038101906103b09190612d03565b610c86565b005b6103d160048036038101906103cc9190612c42565b610ca6565b6040516103de9190612aab565b60405180910390f35b61040160048036038101906103fc9190612c42565b610cb8565b60405161040e9190612ce8565b60405180910390f35b610431600480360381019061042c9190612e8b565b610d29565b005b61043b610d92565b6040516104489190612aab565b60405180910390f35b61046b60048036038101906104669190612c42565b610da9565b6040516104789190612c7e565b60405180910390f35b61049b60048036038101906104969190612b24565b610e5a565b005b6104b760048036038101906104b29190612b24565b610f9e565b6040516104c49190612ce8565b60405180910390f35b6104d5611055565b6040516104e29190612bea565b60405180910390f35b6104f36110e7565b005b6104fd611140565b60405161050a9190612aab565b60405180910390f35b61051b611157565b6040516105289190612bea565b60405180910390f35b61054b60048036038101906105469190612f00565b6111e9565b005b6105556111ff565b6040516105629190612bea565b60405180910390f35b61058560048036038101906105809190612fe1565b611291565b005b6105a1600480360381019061059c9190612c42565b6112f3565b6040516105ae9190612bea565b60405180910390f35b6105d160048036038101906105cc9190613064565b6113b1565b005b6105ed60048036038101906105e89190613091565b61141d565b6040516105fa9190612aab565b60405180910390f35b61061d60048036038101906106189190612e8b565b6114b1565b005b61063960048036038101906106349190612b24565b61151a565b005b60007f780e9d63000000000000000000000000000000000000000000000000000000007bffffffffffffffffffffffffffffffffffffffffffffffffffffffff1916827bffffffffffffffffffffffffffffffffffffffffffffffffffffffff191614806106ae57506106ad826116b4565b5b9050919050565b600b6020528060005260406000206000915054906101000a900460ff1681565b6060600080546106e490613100565b80601f016020809104026020016040519081016040528092919081815260200182805461071090613100565b801561075d5780601f106107325761010080835404028352916020019161075d565b820191906000526020600020905b81548152906001019060200180831161074057829003601f168201915b5050505050905090565b600061077282611796565b6107b1576040517f08c379a00000000000000000000000000000000000000000000000000000000081526004016107a8906131a3565b60405180910390fd5b6004600083815260200190815260200160002060009054906101000a900473ffffffffffffffffffffffffffffffffffffffff169050919050565b60006107f782610da9565b90508073ffffffffffffffffffffffffffffffffffffffff168373ffffffffffffffffffffffffffffffffffffffff1603610867576040517f08c379a000000000000000000000000000000000000000000000000000000000815260040161085e90613235565b60405180910390fd5b8073ffffffffffffffffffffffffffffffffffffffff16610886611802565b73ffffffffffffffffffffffffffffffffffffffff1614806108b557506108b4816108af611802565b61141d565b5b6108f4576040517f08c379a00000000000000000000000000000000000000000000000000000000081526004016108eb906132c7565b60405180910390fd5b6108fe838361180a565b505050565b61091361090e611802565b610ad5565b610952576040517f08c379a000000000000000000000000000000000000000000000000000000000815260040161094990613333565b60405180910390fd5b600073ffffffffffffffffffffffffffffffffffffffff168173ffffffffffffffffffffffffffffffffffffffff160361098b57600080fd5b8073ffffffffffffffffffffffffffffffffffffffff166109aa611802565b73ffffffffffffffffffffffffffffffffffffffff16036109ca57600080fd5b6000600b60008373ffffffffffffffffffffffffffffffffffffffff1673ffffffffffffffffffffffffffffffffffffffff16815260200190815260200160002060006101000a81548160ff0219169083151502179055508073ffffffffffffffffffffffffffffffffffffffff167f0d715ebedf3d01353f62c2245e0afc27d98f1bc0fb99512f42873fb9879f023960405160405180910390a250565b6000600880549050905090565b610a86610a80611802565b826118c3565b610ac5576040517f08c379a0000000000000000000000000000000000000000000000000000000008152600401610abc906133c5565b60405180910390fd5b610ad08383836119a1565b505050565b6000600b60008373ffffffffffffffffffffffffffffffffffffffff1673ffffffffffffffffffffffffffffffffffffffff16815260200190815260200160002060009054906101000a900460ff169050919050565b6000610b3683610f9e565b8210610b77576040517f08c379a0000000000000000000000000000000000000000000000000000000008152600401610b6e90613457565b60405180910390fd5b600660008473ffffffffffffffffffffffffffffffffffffffff1673ffffffffffffffffffffffffffffffffffffffff168152602001908152602001600020600083815260200190815260200160002054905092915050565b610be0610bdb611802565b610ad5565b610c1f576040517f08c379a0000000000000000000000000000000000000000000000000000000008152600401610c1690613333565b60405180910390fd5b610c27611c07565b565b610c39610c34611802565b610ad5565b610c78576040517f08c379a0000000000000000000000000000000000000000000000000000000008152600401610c6f90613333565b60405180910390fd5b610c828282611ca9565b5050565b610ca183838360405180602001604052806000815250611291565b505050565b6000610cb182611796565b9050919050565b6000610cc2610a68565b8210610d03576040517f08c379a0000000000000000000000000000000000000000000000000000000008152600401610cfa906134e9565b60405180910390fd5b60088281548110610d1757610d16613509565b5b90600052602060002001549050919050565b610d39610d34611802565b610ad5565b610d78576040517f08c379a0000000000000000000000000000000000000000000000000000000008152600401610d6f90613333565b60405180910390fd5b80600c9080519060200190610d8e929190612954565b5050565b6000600a60009054906101000a900460ff16905090565b6000806002600084815260200190815260200160002060009054906101000a900473ffffffffffffffffffffffffffffffffffffffff169050600073ffffffffffffffffffffffffffffffffffffffff168173ffffffffffffffffffffffffffffffffffffffff1603610e51576040517f08c379a0000000000000000000000000000000000000000000000000000000008152600401610e48906135aa565b60405180910390fd5b80915050919050565b610e6a610e65611802565b610ad5565b610ea9576040517f08c379a0000000000000000000000000000000000000000000000000000000008152600401610ea090613333565b60405180910390fd5b600073ffffffffffffffffffffffffffffffffffffffff168173ffffffffffffffffffffffffffffffffffffffff1603610ee257600080fd5b6001600b60008373ffffffffffffffffffffffffffffffffffffffff1673ffffffffffffffffffffffffffffffffffffffff16815260200190815260200160002060006101000a81548160ff0219169083151502179055508073ffffffffffffffffffffffffffffffffffffffff16610f59611802565b73ffffffffffffffffffffffffffffffffffffffff167f1d95aed2b82ae4cbdcccc214bb64bc277a20e8490d69a59d7f426c67fe46c61d60405160405180910390a350565b60008073ffffffffffffffffffffffffffffffffffffffff168273ffffffffffffffffffffffffffffffffffffffff160361100e576040517f08c379a00000000000000000000000000000000000000000000000000000000081526004016110059061363c565b60405180910390fd5b600360008373ffffffffffffffffffffffffffffffffffffffff1673ffffffffffffffffffffffffffffffffffffffff168152602001908152602001600020549050919050565b6060600c805461106490613100565b80601f016020809104026020016040519081016040528092919081815260200182805461109090613100565b80156110dd5780601f106110b2576101008083540402835291602001916110dd565b820191906000526020600020905b8154815290600101906020018083116110c057829003601f168201915b5050505050905090565b6110f76110f2611802565b610ad5565b611136576040517f08c379a000000000000000000000000000000000000000000000000000000000815260040161112d90613333565b60405180910390fd5b61113e611cc7565b565b6000600e60009054906101000a900460ff16905090565b60606001805461116690613100565b80601f016020809104026020016040519081016040528092919081815260200182805461119290613100565b80156111df5780601f106111b4576101008083540402835291602001916111df565b820191906000526020600020905b8154815290600101906020018083116111c257829003601f168201915b5050505050905090565b6111fb6111f4611802565b8383611d6a565b5050565b6060600d805461120e90613100565b80601f016020809104026020016040519081016040528092919081815260200182805461123a90613100565b80156112875780601f1061125c57610100808354040283529160200191611287565b820191906000526020600020905b81548152906001019060200180831161126a57829003601f168201915b5050505050905090565b6112a261129c611802565b836118c3565b6112e1576040517f08c379a00000000000000000000000000000000000000000000000000000000081526004016112d8906133c5565b60405180910390fd5b6112ed84848484611ed6565b50505050565b60606112fe82611796565b61133d576040517f08c379a0000000000000000000000000000000000000000000000000000000008152600401611334906136ce565b60405180910390fd5b60001515600e60009054906101000a900460ff1615151461138857600c61136383611f32565b6040516020016113749291906137e4565b6040516020818303038152906040526113aa565b600d60405160200161139a919061383d565b6040516020818303038152906040525b9050919050565b6113c16113bc611802565b610ad5565b611400576040517f08c379a00000000000000000000000000000000000000000000000000000000081526004016113f790613333565b60405180910390fd5b80600e60006101000a81548160ff02191690831515021790555050565b6000600560008473ffffffffffffffffffffffffffffffffffffffff1673ffffffffffffffffffffffffffffffffffffffff16815260200190815260200160002060008373ffffffffffffffffffffffffffffffffffffffff1673ffffffffffffffffffffffffffffffffffffffff16815260200190815260200160002060009054906101000a900460ff16905092915050565b6114c16114bc611802565b610ad5565b611500576040517f08c379a00000000000000000000000000000000000000000000000000000000081526004016114f790613333565b60405180910390fd5b80600d9080519060200190611516929190612954565b5050565b61152a611525611802565b610ad5565b611569576040517f08c379a000000000000000000000000000000000000000000000000000000000815260040161156090613333565b60405180910390fd5b600073ffffffffffffffffffffffffffffffffffffffff168173ffffffffffffffffffffffffffffffffffffffff16036115a257600080fd5b6001600b60008373ffffffffffffffffffffffffffffffffffffffff1673ffffffffffffffffffffffffffffffffffffffff16815260200190815260200160002060006101000a81548160ff021916908315150217905550600b6000611606611802565b73ffffffffffffffffffffffffffffffffffffffff1673ffffffffffffffffffffffffffffffffffffffff16815260200190815260200160002060006101000a81549060ff02191690558073ffffffffffffffffffffffffffffffffffffffff1661166f611802565b73ffffffffffffffffffffffffffffffffffffffff167f8be0079c531659141344cd1fd0a4f28419497f9722a3daafe3b4186f6b6457e060405160405180910390a350565b60007f80ac58cd000000000000000000000000000000000000000000000000000000007bffffffffffffffffffffffffffffffffffffffffffffffffffffffff1916827bffffffffffffffffffffffffffffffffffffffffffffffffffffffff1916148061177f57507f5b5e139f000000000000000000000000000000000000000000000000000000007bffffffffffffffffffffffffffffffffffffffffffffffffffffffff1916827bffffffffffffffffffffffffffffffffffffffffffffffffffffffff1916145b8061178f575061178e82612092565b5b9050919050565b60008073ffffffffffffffffffffffffffffffffffffffff166002600084815260200190815260200160002060009054906101000a900473ffffffffffffffffffffffffffffffffffffffff1673ffffffffffffffffffffffffffffffffffffffff1614159050919050565b600033905090565b816004600083815260200190815260200160002060006101000a81548173ffffffffffffffffffffffffffffffffffffffff021916908373ffffffffffffffffffffffffffffffffffffffff160217905550808273ffffffffffffffffffffffffffffffffffffffff1661187d83610da9565b73ffffffffffffffffffffffffffffffffffffffff167f8c5be1e5ebec7d5bd14f71427d1e84f3dd0314c0f7b2291e5b200ac8c7c3b92560405160405180910390a45050565b60006118ce82611796565b61190d576040517f08c379a0000000000000000000000000000000000000000000000000000000008152600401611904906138d5565b60405180910390fd5b600061191883610da9565b90508073ffffffffffffffffffffffffffffffffffffffff168473ffffffffffffffffffffffffffffffffffffffff16148061198757508373ffffffffffffffffffffffffffffffffffffffff1661196f84610767565b73ffffffffffffffffffffffffffffffffffffffff16145b806119985750611997818561141d565b5b91505092915050565b8273ffffffffffffffffffffffffffffffffffffffff166119c182610da9565b73ffffffffffffffffffffffffffffffffffffffff1614611a17576040517f08c379a0000000000000000000000000000000000000000000000000000000008152600401611a0e90613967565b60405180910390fd5b600073ffffffffffffffffffffffffffffffffffffffff168273ffffffffffffffffffffffffffffffffffffffff1603611a86576040517f08c379a0000000000000000000000000000000000000000000000000000000008152600401611a7d906139f9565b60405180910390fd5b611a918383836120fc565b611a9c60008261180a565b6001600360008573ffffffffffffffffffffffffffffffffffffffff1673ffffffffffffffffffffffffffffffffffffffff1681526020019081526020016000206000828254611aec9190613a48565b925050819055506001600360008473ffffffffffffffffffffffffffffffffffffffff1673ffffffffffffffffffffffffffffffffffffffff1681526020019081526020016000206000828254611b439190613a7c565b92505081905550816002600083815260200190815260200160002060006101000a81548173ffffffffffffffffffffffffffffffffffffffff021916908373ffffffffffffffffffffffffffffffffffffffff160217905550808273ffffffffffffffffffffffffffffffffffffffff168473ffffffffffffffffffffffffffffffffffffffff167fddf252ad1be2c89b69c2b068fc378daa952ba7f163c4a11628f55a4df523b3ef60405160405180910390a4611c02838383612154565b505050565b611c0f610d92565b611c4e576040517f08c379a0000000000000000000000000000000000000000000000000000000008152600401611c4590613b1e565b60405180910390fd5b6000600a60006101000a81548160ff0219169083151502179055507f5db9ee0a495bf2e6ff9c91a7834c1ba4fdd244a5e8aa4e537bd38aeae4b073aa611c92611802565b604051611c9f9190612c7e565b60405180910390a1565b611cc3828260405180602001604052806000815250612159565b5050565b611ccf610d92565b15611d0f576040517f08c379a0000000000000000000000000000000000000000000000000000000008152600401611d0690613b8a565b60405180910390fd5b6001600a60006101000a81548160ff0219169083151502179055507f62e78cea01bee320cd4e420270b5ea74000d11b0c9f74754ebdbfc544b05a258611d53611802565b604051611d609190612c7e565b60405180910390a1565b8173ffffffffffffffffffffffffffffffffffffffff168373ffffffffffffffffffffffffffffffffffffffff1603611dd8576040517f08c379a0000000000000000000000000000000000000000000000000000000008152600401611dcf90613bf6565b60405180910390fd5b80600560008573ffffffffffffffffffffffffffffffffffffffff1673ffffffffffffffffffffffffffffffffffffffff16815260200190815260200160002060008473ffffffffffffffffffffffffffffffffffffffff1673ffffffffffffffffffffffffffffffffffffffff16815260200190815260200160002060006101000a81548160ff0219169083151502179055508173ffffffffffffffffffffffffffffffffffffffff168373ffffffffffffffffffffffffffffffffffffffff167f17307eab39ab6107e8899845ad3d59bd9653f200f220920489ca2b5937696c3183604051611ec99190612aab565b60405180910390a3505050565b611ee18484846119a1565b611eed848484846121b4565b611f2c576040517f08c379a0000000000000000000000000000000000000000000000000000000008152600401611f2390613c88565b60405180910390fd5b50505050565b606060008203611f79576040518060400160405280600181526020017f3000000000000000000000000000000000000000000000000000000000000000815250905061208d565b600082905060005b60008214611fab578080611f9490613ca8565b915050600a82611fa49190613d1f565b9150611f81565b60008167ffffffffffffffff811115611fc757611fc6612d60565b5b6040519080825280601f01601f191660200182016040528015611ff95781602001600182028036833780820191505090505b5090505b60008514612086576001826120129190613a48565b9150600a856120219190613d50565b603061202d9190613a7c565b60f81b81838151811061204357612042613509565b5b60200101907effffffffffffffffffffffffffffffffffffffffffffffffffffffffffffff1916908160001a905350600a8561207f9190613d1f565b9450611ffd565b8093505050505b919050565b60007f01ffc9a7000000000000000000000000000000000000000000000000000000007bffffffffffffffffffffffffffffffffffffffffffffffffffffffff1916827bffffffffffffffffffffffffffffffffffffffffffffffffffffffff1916149050919050565b612104610d92565b15612144576040517f08c379a000000000000000000000000000000000000000000000000000000000815260040161213b90613b8a565b60405180910390fd5b61214f83838361233b565b505050565b505050565b612163838361244d565b61217060008484846121b4565b6121af576040517f08c379a00000000000000000000000000000000000000000000000000000000081526004016121a690613c88565b60405180910390fd5b505050565b60006121d58473ffffffffffffffffffffffffffffffffffffffff16612626565b1561232e578373ffffffffffffffffffffffffffffffffffffffff1663150b7a026121fe611802565b8786866040518563ffffffff1660e01b81526004016122209493929190613dd6565b6020604051808303816000875af192505050801561225c57506040513d601f19601f820116820180604052508101906122599190613e37565b60015b6122de573d806000811461228c576040519150601f19603f3d011682016040523d82523d6000602084013e612291565b606091505b5060008151036122d6576040517f08c379a00000000000000000000000000000000000000000000000000000000081526004016122cd90613c88565b60405180910390fd5b805181602001fd5b63150b7a0260e01b7bffffffffffffffffffffffffffffffffffffffffffffffffffffffff1916817bffffffffffffffffffffffffffffffffffffffffffffffffffffffff191614915050612333565b600190505b949350505050565b612346838383612649565b600073ffffffffffffffffffffffffffffffffffffffff168373ffffffffffffffffffffffffffffffffffffffff1603612388576123838161264e565b6123c7565b8173ffffffffffffffffffffffffffffffffffffffff168373ffffffffffffffffffffffffffffffffffffffff16146123c6576123c58382612697565b5b5b600073ffffffffffffffffffffffffffffffffffffffff168273ffffffffffffffffffffffffffffffffffffffff16036124095761240481612804565b612448565b8273ffffffffffffffffffffffffffffffffffffffff168273ffffffffffffffffffffffffffffffffffffffff16146124475761244682826128d5565b5b5b505050565b600073ffffffffffffffffffffffffffffffffffffffff168273ffffffffffffffffffffffffffffffffffffffff16036124bc576040517f08c379a00000000000000000000000000000000000000000000000000000000081526004016124b390613eb0565b60405180910390fd5b6124c581611796565b15612505576040517f08c379a00000000000000000000000000000000000000000000000000000000081526004016124fc90613f1c565b60405180910390fd5b612511600083836120fc565b6001600360008473ffffffffffffffffffffffffffffffffffffffff1673ffffffffffffffffffffffffffffffffffffffff16815260200190815260200160002060008282546125619190613a7c565b92505081905550816002600083815260200190815260200160002060006101000a81548173ffffffffffffffffffffffffffffffffffffffff021916908373ffffffffffffffffffffffffffffffffffffffff160217905550808273ffffffffffffffffffffffffffffffffffffffff16600073ffffffffffffffffffffffffffffffffffffffff167fddf252ad1be2c89b69c2b068fc378daa952ba7f163c4a11628f55a4df523b3ef60405160405180910390a461262260008383612154565b5050565b6000808273ffffffffffffffffffffffffffffffffffffffff163b119050919050565b505050565b6008805490506009600083815260200190815260200160002081905550600881908060018154018082558091505060019003906000526020600020016000909190919091505550565b600060016126a484610f9e565b6126ae9190613a48565b9050600060076000848152602001908152602001600020549050818114612793576000600660008673ffffffffffffffffffffffffffffffffffffffff1673ffffffffffffffffffffffffffffffffffffffff168152602001908152602001600020600084815260200190815260200160002054905080600660008773ffffffffffffffffffffffffffffffffffffffff1673ffffffffffffffffffffffffffffffffffffffff168152602001908152602001600020600084815260200190815260200160002081905550816007600083815260200190815260200160002081905550505b6007600084815260200190815260200160002060009055600660008573ffffffffffffffffffffffffffffffffffffffff1673ffffffffffffffffffffffffffffffffffffffff16815260200190815260200160002060008381526020019081526020016000206000905550505050565b600060016008805490506128189190613a48565b905060006009600084815260200190815260200160002054905060006008838154811061284857612847613509565b5b90600052602060002001549050806008838154811061286a57612869613509565b5b9060005260206000200181905550816009600083815260200190815260200160002081905550600960008581526020019081526020016000206000905560088054806128b9576128b8613f3c565b5b6001900381819060005260206000200160009055905550505050565b60006128e083610f9e565b905081600660008573ffffffffffffffffffffffffffffffffffffffff1673ffffffffffffffffffffffffffffffffffffffff168152602001908152602001600020600083815260200190815260200160002081905550806007600084815260200190815260200160002081905550505050565b82805461296090613100565b90600052602060002090601f01602090048101928261298257600085556129c9565b82601f1061299b57805160ff19168380011785556129c9565b828001600101855582156129c9579182015b828111156129c85782518255916020019190600101906129ad565b5b5090506129d691906129da565b5090565b5b808211156129f35760008160009055506001016129db565b5090565b6000604051905090565b600080fd5b600080fd5b60007fffffffff0000000000000000000000000000000000000000000000000000000082169050919050565b612a4081612a0b565b8114612a4b57600080fd5b50565b600081359050612a5d81612a37565b92915050565b600060208284031215612a7957612a78612a01565b5b6000612a8784828501612a4e565b91505092915050565b60008115159050919050565b612aa581612a90565b82525050565b6000602082019050612ac06000830184612a9c565b92915050565b600073ffffffffffffffffffffffffffffffffffffffff82169050919050565b6000612af182612ac6565b9050919050565b612b0181612ae6565b8114612b0c57600080fd5b50565b600081359050612b1e81612af8565b92915050565b600060208284031215612b3a57612b39612a01565b5b6000612b4884828501612b0f565b91505092915050565b600081519050919050565b600082825260208201905092915050565b60005b83811015612b8b578082015181840152602081019050612b70565b83811115612b9a576000848401525b50505050565b6000601f19601f8301169050919050565b6000612bbc82612b51565b612bc68185612b5c565b9350612bd6818560208601612b6d565b612bdf81612ba0565b840191505092915050565b60006020820190508181036000830152612c048184612bb1565b905092915050565b6000819050919050565b612c1f81612c0c565b8114612c2a57600080fd5b50565b600081359050612c3c81612c16565b92915050565b600060208284031215612c5857612c57612a01565b5b6000612c6684828501612c2d565b91505092915050565b612c7881612ae6565b82525050565b6000602082019050612c936000830184612c6f565b92915050565b60008060408385031215612cb057612caf612a01565b5b6000612cbe85828601612b0f565b9250506020612ccf85828601612c2d565b9150509250929050565b612ce281612c0c565b82525050565b6000602082019050612cfd6000830184612cd9565b92915050565b600080600060608486031215612d1c57612d1b612a01565b5b6000612d2a86828701612b0f565b9350506020612d3b86828701612b0f565b9250506040612d4c86828701612c2d565b9150509250925092565b600080fd5b600080fd5b7f4e487b7100000000000000000000000000000000000000000000000000000000600052604160045260246000fd5b612d9882612ba0565b810181811067ffffffffffffffff82111715612db757612db6612d60565b5b80604052505050565b6000612dca6129f7565b9050612dd68282612d8f565b919050565b600067ffffffffffffffff821115612df657612df5612d60565b5b612dff82612ba0565b9050602081019050919050565b82818337600083830152505050565b6000612e2e612e2984612ddb565b612dc0565b905082815260208101848484011115612e4a57612e49612d5b565b5b612e55848285612e0c565b509392505050565b600082601f830112612e7257612e71612d56565b5b8135612e82848260208601612e1b565b91505092915050565b600060208284031215612ea157612ea0612a01565b5b600082013567ffffffffffffffff811115612ebf57612ebe612a06565b5b612ecb84828501612e5d565b91505092915050565b612edd81612a90565b8114612ee857600080fd5b50565b600081359050612efa81612ed4565b92915050565b60008060408385031215612f1757612f16612a01565b5b6000612f2585828601612b0f565b9250506020612f3685828601612eeb565b9150509250929050565b600067ffffffffffffffff821115612f5b57612f5a612d60565b5b612f6482612ba0565b9050602081019050919050565b6000612f84612f7f84612f40565b612dc0565b905082815260208101848484011115612fa057612f9f612d5b565b5b612fab848285612e0c565b509392505050565b600082601f830112612fc857612fc7612d56565b5b8135612fd8848260208601612f71565b91505092915050565b60008060008060808587031215612ffb57612ffa612a01565b5b600061300987828801612b0f565b945050602061301a87828801612b0f565b935050604061302b87828801612c2d565b925050606085013567ffffffffffffffff81111561304c5761304b612a06565b5b61305887828801612fb3565b91505092959194509250565b60006020828403121561307a57613079612a01565b5b600061308884828501612eeb565b91505092915050565b600080604083850312156130a8576130a7612a01565b5b60006130b685828601612b0f565b92505060206130c785828601612b0f565b9150509250929050565b7f4e487b7100000000000000000000000000000000000000000000000000000000600052602260045260246000fd5b6000600282049050600182168061311857607f821691505b60208210810361312b5761312a6130d1565b5b50919050565b7f4552433732313a20617070726f76656420717565727920666f72206e6f6e657860008201527f697374656e7420746f6b656e0000000000000000000000000000000000000000602082015250565b600061318d602c83612b5c565b915061319882613131565b604082019050919050565b600060208201905081810360008301526131bc81613180565b9050919050565b7f4552433732313a20617070726f76616c20746f2063757272656e74206f776e6560008201527f7200000000000000000000000000000000000000000000000000000000000000602082015250565b600061321f602183612b5c565b915061322a826131c3565b604082019050919050565b6000602082019050818103600083015261324e81613212565b9050919050565b7f4552433732313a20617070726f76652063616c6c6572206973206e6f74206f7760008201527f6e6572206e6f7220617070726f76656420666f7220616c6c0000000000000000602082015250565b60006132b1603883612b5c565b91506132bc82613255565b604082019050919050565b600060208201905081810360008301526132e0816132a4565b9050919050565b7f4f776e61626c653a2063616c6c6572206973206e6f7420746865206f776e6572600082015250565b600061331d602083612b5c565b9150613328826132e7565b602082019050919050565b6000602082019050818103600083015261334c81613310565b9050919050565b7f4552433732313a207472616e736665722063616c6c6572206973206e6f74206f60008201527f776e6572206e6f7220617070726f766564000000000000000000000000000000602082015250565b60006133af603183612b5c565b91506133ba82613353565b604082019050919050565b600060208201905081810360008301526133de816133a2565b9050919050565b7f455243373231456e756d657261626c653a206f776e657220696e646578206f7560008201527f74206f6620626f756e6473000000000000000000000000000000000000000000602082015250565b6000613441602b83612b5c565b915061344c826133e5565b604082019050919050565b6000602082019050818103600083015261347081613434565b9050919050565b7f455243373231456e756d657261626c653a20676c6f62616c20696e646578206f60008201527f7574206f6620626f756e64730000000000000000000000000000000000000000602082015250565b60006134d3602c83612b5c565b91506134de82613477565b604082019050919050565b60006020820190508181036000830152613502816134c6565b9050919050565b7f4e487b7100000000000000000000000000000000000000000000000000000000600052603260045260246000fd5b7f4552433732313a206f776e657220717565727920666f72206e6f6e657869737460008201527f656e7420746f6b656e0000000000000000000000000000000000000000000000602082015250565b6000613594602983612b5c565b915061359f82613538565b604082019050919050565b600060208201905081810360008301526135c381613587565b9050919050565b7f4552433732313a2062616c616e636520717565727920666f7220746865207a6560008201527f726f206164647265737300000000000000000000000000000000000000000000602082015250565b6000613626602a83612b5c565b9150613631826135ca565b604082019050919050565b6000602082019050818103600083015261365581613619565b9050919050565b7f4552433732314d657461646174613a2055524920717565727920666f72206e6f60008201527f6e6578697374656e7420746f6b656e0000000000000000000000000000000000602082015250565b60006136b8602f83612b5c565b91506136c38261365c565b604082019050919050565b600060208201905081810360008301526136e7816136ab565b9050919050565b600081905092915050565b60008190508160005260206000209050919050565b6000815461371b81613100565b61372581866136ee565b94506001821660008114613740576001811461375157613784565b60ff19831686528186019350613784565b61375a856136f9565b60005b8381101561377c5781548189015260018201915060208101905061375d565b838801955050505b50505092915050565b600061379882612b51565b6137a281856136ee565b93506137b2818560208601612b6d565b80840191505092915050565b7f2e6a736f6e000000000000000000000000000000000000000000000000000000815250565b60006137f0828561370e565b91506137fc828461378d565b9150613807826137be565b6005820191508190509392505050565b7f756e72657665616c65642e6a736f6e0000000000000000000000000000000000815250565b6000613849828461370e565b915061385482613817565b600f8201915081905092915050565b7f4552433732313a206f70657261746f7220717565727920666f72206e6f6e657860008201527f697374656e7420746f6b656e0000000000000000000000000000000000000000602082015250565b60006138bf602c83612b5c565b91506138ca82613863565b604082019050919050565b600060208201905081810360008301526138ee816138b2565b9050919050565b7f4552433732313a207472616e736665722066726f6d20696e636f72726563742060008201527f6f776e6572000000000000000000000000000000000000000000000000000000602082015250565b6000613951602583612b5c565b915061395c826138f5565b604082019050919050565b6000602082019050818103600083015261398081613944565b9050919050565b7f4552433732313a207472616e7366657220746f20746865207a65726f2061646460008201527f7265737300000000000000000000000000000000000000000000000000000000602082015250565b60006139e3602483612b5c565b91506139ee82613987565b604082019050919050565b60006020820190508181036000830152613a12816139d6565b9050919050565b7f4e487b7100000000000000000000000000000000000000000000000000000000600052601160045260246000fd5b6000613a5382612c0c565b9150613a5e83612c0c565b925082821015613a7157613a70613a19565b5b828203905092915050565b6000613a8782612c0c565b9150613a9283612c0c565b9250827fffffffffffffffffffffffffffffffffffffffffffffffffffffffffffffffff03821115613ac757613ac6613a19565b5b828201905092915050565b7f5061757361626c653a206e6f7420706175736564000000000000000000000000600082015250565b6000613b08601483612b5c565b9150613b1382613ad2565b602082019050919050565b60006020820190508181036000830152613b3781613afb565b9050919050565b7f5061757361626c653a2070617573656400000000000000000000000000000000600082015250565b6000613b74601083612b5c565b9150613b7f82613b3e565b602082019050919050565b60006020820190508181036000830152613ba381613b67565b9050919050565b7f4552433732313a20617070726f766520746f2063616c6c657200000000000000600082015250565b6000613be0601983612b5c565b9150613beb82613baa565b602082019050919050565b60006020820190508181036000830152613c0f81613bd3565b9050919050565b7f4552433732313a207472616e7366657220746f206e6f6e20455243373231526560008201527f63656976657220696d706c656d656e7465720000000000000000000000000000602082015250565b6000613c72603283612b5c565b9150613c7d82613c16565b604082019050919050565b60006020820190508181036000830152613ca181613c65565b9050919050565b6000613cb382612c0c565b91507fffffffffffffffffffffffffffffffffffffffffffffffffffffffffffffffff8203613ce557613ce4613a19565b5b600182019050919050565b7f4e487b7100000000000000000000000000000000000000000000000000000000600052601260045260246000fd5b6000613d2a82612c0c565b9150613d3583612c0c565b925082613d4557613d44613cf0565b5b828204905092915050565b6000613d5b82612c0c565b9150613d6683612c0c565b925082613d7657613d75613cf0565b5b828206905092915050565b600081519050919050565b600082825260208201905092915050565b6000613da882613d81565b613db28185613d8c565b9350613dc2818560208601612b6d565b613dcb81612ba0565b840191505092915050565b6000608082019050613deb6000830187612c6f565b613df86020830186612c6f565b613e056040830185612cd9565b8181036060830152613e178184613d9d565b905095945050505050565b600081519050613e3181612a37565b92915050565b600060208284031215613e4d57613e4c612a01565b5b6000613e5b84828501613e22565b91505092915050565b7f4552433732313a206d696e7420746f20746865207a65726f2061646472657373600082015250565b6000613e9a602083612b5c565b9150613ea582613e64565b602082019050919050565b60006020820190508181036000830152613ec981613e8d565b9050919050565b7f4552433732313a20746f6b656e20616c7265616479206d696e74656400000000600082015250565b6000613f06601c83612b5c565b9150613f1182613ed0565b602082019050919050565b60006020820190508181036000830152613f3581613ef9565b9050919050565b7f4e487b7100000000000000000000000000000000000000000000000000000000600052603160045260246000fdfea2646970667358221220b71ecaacbce973744cd8b3f0e7e245cc079c3745c8580f7a83743d52ece1c62364736f6c634300080d0033",
  "immutableReferences": {},
  "source": "// SPDX-License-Identifier: MIT\n\npragma solidity ^0.8.13;\n\nimport \"@openzeppelin/contracts/token/ERC721/extensions/ERC721Enumerable.sol\";\nimport \"@openzeppelin/contracts/security/Pausable.sol\";\nimport \"@openzeppelin/contracts/utils/Strings.sol\";\nimport \"../ownable/Ownable.sol\";\n\ncontract SSSC is ERC721Enumerable, Pausable, Ownable {\n  string private _baseTokenURI;\n  string private _notRevealedURI;\n  bool private _revealed;\n\n  constructor(\n    string memory name,\n    string memory symbol,\n    string memory baseTokenURI,\n    string memory notRevealedURI\n  ) ERC721(name, symbol) {\n    _baseTokenURI = baseTokenURI;\n    _notRevealedURI = notRevealedURI;\n    _revealed = false;\n  }\n\n  function setBaseURI(string memory baseTokenURI) external onlyOwner {\n    _baseTokenURI = baseTokenURI;\n  }\n\n  function getBaseURI() external view returns (string memory) {\n    return _baseTokenURI;\n  }\n\n  function _baseURI() internal view override returns (string memory) {\n    return _baseTokenURI;\n  }\n\n  function setNotRevealedURI(string memory newNotRevealedURI) external onlyOwner {\n    _notRevealedURI = newNotRevealedURI;\n  }\n\n  function getNotRevealedURI() external view returns (string memory) {\n    return _notRevealedURI;\n  }\n  \n  function setRevealed(bool state) external onlyOwner {\n    _revealed = state;\n  }\n\n  function getReveled() external view returns (bool) {\n    return _revealed;\n  }\n\n  // function getTotalSupply() external view returns (uint256) {\n  //   return totalSupply();\n  // }\n\n  function tokenURI(uint256 tokenId)\n    public\n    view\n    override(ERC721)\n    returns (string memory)\n  {\n    require(\n      _exists(tokenId), \n      \"ERC721Metadata: URI query for nonexistent token\"\n    );\n\n    return (_revealed == false)\n      ? string.concat(_notRevealedURI, \"unrevealed.json\")\n      : string.concat(_baseTokenURI, Strings.toString(tokenId), \".json\");\n  }\n\n  function mint(address to, uint256 tokenId) external onlyOwner {\n    _safeMint(to, tokenId);\n  }\n\n  function exists(uint256 tokenId) external view returns (bool) {\n    return _exists(tokenId);\n  }\n\n  function pause() external onlyOwner {\n    _pause();\n  }\n\n  function unpause() external onlyOwner {\n    _unpause();\n  }\n\n  function _beforeTokenTransfer(address from, address to, uint256 tokenId)\n    internal\n    whenNotPaused\n    override(ERC721Enumerable)\n  {\n    super._beforeTokenTransfer(from, to, tokenId);   \n  }\n}",
  "sourcePath": "/Users/harace/dev/sssc-contract/contracts/token/SSSC.sol",
  "compiler": {
    "name": "solc",
    "version": "0.8.13+commit.abaa5c0e.Emscripten.clang"
  },
  "schemaVersion": "3.4.7",
  "updatedAt": "2022-05-06T12:41:17.059Z",
  "networkType": "ethereum",
  "devdoc": {
    "kind": "dev",
    "methods": {
      "approve(address,uint256)": {
        "details": "See {IERC721-approve}."
      },
      "balanceOf(address)": {
        "details": "See {IERC721-balanceOf}."
      },
      "getApproved(uint256)": {
        "details": "See {IERC721-getApproved}."
      },
      "isApprovedForAll(address,address)": {
        "details": "See {IERC721-isApprovedForAll}."
      },
      "name()": {
        "details": "See {IERC721Metadata-name}."
      },
      "ownerOf(uint256)": {
        "details": "See {IERC721-ownerOf}."
      },
      "paused()": {
        "details": "Returns true if the contract is paused, and false otherwise."
      },
      "safeTransferFrom(address,address,uint256)": {
        "details": "See {IERC721-safeTransferFrom}."
      },
      "safeTransferFrom(address,address,uint256,bytes)": {
        "details": "See {IERC721-safeTransferFrom}."
      },
      "setApprovalForAll(address,bool)": {
        "details": "See {IERC721-setApprovalForAll}."
      },
      "supportsInterface(bytes4)": {
        "details": "See {IERC165-supportsInterface}."
      },
      "symbol()": {
        "details": "See {IERC721Metadata-symbol}."
      },
      "tokenByIndex(uint256)": {
        "details": "See {IERC721Enumerable-tokenByIndex}."
      },
      "tokenOfOwnerByIndex(address,uint256)": {
        "details": "See {IERC721Enumerable-tokenOfOwnerByIndex}."
      },
      "tokenURI(uint256)": {
        "details": "See {IERC721Metadata-tokenURI}."
      },
      "totalSupply()": {
        "details": "See {IERC721Enumerable-totalSupply}."
      },
      "transferFrom(address,address,uint256)": {
        "details": "See {IERC721-transferFrom}."
      }
    },
    "version": 1
  },
  "userdoc": {
    "kind": "user",
    "methods": {},
    "version": 1
  }
}