{
  "contractName": "WhitelistSaleSSSC",
  "abi": [
    {
      "inputs": [
        {
          "internalType": "address",
          "name": "mintSSSCAddress",
          "type": "address"
        }
      ],
      "stateMutability": "nonpayable",
      "type": "constructor"
    },
    {
      "anonymous": false,
      "inputs": [
        {
          "indexed": true,
          "internalType": "address",
          "name": "host",
          "type": "address"
        },
        {
          "indexed": true,
          "internalType": "address",
          "name": "guest",
          "type": "address"
        }
      ],
      "name": "OwnershipExtended",
      "type": "event"
    },
    {
      "anonymous": false,
      "inputs": [
        {
          "indexed": true,
          "internalType": "address",
          "name": "revokedOwner",
          "type": "address"
        }
      ],
      "name": "OwnershipRevoked",
      "type": "event"
    },
    {
      "anonymous": false,
      "inputs": [
        {
          "indexed": true,
          "internalType": "address",
          "name": "previousOwner",
          "type": "address"
        },
        {
          "indexed": true,
          "internalType": "address",
          "name": "newOwner",
          "type": "address"
        }
      ],
      "name": "OwnershipTransferred",
      "type": "event"
    },
    {
      "anonymous": false,
      "inputs": [
        {
          "indexed": true,
          "internalType": "address",
          "name": "owner",
          "type": "address"
        },
        {
          "indexed": false,
          "internalType": "uint256",
          "name": "tokenId",
          "type": "uint256"
        }
      ],
      "name": "WhitelistMinted",
      "type": "event"
    },
    {
      "anonymous": false,
      "inputs": [
        {
          "indexed": true,
          "internalType": "address",
          "name": "owner",
          "type": "address"
        },
        {
          "indexed": false,
          "internalType": "uint256",
          "name": "mintLimitPerWhitelistSale",
          "type": "uint256"
        },
        {
          "indexed": false,
          "internalType": "uint256",
          "name": "mintStartBlockNumber",
          "type": "uint256"
        },
        {
          "indexed": false,
          "internalType": "uint256",
          "name": "mintCount",
          "type": "uint256"
        },
        {
          "indexed": false,
          "internalType": "uint256",
          "name": "maxSaleAmount",
          "type": "uint256"
        },
        {
          "indexed": false,
          "internalType": "uint256",
          "name": "mintPrice",
          "type": "uint256"
        }
      ],
      "name": "WhitelistSaleSetup",
      "type": "event"
    },
    {
      "anonymous": false,
      "inputs": [
        {
          "indexed": true,
          "internalType": "address",
          "name": "owner",
          "type": "address"
        },
        {
          "indexed": false,
          "internalType": "bool",
          "name": "flag",
          "type": "bool"
        },
        {
          "indexed": false,
          "internalType": "bytes16",
          "name": "saleType",
          "type": "bytes16"
        }
      ],
      "name": "WhitelistSaleStarted",
      "type": "event"
    },
    {
      "anonymous": false,
      "inputs": [
        {
          "indexed": true,
          "internalType": "address",
          "name": "owner",
          "type": "address"
        },
        {
          "indexed": false,
          "internalType": "uint256",
          "name": "balance",
          "type": "uint256"
        }
      ],
      "name": "Withdrawn",
      "type": "event"
    },
    {
      "inputs": [
        {
          "internalType": "address",
          "name": "guest",
          "type": "address"
        }
      ],
      "name": "addOwner",
      "outputs": [],
      "stateMutability": "nonpayable",
      "type": "function"
    },
    {
      "inputs": [
        {
          "internalType": "address",
          "name": "owner",
          "type": "address"
        }
      ],
      "name": "isOwner",
      "outputs": [
        {
          "internalType": "bool",
          "name": "",
          "type": "bool"
        }
      ],
      "stateMutability": "view",
      "type": "function",
      "constant": true
    },
    {
      "inputs": [
        {
          "internalType": "address",
          "name": "",
          "type": "address"
        }
      ],
      "name": "owners",
      "outputs": [
        {
          "internalType": "bool",
          "name": "",
          "type": "bool"
        }
      ],
      "stateMutability": "view",
      "type": "function",
      "constant": true
    },
    {
      "inputs": [
        {
          "internalType": "address",
          "name": "owner",
          "type": "address"
        }
      ],
      "name": "removeOwner",
      "outputs": [],
      "stateMutability": "nonpayable",
      "type": "function"
    },
    {
      "inputs": [
        {
          "internalType": "address",
          "name": "newOwner",
          "type": "address"
        }
      ],
      "name": "transferOwnership",
      "outputs": [],
      "stateMutability": "nonpayable",
      "type": "function"
    },
    {
      "inputs": [
        {
          "internalType": "uint256",
          "name": "mintLimitPerWhitelistSale",
          "type": "uint256"
        },
        {
          "internalType": "uint256",
          "name": "mintStartBlockNumber",
          "type": "uint256"
        },
        {
          "internalType": "uint256",
          "name": "mintCount",
          "type": "uint256"
        },
        {
          "internalType": "uint256",
          "name": "maxSaleAmount",
          "type": "uint256"
        },
        {
          "internalType": "uint256",
          "name": "mintPrice",
          "type": "uint256"
        }
      ],
      "name": "setupWhitelistSale",
      "outputs": [],
      "stateMutability": "nonpayable",
      "type": "function"
    },
    {
      "inputs": [],
      "name": "mintingInformation",
      "outputs": [
        {
          "internalType": "uint256[5]",
          "name": "",
          "type": "uint256[5]"
        }
      ],
      "stateMutability": "view",
      "type": "function",
      "constant": true
    },
    {
      "inputs": [
        {
          "internalType": "bool",
          "name": "state",
          "type": "bool"
        }
      ],
      "name": "setWhitelistMintEnabled",
      "outputs": [],
      "stateMutability": "nonpayable",
      "type": "function"
    },
    {
      "inputs": [],
      "name": "getWhitelitMintEnabled",
      "outputs": [
        {
          "internalType": "bool",
          "name": "",
          "type": "bool"
        }
      ],
      "stateMutability": "view",
      "type": "function",
      "constant": true
    },
    {
      "inputs": [
        {
          "internalType": "address",
          "name": "target",
          "type": "address"
        }
      ],
      "name": "getWhitelistClaimed",
      "outputs": [
        {
          "internalType": "bool",
          "name": "",
          "type": "bool"
        }
      ],
      "stateMutability": "view",
      "type": "function",
      "constant": true
    },
    {
      "inputs": [
        {
          "internalType": "uint256",
          "name": "requestedCount",
          "type": "uint256"
        },
        {
          "internalType": "bytes32[]",
          "name": "merkleProof",
          "type": "bytes32[]"
        }
      ],
      "name": "whitelistMint",
      "outputs": [],
      "stateMutability": "payable",
      "type": "function",
      "payable": true
    },
    {
      "inputs": [],
      "name": "withdraw",
      "outputs": [],
      "stateMutability": "nonpayable",
      "type": "function"
    }
  ],
  "bytecode": "0x60806040526000600760006101000a81548160ff0219169083151502179055503480156200002c57600080fd5b5060405162001b5238038062001b5283398181016040528101906200005291906200015b565b60016000803373ffffffffffffffffffffffffffffffffffffffff1673ffffffffffffffffffffffffffffffffffffffff16815260200190815260200160002060006101000a81548160ff02191690831515021790555080600960006101000a81548173ffffffffffffffffffffffffffffffffffffffff021916908373ffffffffffffffffffffffffffffffffffffffff160217905550506200018d565b600080fd5b600073ffffffffffffffffffffffffffffffffffffffff82169050919050565b60006200012382620000f6565b9050919050565b620001358162000116565b81146200014157600080fd5b50565b60008151905062000155816200012a565b92915050565b600060208284031215620001745762000173620000f1565b5b6000620001848482850162000144565b91505092915050565b6119b5806200019d6000396000f3fe6080604052600436106100a75760003560e01c80633fb7153c116100645780633fb7153c146101ba5780634402d2c2146101f75780637065cb4814610222578063b767a0981461024b578063d2cab05614610274578063f2fde38b14610290576100a7565b8063022914a7146100ac578063173825d9146100e95780631dd8792b14610112578063268e8ae11461013d5780632f54bf6e146101665780633ccfd60b146101a3575b600080fd5b3480156100b857600080fd5b506100d360048036038101906100ce919061100f565b6102b9565b6040516100e09190611057565b60405180910390f35b3480156100f557600080fd5b50610110600480360381019061010b919061100f565b6102d9565b005b34801561011e57600080fd5b5061012761043d565b6040516101349190611127565b60405180910390f35b34801561014957600080fd5b50610164600480360381019061015f919061116e565b610481565b005b34801561017257600080fd5b5061018d6004803603810190610188919061100f565b61054f565b60405161019a9190611057565b60405180910390f35b3480156101af57600080fd5b506101b86105a4565b005b3480156101c657600080fd5b506101e160048036038101906101dc919061100f565b61068a565b6040516101ee9190611057565b60405180910390f35b34801561020357600080fd5b5061020c6106e0565b6040516102199190611057565b60405180910390f35b34801561022e57600080fd5b506102496004803603810190610244919061100f565b6106f7565b005b34801561025757600080fd5b50610272600480360381019061026d9190611215565b61083a565b005b61028e600480360381019061028991906112a7565b610939565b005b34801561029c57600080fd5b506102b760048036038101906102b2919061100f565b610d42565b005b60006020528060005260406000206000915054906101000a900460ff1681565b6102e96102e4610eda565b61054f565b610328576040517f08c379a000000000000000000000000000000000000000000000000000000000815260040161031f90611364565b60405180910390fd5b600073ffffffffffffffffffffffffffffffffffffffff168173ffffffffffffffffffffffffffffffffffffffff160361036157600080fd5b8073ffffffffffffffffffffffffffffffffffffffff16610380610eda565b73ffffffffffffffffffffffffffffffffffffffff16036103a057600080fd5b60008060008373ffffffffffffffffffffffffffffffffffffffff1673ffffffffffffffffffffffffffffffffffffffff16815260200190815260200160002060006101000a81548160ff0219169083151502179055508073ffffffffffffffffffffffffffffffffffffffff167f0d715ebedf3d01353f62c2245e0afc27d98f1bc0fb99512f42873fb9879f023960405160405180910390a250565b610445610f85565b60006040518060a00160405280600254815260200160035481526020016004548152602001600554815260200160065481525090508091505090565b61049161048c610eda565b61054f565b6104d0576040517f08c379a00000000000000000000000000000000000000000000000000000000081526004016104c790611364565b60405180910390fd5b84600381905550836004819055508260028190555081600581905550806006819055503373ffffffffffffffffffffffffffffffffffffffff167ef526e6f735f7722cb666b11d542553afc72324566326475704d507d9bcfb9a8686868686604051610540959493929190611393565b60405180910390a25050505050565b60008060008373ffffffffffffffffffffffffffffffffffffffff1673ffffffffffffffffffffffffffffffffffffffff16815260200190815260200160002060009054906101000a900460ff169050919050565b6105b46105af610eda565b61054f565b6105f3576040517f08c379a00000000000000000000000000000000000000000000000000000000081526004016105ea90611364565b60405180910390fd5b3373ffffffffffffffffffffffffffffffffffffffff166108fc479081150290604051600060405180830381858888f19350505050158015610639573d6000803e3d6000fd5b503373ffffffffffffffffffffffffffffffffffffffff167f7084f5476618d8e60b11ef0d7d3f06914655adb8793e28ff7f018d4c76d505d54760405161068091906113e6565b60405180910390a2565b6000600160008373ffffffffffffffffffffffffffffffffffffffff1673ffffffffffffffffffffffffffffffffffffffff16815260200190815260200160002060009054906101000a900460ff169050919050565b6000600760009054906101000a900460ff16905090565b610707610702610eda565b61054f565b610746576040517f08c379a000000000000000000000000000000000000000000000000000000000815260040161073d90611364565b60405180910390fd5b600073ffffffffffffffffffffffffffffffffffffffff168173ffffffffffffffffffffffffffffffffffffffff160361077f57600080fd5b60016000808373ffffffffffffffffffffffffffffffffffffffff1673ffffffffffffffffffffffffffffffffffffffff16815260200190815260200160002060006101000a81548160ff0219169083151502179055508073ffffffffffffffffffffffffffffffffffffffff166107f5610eda565b73ffffffffffffffffffffffffffffffffffffffff167f1d95aed2b82ae4cbdcccc214bb64bc277a20e8490d69a59d7f426c67fe46c61d60405160405180910390a350565b61084a610845610eda565b61054f565b610889576040517f08c379a000000000000000000000000000000000000000000000000000000000815260040161088090611364565b60405180910390fd5b6000600254116108ce576040517f08c379a00000000000000000000000000000000000000000000000000000000081526004016108c59061144d565b60405180910390fd5b80600760006101000a81548160ff0219169083151502179055503373ffffffffffffffffffffffffffffffffffffffff167f4c02c2f9e99cc348f01f66a10edf7ff7a7f77916aeb3020d4861af70f226d88c8260405161092e9190611493565b60405180910390a250565b600760009054906101000a900460ff16610988576040517f08c379a000000000000000000000000000000000000000000000000000000000815260040161097f9061152c565b60405180910390fd5b600160003373ffffffffffffffffffffffffffffffffffffffff1673ffffffffffffffffffffffffffffffffffffffff16815260200190815260200160002060009054906101000a900460ff1615610a15576040517f08c379a0000000000000000000000000000000000000000000000000000000008152600401610a0c90611598565b60405180910390fd5b600083118015610a2757506003548311155b610a66576040517f08c379a0000000000000000000000000000000000000000000000000000000008152600401610a5d9061162a565b60405180910390fd5b82600654610a749190611679565b3414610ab5576040517f08c379a0000000000000000000000000000000000000000000000000000000008152600401610aac9061171f565b60405180910390fd5b6001600554610ac4919061173f565b83600254610ad2919061173f565b1115610b13576040517f08c379a0000000000000000000000000000000000000000000000000000000008152600401610b0a906117e1565b60405180910390fd5b600033604051602001610b269190611849565b604051602081830303815290604052805190602001209050610b8c838380806020026020016040519081016040528093929190818152602001838360200280828437600081840152601f19601f8201169050808301925050505050505060085483610ee2565b610bcb576040517f08c379a0000000000000000000000000000000000000000000000000000000008152600401610bc2906118b0565b60405180910390fd5b60005b84811015610ce457600960009054906101000a900473ffffffffffffffffffffffffffffffffffffffff1673ffffffffffffffffffffffffffffffffffffffff166340c10f19336002546040518363ffffffff1660e01b8152600401610c359291906118df565b600060405180830381600087803b158015610c4f57600080fd5b505af1158015610c63573d6000803e3d6000fd5b505050503373ffffffffffffffffffffffffffffffffffffffff167fce77e469b386be007f957632f6f65216f2e74c5daa303aff682e8296f628d010600254604051610caf91906113e6565b60405180910390a2600160026000828254610cca919061173f565b925050819055508080610cdc90611908565b915050610bce565b5060018060003373ffffffffffffffffffffffffffffffffffffffff1673ffffffffffffffffffffffffffffffffffffffff16815260200190815260200160002060006101000a81548160ff02191690831515021790555050505050565b610d52610d4d610eda565b61054f565b610d91576040517f08c379a0000000000000000000000000000000000000000000000000000000008152600401610d8890611364565b60405180910390fd5b600073ffffffffffffffffffffffffffffffffffffffff168173ffffffffffffffffffffffffffffffffffffffff1603610dca57600080fd5b60016000808373ffffffffffffffffffffffffffffffffffffffff1673ffffffffffffffffffffffffffffffffffffffff16815260200190815260200160002060006101000a81548160ff021916908315150217905550600080610e2c610eda565b73ffffffffffffffffffffffffffffffffffffffff1673ffffffffffffffffffffffffffffffffffffffff16815260200190815260200160002060006101000a81549060ff02191690558073ffffffffffffffffffffffffffffffffffffffff16610e95610eda565b73ffffffffffffffffffffffffffffffffffffffff167f8be0079c531659141344cd1fd0a4f28419497f9722a3daafe3b4186f6b6457e060405160405180910390a350565b600033905090565b600082610eef8584610ef9565b1490509392505050565b60008082905060005b8451811015610f63576000858281518110610f2057610f1f611950565b5b60200260200101519050808311610f4257610f3b8382610f6e565b9250610f4f565b610f4c8184610f6e565b92505b508080610f5b90611908565b915050610f02565b508091505092915050565b600082600052816020526040600020905092915050565b6040518060a00160405280600590602082028036833780820191505090505090565b600080fd5b600080fd5b600073ffffffffffffffffffffffffffffffffffffffff82169050919050565b6000610fdc82610fb1565b9050919050565b610fec81610fd1565b8114610ff757600080fd5b50565b60008135905061100981610fe3565b92915050565b60006020828403121561102557611024610fa7565b5b600061103384828501610ffa565b91505092915050565b60008115159050919050565b6110518161103c565b82525050565b600060208201905061106c6000830184611048565b92915050565b600060059050919050565b600081905092915050565b6000819050919050565b6000819050919050565b6110a581611092565b82525050565b60006110b7838361109c565b60208301905092915050565b6000602082019050919050565b6110d981611072565b6110e3818461107d565b92506110ee82611088565b8060005b8381101561111f57815161110687826110ab565b9650611111836110c3565b9250506001810190506110f2565b505050505050565b600060a08201905061113c60008301846110d0565b92915050565b61114b81611092565b811461115657600080fd5b50565b60008135905061116881611142565b92915050565b600080600080600060a0868803121561118a57611189610fa7565b5b600061119888828901611159565b95505060206111a988828901611159565b94505060406111ba88828901611159565b93505060606111cb88828901611159565b92505060806111dc88828901611159565b9150509295509295909350565b6111f28161103c565b81146111fd57600080fd5b50565b60008135905061120f816111e9565b92915050565b60006020828403121561122b5761122a610fa7565b5b600061123984828501611200565b91505092915050565b600080fd5b600080fd5b600080fd5b60008083601f84011261126757611266611242565b5b8235905067ffffffffffffffff81111561128457611283611247565b5b6020830191508360208202830111156112a05761129f61124c565b5b9250929050565b6000806000604084860312156112c0576112bf610fa7565b5b60006112ce86828701611159565b935050602084013567ffffffffffffffff8111156112ef576112ee610fac565b5b6112fb86828701611251565b92509250509250925092565b600082825260208201905092915050565b7f4f776e61626c653a2063616c6c6572206973206e6f7420746865206f776e6572600082015250565b600061134e602083611307565b915061135982611318565b602082019050919050565b6000602082019050818103600083015261137d81611341565b9050919050565b61138d81611092565b82525050565b600060a0820190506113a86000830188611384565b6113b56020830187611384565b6113c26040830186611384565b6113cf6060830185611384565b6113dc6080830184611384565b9695505050505050565b60006020820190506113fb6000830184611384565b92915050565b7f5365747570204d696e74436f756e740000000000000000000000000000000000600082015250565b6000611437600f83611307565b915061144282611401565b602082019050919050565b600060208201905081810360008301526114668161142a565b9050919050565b7f77686974656c6973740000000000000000000000000000000000000000000000815250565b60006040820190506114a86000830184611048565b6114b46020830161146d565b92915050565b7f5468652077686974656c6973742073616c65206973206e6f7420656e61626c6560008201527f6421000000000000000000000000000000000000000000000000000000000000602082015250565b6000611516602283611307565b9150611521826114ba565b604082019050919050565b6000602082019050818103600083015261154581611509565b9050919050565b7f4164647265737320616c726561647920636c61696d6564210000000000000000600082015250565b6000611582601883611307565b915061158d8261154c565b602082019050919050565b600060208201905081810360008301526115b181611575565b9050919050565b7f546f6f206d616e79207265717565737473206f72207a65726f2072657175657360008201527f7400000000000000000000000000000000000000000000000000000000000000602082015250565b6000611614602183611307565b915061161f826115b8565b604082019050919050565b6000602082019050818103600083015261164381611607565b9050919050565b7f4e487b7100000000000000000000000000000000000000000000000000000000600052601160045260246000fd5b600061168482611092565b915061168f83611092565b9250817fffffffffffffffffffffffffffffffffffffffffffffffffffffffffffffffff04831182151516156116c8576116c761164a565b5b828202905092915050565b7f4e6f7420636f7272656374204554480000000000000000000000000000000000600082015250565b6000611709600f83611307565b9150611714826116d3565b602082019050919050565b60006020820190508181036000830152611738816116fc565b9050919050565b600061174a82611092565b915061175583611092565b9250827fffffffffffffffffffffffffffffffffffffffffffffffffffffffffffffffff0382111561178a5761178961164a565b5b828201905092915050565b7f457863656564206d617820616d6f756e74000000000000000000000000000000600082015250565b60006117cb601183611307565b91506117d682611795565b602082019050919050565b600060208201905081810360008301526117fa816117be565b9050919050565b60008160601b9050919050565b600061181982611801565b9050919050565b600061182b8261180e565b9050919050565b61184361183e82610fd1565b611820565b82525050565b60006118558284611832565b60148201915081905092915050565b7f496e76616c69642070726f6f6621000000000000000000000000000000000000600082015250565b600061189a600e83611307565b91506118a582611864565b602082019050919050565b600060208201905081810360008301526118c98161188d565b9050919050565b6118d981610fd1565b82525050565b60006040820190506118f460008301856118d0565b6119016020830184611384565b9392505050565b600061191382611092565b91507fffffffffffffffffffffffffffffffffffffffffffffffffffffffffffffffff82036119455761194461164a565b5b600182019050919050565b7f4e487b7100000000000000000000000000000000000000000000000000000000600052603260045260246000fdfea2646970667358221220c4fd6b39b04184fbc153029d59e6281ef15f75bdbe308546e46b60d6a4a1a78d64736f6c634300080d0033",
  "immutableReferences": {},
  "source": "// SPDX-License-Identifier: MIT\n\npragma solidity ^0.8.13;\n\nimport \"../token/ISSSC.sol\";\nimport \"../ownable/Ownable.sol\";\nimport \"@openzeppelin/contracts/utils/cryptography/MerkleProof.sol\";\n\ncontract WhitelistSaleSSSC is Ownable {  \n  mapping(address => bool) private _whitelistClaimed;\n\n  uint256 private _mintCount;                   // If someone burns NFT in the middle of minting, the tokenId will go wrong, so use the index instead of totalSupply().\n  uint256 private _mintLimitPerWhitelistSale;   // Maximum purchase nft per person per sale\n  uint256 private _mintStartBlockNumber;        // In blockchain, blocknumber is the standard of time.\n  uint256 private _maxSaleAmount;               // Maximum purchase volume of normal sale.\n  uint256 private _mintPrice;                   // 1ETH = 1000000000000000000\n\n  bool private _whitelistMintEnabled = false;\n  \n  bytes32 private _merkleRoot;\n  \n  ISSSC private _sssc;\n\n  constructor (address mintSSSCAddress) {\n    _sssc = ISSSC(mintSSSCAddress);\n  }\n\n  event WhitelistSaleSetup(\n    address indexed owner,\n    uint256 mintLimitPerWhitelistSale,\n    uint256 mintStartBlockNumber,\n    uint256 mintCount,\n    uint256 maxSaleAmount,\n    uint256 mintPrice\n  );\n  event WhitelistSaleStarted(address indexed owner, bool flag, bytes16 saleType);\n  event WhitelistMinted(address indexed owner, uint256 tokenId);\n  event Withdrawn(address indexed owner, uint256 balance);\n\n  function setupWhitelistSale(\n    uint256 mintLimitPerWhitelistSale,\n    uint256 mintStartBlockNumber,\n    uint256 mintCount,\n    uint256 maxSaleAmount,\n    uint256 mintPrice\n  ) external onlyOwner{\n    _mintLimitPerWhitelistSale = mintLimitPerWhitelistSale;\n    _mintStartBlockNumber = mintStartBlockNumber;\n    _mintCount = mintCount;\n    _maxSaleAmount = maxSaleAmount;\n    _mintPrice = mintPrice;\n\n    emit WhitelistSaleSetup(\n      msg.sender, \n      mintLimitPerWhitelistSale, \n      mintStartBlockNumber, \n      mintCount, \n      maxSaleAmount, \n      mintPrice\n    );\n  }\n\n  function mintingInformation() external view returns (uint256[5] memory){\n    uint256[5] memory info =\n      [_mintCount, _mintLimitPerWhitelistSale, \n        _mintStartBlockNumber, _maxSaleAmount, _mintPrice];\n    return info;\n  }\n\n  function setWhitelistMintEnabled(bool state) external onlyOwner {\n    require(_mintCount > 0, \"Setup MintCount\");\n    // require(_mintPrice == 100, \"\");\n\n    _whitelistMintEnabled = state;\n\n    emit WhitelistSaleStarted(msg.sender, state, \"whitelist\");\n  }\n\n  function getWhitelitMintEnabled() external view returns (bool) {\n    return _whitelistMintEnabled;\n  }\n\n  function getWhitelistClaimed(address target) external view returns (bool) {\n    return _whitelistClaimed[target];\n  }\n\n  function whitelistMint(uint256 requestedCount, bytes32[] calldata merkleProof) external payable {\n    require(_whitelistMintEnabled, \"The whitelist sale is not enabled!\");\n    // require(block.number >= _mintStartBlockNumber, \"Not yet started\");\n    require(!_whitelistClaimed[msg.sender], 'Address already claimed!');\n    require(requestedCount > 0 && requestedCount <= _mintLimitPerWhitelistSale, \"Too many requests or zero request\");\n    require(msg.value == _mintPrice * requestedCount, \"Not correct ETH\");\n    require(_mintCount + requestedCount <= _maxSaleAmount + 1, \"Exceed max amount\");\n    \n    bytes32 leaf = keccak256(abi.encodePacked(msg.sender));\n    require(MerkleProof.verify(merkleProof, _merkleRoot, leaf), 'Invalid proof!');\n\n    for(uint256 i = 0; i < requestedCount; i++) {\n      _sssc.mint(msg.sender, _mintCount);\n      emit WhitelistMinted(msg.sender, _mintCount);\n      _mintCount += 1;\n    }\n\n    _whitelistClaimed[msg.sender] = true;\n  }\n\n  function withdraw() external onlyOwner {\n    payable(msg.sender).transfer(address(this).balance);\n\n    emit Withdrawn(msg.sender, address(this).balance);\n  }\n}",
  "sourcePath": "/Users/haeminmoon/Documents/sssc-contract/contracts/sale/WhitelistSaleSSSC.sol",
  "compiler": {
    "name": "solc",
    "version": "0.8.13+commit.abaa5c0e.Emscripten.clang"
  },
  "schemaVersion": "3.4.7",
  "updatedAt": "2022-06-20T07:40:24.204Z",
  "networkType": "ethereum",
  "devdoc": {
    "kind": "dev",
    "methods": {},
    "version": 1
  },
  "userdoc": {
    "kind": "user",
    "methods": {},
    "version": 1
  }
}